:020000040800F2
:1000000070160020A50200084B3600089B2E000841
:100010004936000859060008194800080000000089
:10002000000000000000000000000000753F000814
:100030001D07000800000000413D0008993F00082E
:10004000BF020008BF020008BF020008BF0200088C
:10005000BF020008BF020008BF020008BF0200087C
:10006000BF020008BF020008BF020008BF0200086C
:10007000BF020008BF020008BF020008BF0200085C
:10008000BF020008BF020008BF020008BF0200084C
:10009000BF020008BF020008BF02000835070008C1
:1000A000BF020008BF020008BF020008BF0200082C
:1000B00045400008BF02000851400008BF02000888
:1000C000BF020008BF020008BF020008BF0200080C
:1000D000BF02000801480008BF020008BF02000874
:1000E0001F070008BF020008BF020008BF02000887
:1000F000BF020008BF020008BF020008BF020008DC
:10010000BF020008BF020008BF020008BF020008CB
:10011000BF020008BF020008BF020008BF020008BB
:10012000BF020008BF02000861060008BF02000805
:10013000BF0200080000000000000000BF0200082D
:10014000BF020008BF020008BF020008BF0200088B
:10015000BF020008BF0200086D0600080D48000835
:10016000BF020008BF020008BF020008BF0200086B
:10017000BF020008BF020008BF0200080000000024
:1001800000000000BF0200080000000000000000A6
:10019000BF0200080000000000000000BF020008CD
:1001A000000000000000000000000000BF02000886
:1001B000BF020008BF020008BF020008BF0200081B
:1001C000BF02000800F002F800F05CF80AA090E816
:1001D000000C82448344AAF10107DA4501D100F002
:1001E00051F8AFF2090EBAE80F0013F0010F18BF73
:1001F000FB1A43F0010318475C5400007C540000D4
:100200000A444FF0000C10F8013B13F0070408BF3C
:1002100010F8014B1D1108BF10F8015B641E05D0DA
:1002200010F8016B641E01F8016BF9D113F0080F8F
:100230001EBF10F8014BAD1C0C1B09D16D1E58BF21
:1002400001F801CBFAD505E014F8016B01F8016B58
:100250006D1EF9D59142D6D37047000000230024CB
:1002600000250026103A28BF78C1FBD8520728BFC6
:1002700030C148BF0B6070471FB505F0D0F91FBDF6
:1002800010B510BD00F06AF91146FFF7F5FF04F054
:1002900023FB00F088F903B4FFF7F2FF03BC00F082
:1002A0008FF900000948804709480047FEE7FEE74C
:1002B000FEE7FEE7FEE7FEE7FEE7FEE7FEE7FEE716
:1002C00004480549054A064B7047000035400008C0
:1002D000C501000870100020701600207012002068
:1002E0007012002053EA020C00F069802DE9F04BF7
:1002F0004FF00006002B1FBFB3FA83F503FA05F495
:1003000024FA05F65E4012BF1643B2FA82F502FAED
:1003100005F4C5F120051EBF22FA05FC44EA0C04D1
:10032000203556EA044C4FEA144418BF641C4FF0C1
:1003300000084FF00009904271EB030C39D30029FB
:1003400019BFB1FA81F701FA07F6B0FA80F700FA9F
:1003500007F6C7F120071EBF20FA07FC46EA0C0685
:100360002037B6FBF4FCA7EB0507103F07F01F0B87
:10037000CBF120060CFA0BFB2CFA06F644BFB34671
:100380000026202FA4BF5E464FF0000B5BEA060C50
:1003900008BF4FF0010B19EB0B09ABFB027C48EBDC
:1003A0000608C01B06FB02CC0BFB03CC71EB0C0157
:1003B000C1E70B46024641464846BDE8F08B13B5FF
:1003C0004FF000004FF00001AFF30080BDE81C408B
:1003D000704710B54C1084EA530404D54042C1F173
:1003E000000138BF491E1B4204D55242C3F100032D
:1003F00038BF5B1EFFF776FF14F0804F04D04042F9
:10040000C1F1000138BF491E14F0004F04D0524220
:10041000C3F1000338BF5B1E10BD032A40F23080D9
:1004200010F0030C00F0158011F8013BBCF1020F35
:10043000624498BF11F801CB00F8013B38BF11F8B6
:10044000013BA2F1040298BF00F801CB38BF00F8CD
:10045000013B11F0030300F02580083AC0F008804A
:1004600051F8043B083A51F804CBA0E80810F5E72E
:10047000121D5CBF51F8043B40F8043BAFF3008011
:10048000D20724BF11F8013B11F801CB48BF11F886
:10049000012B24BF00F8013B00F801CB48BF00F856
:1004A000012B704710B5203AC0F00B80B1E818500E
:1004B000203AA0E81850B1E81850A0E81850BFF44E
:1004C000F5AF5FEA027C24BFB1E81850A0E81850ED
:1004D00044BF18C918C0BDE810405FEA827C24BF41
:1004E00051F8043B40F8043B08BF7047D20728BFCF
:1004F00031F8023B48BF11F8012B28BF20F8023B1E
:1005000048BF00F8012B70474FF0000200B51346BA
:1005100094469646203922BFA0E80C50A0E80C5023
:10052000B1F12001BFF4F7AF090728BFA0E80C50D4
:1005300048BF0CC05DF804EB890028BF40F8042BCD
:1005400008BF704748BF20F8022B11F0804F18BF3A
:1005500000F8012B7047704770477047754600F0F0
:100560002BF8AE4605006946534620F00700854645
:1005700018B020B5FFF7A4FEBDE820404FF00006FC
:100580004FF000074FF000084FF0000B21F007017B
:10059000AC46ACE8C009ACE8C009ACE8C009ACE8BE
:1005A000C0098D46704710B50446AFF30080204661
:1005B000BDE81040FFF76FBE0048704710100020E4
:1005C00001491820ABBEFEE726000200704700007C
:1005D00070B5194CA5200122207082206070052082
:1005E000A0700020E07020716071A071E071222085
:1005F00020721249124802F04DFB08B100F09EF83B
:100600004FF4FA6000F080FA00256119642301229A
:100610000B4802F0A2FB0A4802F006F92128FAD0A2
:1006200064230C2207A10B4802F097FB6D1CEDB26E
:10063000092DEAD370BD0000380B002024010020F2
:10064000E40500206F6E65206269742073656E7426
:10065000200D0A009C050020FEE780ED000B70478E
:10066000014800F0DFB800008C060020014800F0CF
:10067000D9B800002C06002001681823CAB2103A2D
:10068000B2FBF3F2054B6FF30901032A9B5CC365D0
:1006900000D9091D816508467047000032560008E0
:1006A00010B5014600208B698A6A4FF0C07453B1BF
:1006B000B3F5005F15D072B1012A0CD0022A0AD01E
:1006C000032A09D104E01AB1012A06D0022A03D173
:1006D000C96AC90100D5012010BDC96AA142FAD07A
:1006E00010BD002AF7D0012AF2D0022AF3D0032A43
:1006F000F3D010BD30B50468256825F48025256049
:10070000046863608368402B036803D099600068C5
:10071000C26030BD9A600068C16030BD704710B5DE
:100720004FF4005000F0B0FABDE810404FF4004024
:1007300000F0AABA4FF4807000F0A6BA72B6FEE7D5
:1007400010B50848084C0268506A21686368536A0B
:100750008342F9D300221018514154220023FFF79D
:10076000C1FD10BD7C040020180100202DE9F041DE
:100770000446876D00F08CFB064694F83500002592
:10078000022806D08020606584F834500120BDE83E
:10079000F0812068016821F016010160206841693C
:1007A00021F080014161206C08B9A06C20B1206863
:1007B000016821F0080101602068016821F0010151
:1007C00001600CE000F064FB801B052807D92020A5
:1007D0006065032084F8350084F83450D7E720683A
:1007E0000068C007EED194F85C103F208840B860E4
:1007F000012084F8350084F834500020C7E790F8D1
:100800003510022903D08021416501207047052160
:1008100080F835100068016821F0010101600020B6
:10082000704700002DE9F84304464FF00009CDF869
:10083000009063484FF41651A56D0068B0FBF1F7C6
:100840002E6894F85C10082000FA01F131420FD0B4
:1008500021680A6852070BD50A6822F004020A6070
:1008600094F85C108840A860606D40F001006065FD
:1008700094F85C104FF0010808FA01F0304208D0FB
:1008800021684969090604D5A860606D40F002003E
:10089000606594F85C1004208840304208D02168DC
:1008A0000968890704D5A860606D40F004006065A0
:1008B00094F85C1010208840304218D021680968F4
:1008C000090714D5A86020680168490304D50068A9
:1008D000000308D5A16C07E00168C90503D40168CD
:1008E00021F008010160216C09B12046884794F885
:1008F0005C1020208840304231D021680968C90648
:100900002DD5A86094F8350005282068016806D028
:10091000490347D5006800031DD4616C1CE021F039
:10092000160101602068416921F080014161206C5D
:1009300008B9A06C20B12068016821F008010160AD
:1009400094F85C103F208840A86084F8358084F8D3
:100950003490216D1FE0E16B09B120468847606D3E
:1009600000282BD0606DC00714D0052084F8350016
:100970002068016821F0010101600098401C00908E
:10098000B84203D820680068C007F6D184F83580E3
:1009900084F83490E16C002910D001B02046BDE805
:1009A000F04308470168C905D5D4016821F010015A
:1009B000016084F8358084F83490CCE7BDE8F88392
:1009C000CC0000202DE9F041044600F061FA064613
:1009D0005CB1022084F83500002584F8345020688A
:1009E000016821F0010101600DE00120BDE8F08106
:1009F00000F04EFA801B052805D9202060650320F1
:100A000084F83500F2E720680068C007F0D122685A
:100A1000116820480140D4E901031843D4E90336A2
:100A20003343184363691843A3691843E3691843C0
:100A3000236A18430843616A042903D1D4E90B13DC
:100A400019430843106020684069666A20F0070176
:100A500030460E43012704280CD1A06A0643E06A01
:100A600040B12046FFF71CFE20B14020606584F8AD
:100A70003570BAE7206846612046FFF7FDFD94F81F
:100A80005C203F2191408160656584F835700020CD
:100A9000ACE700003F8010F02DE9F0410446866D80
:100AA00090F83400002501280DD0012084F834008E
:100AB00094F835700020012F07D084F83400022507
:100AC0002846BDE8F0810220FBE7022784F8357054
:100AD00060652046FFF70EFE94F85C103F208840CA
:100AE000B0602068016841F016010160206C20B1FF
:100AF0002068016841F0080101602068016841F048
:100B000001010160DCE7000070B5044600F0C0F9A7
:100B10000546601C02D004480078044400F0B8F98F
:100B2000401BA042FAD370BDC00000202DE9F05F49
:100B30004FF4807A514D01260227514C4FF4007B2F
:100B40006FF001084FF0FF3950454CD04FF4004A88
:100B5000504546D1D4E90C01C4E90A01FFF7F0FD84
:100B6000C4E90C015146284600F088F9054659466B
:100B7000444800F083F9012D01D101280ED005432E
:100B80000CD0D4E90201401E41F1FF31C4E9020159
:100B90002068002810DDC4F800800FE0D4E90201CD
:100BA000401C41F10001C4E902012068002801DD78
:100BB000266003E0276001E0C4F80090D4E9021346
:100BC000D525A1FB050603FB0563002201FB0231CD
:100BD0004FF443720023FFF7FCFB04F0F1F9C4E982
:100BE0000601BDE8F09FD4E91001C4E90E01FFF74A
:100BF000A7FDC4E910015146AA46284600F03EF977
:100C000005465946504600F039F9012D01D015B17D
:100C100003E078B101E001280CD0D4E90401401EC2
:100C200041F1FF31C4E904016068002810DDC4F817
:100C300004800FE0D4E90401401C41F10001C4E943
:100C400004016068002801DD666003E0676001E080
:100C5000C4F80490D4E90412D525A1FB050602FBD3
:100C60000562002301FB03214FF44372FFF7B1FB40
:100C700004F0A6F9C4E90801B3E70000000002404F
:100C8000D000002000040240044910B50A68024266
:100C900002D00860FFF74AFF10BD0000143C01407D
:100CA0002DE9F84FDFF8ACA10022012403254FF015
:100CB0000F090AF1040BAAF1040E00BF0B6804FA35
:100CC00002F63340B3426ED10F7907F00307012FCC
:100CD00001D0022F16D187684FEA420805FA08FCB6
:100CE00027EA0C07D1F80CC00CFA08FC4CEA070CF8
:100CF000C0F808C04768B7430E79C6F3001696409F
:100D00003E4346600E79F643B6070AD0C6684FEAFE
:100D1000420C05FA0CF7BE438F6807FA0CF737430D
:100D2000C7600E7906F00306022E10D1D60800EB3C
:100D30008608D8F8206057074FEAD76C09FA0CF7F5
:100D4000BE430F6907FA0CF73743C8F820700668EE
:100D50004FEA420C05FA0CF7BE430F7907F0030780
:100D600007FA0CF7374307604E6816F4403F6BD024
:100D7000394E376847F480473760366822F00307FA
:100D800006F480460096354E07EB060CDCF8086842
:100D900097074FEA177809FA08F7BE43304FB84271
:100DA00002D100271FE04FE02E4FB84201D10127AA
:100DB00019E02D4FB84201D1022714E02B4FB84261
:100DC00001D103270FE02A4FB84201D104270AE0DE
:100DD000284FB84201D1052705E0274FB84201D17D
:100DE000062700E0072707FA08F73743CCF808780A
:100DF000DAF800605746D1F804C09E435FEACC2C75
:100E000000D51E433E60DBF800605F46D1F804C0A9
:100E10009E435FEA8C2C00D51E433E60DEF80060E6
:100E20007746D1F804C09E435FEA8C3C00D51E4350
:100E30003E60084F083F3E68D1F804C09E435FEA19
:100E4000CC3C00D51E433E60521C102AFFF436AF46
:100E5000BDE8F88F083C01404438024000300140B2
:100E6000000002400004024000080240000C024062
:100E700000100240001402400018024000690840BF
:100E800000D0012070470AB1816170470904FBE777
:100E90000148806870470000C00000200248816857
:100EA0000278114481607047C00000200B4810B5E3
:100EB000016841F400710160016841F480610160E2
:100EC000016841F480710160032000F071F8002096
:100ED00000F006F800F024F8002010BD003C0240AD
:100EE00070B50D4D04464FF47A712878B1FBF0F0DF
:100EF0000A490968B1FBF0F000F095FD48B9102CE3
:100F000007D200222146501E00F032F800206C600B
:100F100070BD012070BD0000C0000020CC0000208A
:100F20000B4882B0016841F480410160006800F420
:100F3000804000900648001F016841F08051016028
:100F4000006800F080500090052002B000F030B83A
:100F500044380240002809DB00F01F0201219140C3
:100F60004009800000F1E020C0F800117047000047
:100F7000F0B40E4B1B680C46C3F30223C3F1070504
:100F8000042D00D90425191D072901D2002300E0F2
:100F9000DB1E012606FA05F1491E214099409E40BC
:100FA000761E16403143F0BC03F07CBC0CED00E033
:100FB000064900F0070208684FF6FF03184040EAB0
:100FC0000220034A10430860704700000CED00E067
:100FD0000000FA052DE9F0470E46050065D0DFF860
:100FE0001481D8F80000F7B200F00F00B04207D229
:100FF00088F80070D8F8000000F00F00B04254D11B
:1010000028683D4C810712D5400703D5206840F47D
:10101000E05020602878000703D5206840F4604045
:1010200020602068A96820F0F0000843206028783C
:10103000C0072DD0304968680839012812D002282D
:1010400013D0032811D00968890700292DDA2168F7
:1010500021F0030101432160FFF71AFF814641F2AD
:10106000883A0EE009688903EFE709688901ECE72F
:10107000FFF70EFFA0EB0901514502D90320BDE89F
:10108000F0872068696800F00C00B0EB810FEFD1A9
:10109000D8F80010404601F00F01B14207D907709F
:1010A000006800F00F00B04201D00120E7E7287887
:1010B000400705D52068E96820F4E0500843206027
:1010C0002878000706D52068296920F4604040EAA6
:1010D000C100206000F038F82168084AC1F303110C
:1010E000515CC8400649086006480068FFF7F8FEF2
:1010F0000020C4E7003C0240083802403A5600088D
:10110000CC000020C400002004480549006809689C
:10111000044AC1F38221515CC8407047CC000020D2
:10112000083802404A560008044805490068096822
:10113000044AC1F34231515CC8407047CC000020E2
:10114000083802404A560008224810B5006810F0DE
:101150000C02214815D04110042A11D01D4C241F27
:10116000082A0FD00C2A0CD12268236802F03F0213
:101170005B0221D52068C0F38810A0FB010120E0AC
:10118000084610BD2268236802F03F025B0205D5C5
:101190002068C0F38810A0FB010104E02168C1F3BE
:1011A0008811A1FB00010023FFF79CF82168C1F31F
:1011B0000141491C49000AE02168C1F38811A1FBE3
:1011C00000010023FFF78EF82168C1F30271B0FB24
:1011D000F1F010BD083802400024F4002DE9F84F6A
:1011E00004007DD0DFF878B32078ABF10407C007A6
:1011F000A7F1040550D0DBF800105846C1F3810177
:1012000001290FD00168C1F38101022902D1396897
:10121000490207D40068C0F38100032809D1386867
:10122000400206D52868800336D560680028D8D0EB
:1012300032E06068B0F5803F10D0B0F5A02F28688C
:1012400010D020F480302860286820F480202860A6
:101250006068A0B1FFF71CFE06460CE0286840F469
:101260008030F4E740F480202860F7E7FFF710FEB5
:10127000801B642876D828688003F7D50CE0FFF738
:1012800007FE064605E000BFFFF702FE801B64284C
:10129000F0D828688003F7D42078DFF8C892800758
:1012A0004FF0000A44D5DBF80010584611F00C0F3F
:1012B0000FD00168C1F38101022902D139684902C6
:1012C00007D50068C0F3810003280AD138684002BE
:1012D00007D42868800715D5E068012800D111E0FF
:1012E0003AE1E068B0B10120C9F80000FFF7D0FD95
:1012F000064604E0FFF7CCFD801B0228BAD8286818
:101300008007F7D52868216920F0F80040EAC1007D
:1013100028600DE0C9F800A0FFF7BAFD064604E01A
:10132000FFF7B6FD801B02281CD828688007F7D479
:101330002078000727D5DFF828828B48616908F1FB
:101340006C0881B101210160FFF7A2FD064604E0AF
:10135000FFF79EFD801B022804D8D8F80000800704
:10136000F6D510E089E0C0F800A0FFF791FD064631
:1013700005E000BFFFF78CFD801B02287DD8D8F860
:1013800000008007F6D42078400769D574484FF0F4
:10139000000838300068C0000BD47148383001684C
:1013A00041F08051016000684FF0010800F080506A
:1013B00000906E4E3068C00511D4306840F48070E3
:1013C0003060FFF765FD009006E000BFFFF760FDAD
:1013D0000099401A022850D83068C005F6D5604EF2
:1013E000A068683601280FD00528306810D020F09A
:1013F00001003060306820F004003060A068B8B1AF
:10140000FFF746FD00900FE0306840F00100F4E780
:1014100040F004003060F7E7FFF73AFD0099411A09
:1014200041F28830814264D830688007F4D50EE0FC
:10143000FFF72EFD009007E0FFF72AFD0099411A03
:1014400041F28830814254D830688007F4D4B8F132
:10145000000F05D042483830016821F0805101600A
:10146000A069A8B3DBF80010C1F38101022947D0BD
:101470000228C9F860A005D000E03AE0FFF708FDB7
:10148000044639E0FFF704FD064604E0FFF700FDDF
:10149000801B02282DD828688001F7D4F4E90701C1
:1014A0000843E168324A490802EB0141A26841EA77
:1014B00082110843217C40EA0160217D40EA0170ED
:1014C00038600120C9F86000FFF7E2FC044606E03E
:1014D00044E000BFFFF7DCFC001B022809D82868A5
:1014E0008001F7D53AE000BFFFF7D2FC001B0228CD
:1014F00002D90320BDE8F88F28688001F4D42DE0DC
:101500000128F7D03868E26900F48001914223D1C4
:10151000226A00F03F0191421ED147F6C071626A13
:101520000140B1EB821F17D1A26A4FF0FF3300F4E4
:10153000403103EB5202B1EB024F0DD194F82C2055
:1015400000F07061B1EB026F06D194F8301000F03A
:10155000E040B0EB017F01D00120CBE70020C9E7DC
:101560000838024000004742800E474200700040A9
:101570000000FFFF70B5040009D0606A002540B18B
:1015800025616561A56294F8510040B10CE001202D
:1015900070BD6068B0F5827FF4D0E561F2E784F851
:1015A0005050204600F044F8022084F85100206892
:1015B000016821F040010160A088218900F4827057
:1015C00001F404410843A18901F400610843217C2E
:1015D00001F002010843217D01F001010843218B44
:1015E00001F400710843217F01F03801084394F8A9
:1015F000201001F080010843218D01F400510843BF
:1016000021680860A069042101EA104094F82410C0
:1016100001F010010843216848602068C16921F485
:101620000061C1616565012084F85100002070BD32
:101630002DE9F04186B0044614216846FEF764FFA8
:101640001F492068884238D11E480025016841F4AE
:1016500080410160006800F480400590194810380E
:10166000016841F004010160016801F00401059185
:10167000016841F0020101600068022400F00200EC
:101680000094059003260720CDE90360DFF8388039
:1016900069464046CDE90145FFF702FB04200527D6
:1016A0008DE8F10069464046FFF7FAFA60028DE8DE
:1016B000F10069460548FFF7F3FA06B0BDE8F0818E
:1016C0000038004040380240000802400004024058
:1016D0002DE9F84F984616468A460446FFF7D8FB90
:1016E000814694F8510001281ED1BAF1000F73D041
:1016F000002E71D094F85000012815D0012784F8ED
:101700005070032084F8510000256565C4F830A0AE
:10171000A686E686A563A587E58765642564A06837
:10172000B0F5004F03D00CE00220BDE8F88F206830
:10173000016821F0400101602068016841F48041A6
:10174000016020680168490603D4016841F0400146
:101750000160E068B0F5006F606803D048B3012E07
:1017600027D047E008B1012E1FD1206B21680088E7
:10177000C86006E020688168890709D5216B09885F
:10178000C160206B801C2063E08E401EE0860CE070
:10179000FFF77EFBA0EB0901414503D3B8F1FF3F02
:1017A00003D035E0B8F1000F32D0E08E0028E1D14F
:1017B00023E0206B21680078087306E020688168C8
:1017C00089070AD5216B09780173206B401C2063BF
:1017D000E08E401EE0860DE02BE0FFF759FBA0EB0A
:1017E0000901414503D3B8F1FF3F03D010E0B8F140
:1017F000000F0DD0E08E0028E0D14A464146204639
:1018000002F024FB08B120206065A06830B109E037
:1018100084F8517084F85050032086E72068C1682E
:101820008068009084F8517004F8505F6068002868
:10183000F3D0012079E72DE9FF4F81B01D46934693
:1018400004464FF001090E9EFFF722FB074694F86D
:1018500051006168012806D0B1F5827F3CD1A168B2
:10186000C9BB042838D10298002871D0BBF1000F01
:10187000FBD0002DF9D094F8500001282CD04FF067
:10188000010A84F850A094F85100042802D00520E1
:1018900084F851004FF00008C4F85480C4F838B000
:1018A000E587A58702992163E586A586C4F840806F
:1018B000C4F8448020680168490603D4016841F0F7
:1018C00040010160E068B0F5006F606808D0F0B3D7
:1018D000012D49D081E0FFE7022005B0BDE8F08F7F
:1018E00008B1012D39D1206B21680088C860206BB8
:1018F000801C2063E08E401EE0862EE02068816818
:1019000089070FD5E18E69B1B9F1010F0AD1216BB9
:101910000988C160206B801C2063E08E401EE08639
:101920004FF0000920688168C9070CD0E18F51B1E0
:10193000C068A16B0880A06B801CA063E08F401E74
:10194000E0874FF00109FFF7A3FAC01B01E00BE0AD
:1019500067E0B04201D3701C50D1E08E0028CDD199
:10196000E08F0028CAD13EE0206B21680078087320
:10197000206B401C2063E08E401EE0862DE0206836
:10198000816889070FD5E18E69B1B9F1010F0AD1DC
:10199000216B09780173206B401C2063E08E401E90
:1019A000E0864FF0000920688168C9070CD0E18FFC
:1019B00051B1C068A16B0870A06B401CA063E08FA0
:1019C000401EE0874FF00109FFF762FAC01BB042EA
:1019D00002D3701C01D011E086B1E08E0028CED178
:1019E000E08F0028CBD13A463146204602F02EFA4D
:1019F00050B12020606584F8508012E084F851A036
:101A000084F85080032068E7A06818B92068C1688E
:101A10008068009084F851A084F85080606D0028A0
:101A2000F1D0012059E710B5401EB0F1807F01D3FD
:101A3000012010BD4FF0E02460610F21601702F01B
:101A400031FF0020A06107202061002010BD7047F9
:101A50007047000070B590F83C20012A32D0012474
:101A600080F83C40022280F83D2003685A689D6857
:101A700022F070060A6832435A60134B02689A4299
:101A800014D0B2F1804F11D0104B9A420ED0104BAF
:101A90009A420BD00F4B9A4208D00F4B9A4205D076
:101AA0000E4B9A4202D00E4B9A4204D1496825F05F
:101AB00080031943916080F83D40002180F83C107C
:101AC000084670BD022070BD0000014000040040C7
:101AD00000080040000C00400004014000400140AC
:101AE0000018004010B5040003D094F83D0010B178
:101AF00007E0012010BD002084F83C00204600F0E3
:101B00001FF8022084F83D00211D206802F0A6FA8B
:101B1000012084F8460084F83E0084F83F0084F8F1
:101B2000400084F8410084F8420084F8430084F8BF
:101B3000440084F8450084F83D00002010BD0000FA
:101B400008B501681F48B1F1804F0AD01E4A914282
:101B500016D1016841F002010160006800F0020046
:101B60002DE0016841F0010101600068002200F0F1
:101B70000100009011461C20FFF7FAF91C2010E02C
:101B8000124A914211D1016841F0040101600068DC
:101B9000012200F00400009011461E20FFF7E8F932
:101BA0001E20BDE80840FFF7D5B9094A914207D188
:101BB000016841F008010160006800F00800009031
:101BC00008BD00004038024000040040000800400A
:101BD000000C004090F83D10012901D00120704711
:101BE000022180F83D100168CA6842F00102CA6013
:101BF00000681149884214D0B0F1804F11D00F49CC
:101C000088420ED00E4988420BD00E49884208D037
:101C10000D49884205D00D49884202D00C498842BE
:101C200004D1816801F00701062903D0016841F061
:101C300001010160002070470000014000040040E5
:101C400000080040000C004000040140004001403A
:101C50000018004070B5044690F83C0000250128AB
:101C600017D0012684F83C60022084F83D002068EB
:101C7000826822F0770222F47F428260086850284E
:101C800038D00DDC20284FD005DC90B3102811D1BE
:101C90004AE0022070BD302846D040280AD13BE0FF
:101CA00060282FD070280DD0B0F5805F03D0B0F53C
:101CB000005F12D0012584F83D60002084F83C00CC
:101CC000284670BDCB68D1E90121206802F03BFABB
:101CD0002068816841F0770109E0CB68D1E90121F2
:101CE000206802F030FA2068816841F48041816008
:101CF000E1E719E0CA684968206802F0F9FA502162
:101D0000206806E0CA684968206802F002FB60218A
:101D1000206802F022FACEE7CA684968206802F01B
:101D2000E7FA40212068F4E7226801461046F0E710
:101D300070472DE9F04104460068C66805694FF018
:101D40000007A90713D5B10711D5F91E01610120BC
:101D50002077206880698007204602D0FFF7E8FFDF
:101D600004E000F0BFF8204600F051F9277768073B
:101D700016D5700714D521686FF0040008610220A1
:101D800020772068806910F4407F204602D0FFF75A
:101D9000CFFF04E000F0A6F8204600F038F92777DE
:101DA000280715D5300713D521686FF008000861A2
:101DB000042020772068C0698007204602D0FFF702
:101DC000B7FF04E000F08EF8204600F020F92777F6
:101DD000E80616D5F00614D521686FF010000861EA
:101DE000082020772068C06910F4407F204602D088
:101DF000FFF79EFF04E000F075F8204600F007F9B9
:101E00002777E80708D0F00706D021686FF00100B7
:101E10000861204600F060F9280608D5300606D58E
:101E200021686FF0800008612046FFF710FE680609
:101E300008D5700606D521686FF04000086120467D
:101E400000F0E4FCA8060AD5B00608D521686FF0BA
:101E5000200008612046BDE8F041FFF7F9BDBDE86C
:101E6000F081000030B587B0044614216846FEF7C3
:101E70004BFB2468164D0021164803230222AC4276
:101E80000FD1046844F0020404600068009300F07D
:101E900002000590CDE90121CDE9031269460E4803
:101EA00011E00E4DAC4210D1046844F0010404600E
:101EB0000068009300F001000590CDE90121CDE913
:101EC000031269460648FEF7EBFE07B030BD00007E
:101ED000000400403038024000040240000C004082
:101EE00000000240704770B5044690F83C000026A0
:101EF0000D4601280FD0012084F83C006AB1042A65
:101F00001DD0082A2FD00C2A3FD00126002084F8AB
:101F10003C00304670BD022070BD206802F026F9FA
:101F20002068816941F0080181612068816921F0A0
:101F300004018161206881692A69114311E02068E8
:101F400002F044F92068816941F4006181612068F0
:101F5000816921F480618161206881692A6941EA8F
:101F600002218161D2E7206802F066F92068C16928
:101F700041F00801C1612068C16921F00401C1611B
:101F80002068C1692A69114311E0206802F088F9CC
:101F90002068C16941F40061C1612068C16921F410
:101FA0008061C1612068C1692A6941EA0221C16179
:101FB000ACE710B5040003D094F83D0010B107E081
:101FC000012010BD002084F83C00204600F01EF8DF
:101FD000022084F83D00211D206802F03FF8012016
:101FE00084F8460084F83E0084F83F0084F84000FE
:101FF00084F8410084F8420084F8430084F84400E7
:1020000084F8450084F83D00002010BD70477047FB
:1020100010B50446022249B104290ED0082913D074
:1020200094F84100012816D0012010BD94F83E001C
:102030000128F9D184F83E200FE094F83F000128F0
:10204000F2D184F83F2008E094F840000128EBD159
:1020500084F8402001E084F841200122206802F049
:1020600065F816492068164A884201D0904203D18B
:10207000436C43F4004343642068884213D0B0F1BA
:10208000804F10D00F4988420DD00F4988420AD0A6
:102090000E49884207D0904205D00D49884202D0AF
:1020A0000C49884204D1816801F00701062903D058
:1020B000016841F001010160002010BD00000140F5
:1020C000000401400004004000080040000C0040F3
:1020D00000400140001800402DE9F0432DED0C8B2D
:1020E000ADF57B7DFE4988427ED1FE4DA86B401C3C
:1020F000A863E86B401CE863286C401C286401F06E
:1021000021FE01F097FEB0EE40AAF0EE60AA01F0C9
:1021100097FEB0EE409AF0EE609A9FEDF38AA86BBE
:102120004FF0000805F180041E2876DBC5F83880E2
:10213000A868E86094ED040B84ED060B28696861DB
:1021400094ED080B84ED0A0B01F07AFE84ED080B88
:10215000FEF79EFE286101F06DFE84ED040BFEF794
:1021600097FEA860E968401A00EE100AF8EE400AEF
:1021700080EE880A10EE100A03F0E0F994ED060BE9
:1021800041EC1B0B53EC102B94ED040B51EC100B9A
:1021900003F0EAF89FEDD5DB53EC1D2B02F01EFD9A
:1021A00053EC1B2B02F01AFD41EC1B0B85ED1EBB03
:1021B000D5E90401401A00EE100AF8EE400A80EE5C
:1021C000880A10EE100A03F0B9F994ED0A0B41ECFD
:1021D0001C0B53EC102B94ED080B51EC100B03F07F
:1021E000C3F853EC1D2B00E083E202F0F7FC53EC44
:1021F0001C2B02F0F3FC41EC100B51EC1B0B84ED9B
:10220000000B53EC102B02F035FC9FEDBA1B53EC86
:10221000112B02F075FFC4E90201B24A6032111FAE
:10222000081F8DE80700031F103A1039103800F01E
:102230005DFFA869E861FEF72BFEA861E969F6EE8B
:10224000000A401A00EE100AAC49B8EE400A80EECF
:1022500008BA95ED170A30EE200A10EE100A85ED47
:10226000170A884208DC10EE100AA549884203D2FA
:102270009FEDA40A85ED170A10EE100A03F05EF92F
:102280009FEDA11B53EC112B02F03AFF41EC180B10
:10229000686E03F053F99FED9E1B53EC112B02F077
:1022A0002FFF53EC182B02F0E5FB02F0B1FB00EE20
:1022B000100AB0EE4B1A85ED170A85ED190AD5ED17
:1022C0001A0A02F0ABFA9448944F41F2941990ED37
:1022D000000A85ED1B0A90ED010A85ED1C0A90EDC0
:1022E000020A85ED1D0A9FED8E8BE86B0A2879DBCB
:1022F000C5F83C8094ED0C0B464653EC182B51EC82
:10230000100B02F0C3FD1CD197ED000B53EC182B02
:1023100051EC100B02F0F2FF13D297ED000B9FED82
:10232000821B51EC100B53EC112B02F0ADFE08D2C6
:10233000EE7000214E46484601F01EFE0021304658
:1023400024E094ED0C0B53EC182B51EC100B02F025
:102350009DFD20D197ED000B53EC182B51EC100B89
:1023600002F092FE17D297ED000B9FED711B51EC1E
:10237000100B53EC112B02F0C1FF0CD2EE704E4645
:102380004946002001F0F8FD314629E001F0FCFD4E
:1023900097ED000B38E094ED0C0B53EC182B51EC3F
:1023A000100B02F073FD1ED197ED000B53EC182BB0
:1023B00051EC100B02F06AFD15D1B0EE480AF0EEB8
:1023C000680A53EC102B94ED0E0B51EC100B02F03D
:1023D0005DFD08D00021EE70084601F0CDFD002122
:1023E0000020D3E712E094ED0E0B53EC182B51ECC8
:1023F000100B02F04BFD0AD1686C401C6864052884
:102400002DDD9FED4D0B6E6484ED0E0B27E001205A
:10241000E870E86D03F092F841EC100B3F4801F0D2
:1024200015F9B0EE408AF0EE608A94ED0C0B53EC97
:10243000182B51EC100B02F097FF41EC100B4048A9
:10244000FEF70BF994ED0C0B53EC182B51EC100B21
:1024500002F010FB41EC100B3A48FEF7FEF8286C36
:10246000142879DBE878364E9FED37BB354F9FED6A
:10247000388B002870D0C5F8408096ED000B53ECE7
:10248000182B51EC100B02F039FF0ED295ED1E0BFC
:10249000304601F0DBF851EC100B02F033FDA8627E
:1024A000296A0844002101F067FD97ED000B53EC09
:1024B000182B51EC100B02F021FF0ED294ED000B03
:1024C000204801F0C3F851EC100B02F01BFDE8624C
:1024D000696A0144002001F057FD96ED000B3CE0D5
:1024E0000C0500200000002000007A4400000000DD
:1024F00000408F40000000000000E03F3333B33F56
:102500003333B3BF00000000666666666666E63F6A
:10251000333333333333D33F2C0F0020D00F00201D
:102520000000000000000000000000000000544017
:1025300000000000000054C0000000000000F0BFD8
:10254000500F0020900F0020B81E85EB51B89EBFA1
:10255000B81E85EB51B89E3F4BE053EC1B2B51EC62
:10256000100B02F091FD0ED295ED1E0B9F4801F06D
:102570006DF851EC100B02F0C5FCA862296A091A2B
:10258000002001F0F9FC97ED000B53EC1B2B51ECF4
:10259000100B02F079FD0ED294ED000B944801F07F
:1025A00055F851EC100B02F0ADFCE862696A081AAC
:1025B000002101F0E9FC96ED000B02F083F953ECE9
:1025C000182B51EC100B02F05FFD03D800210846D8
:1025D00001F0D2FC97ED000B02F074F953EC182BCC
:1025E00051EC100B02F050FD03D80021084601F019
:1025F000CBFC287801287CD10026A9462F4695EDF2
:10260000120A02F0FAF97B4D10EE100A45F8020F9B
:1026100097ED130A02F0F1F910EE100A686097EDD9
:10262000140A02F0EAF910EE100AA86097ED150AF4
:1026300002F0E3F910EE100AE86097ED160A02F0D6
:10264000DCF910EE100A286197ED170A02F0D5F9AF
:1026500010EE100A686197ED1B0A02F0CEF910EE39
:10266000100AA86197ED1C0A02F0C7F910EE100AD3
:10267000E86197ED1D0A02F0C0F910EE100A286219
:1026800000209FED5D0AAD1E05EB8001401CD1F8D6
:102690000210062800EE901A60EE800AFCEEE00AB6
:1026A00010EE901A31448EB2EEDB002005EB800173
:1026B000401CD1F81A10032800EE901A60EE800A30
:1026C000FCEEE00A10EE901A31448EB2EEDBB0EE72
:1026D0004A0AF0EE6A0A02F077F951EC100BB0EEFC
:1026E000490A45F8260FF0EE690A696002F06CF9B4
:1026F00000E074E051EC100BA860E96000EE100AF5
:102700000F4628686968B0EE408A9FED3C9B53EC09
:10271000192B02F0F5FC02F025FC00EE907A06443D
:10272000B0EE480A53EC192B51EC100B02F0E8FC08
:1027300002F018FC064494ED020B02F045F951EC4E
:10274000100B53EC192B2861696100EE100A00EEA2
:10275000901A263D51EC100B02F0D2FC02F002FC64
:10276000304486B272B64FF47A7226496846FDF755
:1027700054FE62B6002108466C4601E000200BE0E2
:1027800004EB800234F820309788BB4203D21368F0
:10279000576817605360401CC1F1F9028242EFDCB8
:1027A000491CF929EADB002704EB8700408802F086
:1027B0002AF905EB47017F1CA1F84400304486B29A
:1027C000FA2FF1DB304602F01EF9A5F8380289F83D
:1027D00000804FF40F7207490B4800F00FFB0DF516
:1027E0007B7DBDEC0C8BBDE8F0830000500F00201A
:1027F000900F0020A80100200000C8420000000047
:1028000000005940420B00209C0500207047704793
:1028100000680349884202D10249012008707047CC
:10282000001001400000002010F8411F40780843CC
:1028300070470000F8B5016804460868CA684B692B
:1028400010F00F0F4FF0000559D003F0010602F40D
:102850009077374365D0C10705D0D10503D5616CAA
:1028600041F001016164410705D5D90703D0616CCE
:1028700041F002016164810705D5D90703D0616C7D
:1028800041F004016164010707D502F020013143E2
:1028900003D0616C41F008016164616C00293AD099
:1028A000800604D5900602D5204601F01DFE206862
:1028B0004069616CC0F38010090700D460B3204602
:1028C00001F0DDFD20684069400621D52068143004
:1028D00050E8001F21F0400140E80012002AF5D125
:1028E000E06BA8B172490165E06BFDF788FF002835
:1028F00011D0E06B016D01B0BDE8F04008478306E0
:102900000FD593060DD52046BDE8F84001F0ECBD8B
:102910002046FFF77DFFF8BD2046FFF779FF65648D
:10292000F8BD266B2023012E7ED1C6067CD5D606A7
:102930007AD508684868009048694FF0020640065A
:102940004DD5E26B106840684FF480770004000CAE
:102950003AD0A18D814237D9E085D069B8422DD0D7
:1029600020680C3050E8001F21F4807140E800120C
:10297000002AF5D12068143050E8001F21F0010131
:1029800040E80012002AF5D12068143050E8001FFA
:1029900021F0400140E80012002AF5D184F84230CD
:1029A000256320680C3050E8001F21F0100140E83A
:1029B0000012002AF5D1E06BFDF7D8FE6663A08D0A
:1029C000E18D401A81B206E0A18D8142A8D1D06983
:1029D000B842A5D166632046FFF719FFF8BDA08D68
:1029E000E18D401A81B2E08D0028F7D00029F5D0A2
:1029F00020680C3050E8002F22F4907240E8002745
:102A0000002FF5D12068143050E8002F22F0010289
:102A100040E80027002FF5D184F842302563206874
:102A20000C3050E8002F00E006E022F0100240E8F1
:102A30000023002BF3D1CDE705062BD5150629D5AC
:102A400094F841002128C9D1A068B0F5805F01D178
:102A50002069B0B1206A411C216221680078486079
:102A6000E08C401E0004000CE084B7D12068C168EF
:102A700021F08001C1602068C16841F04001C1605F
:102A8000F8BD206A0088C0F308004860206A801CF6
:102A90002062E5E74006F3D55006F1D5CA68204626
:102AA00022F04002CA6084F8413000F0E9F9F8BD34
:102AB0003743000870B5040004D094F841000025A5
:102AC00010B106E0012070BD84F84050204600F0AF
:102AD00023F8242084F841002068C16821F40051C3
:102AE000C160204601F062FD2068016921F4904137
:102AF00001612068416921F02A0141612068C168B3
:102B000041F40051C1606564202084F8410084F8DC
:102B100042006563002070BD2DE9F04786B0054690
:102B200014216846FDF7F0FC4C484B4B2A684B4992
:102B300014380226032700249A4263D10A6842F01F
:102B400010020A60096801F010010591016841F066
:102B500001010160016801F001010591016841F086
:102B60000201016000684FF4806800F002004FF03D
:102B70000709CDF80080CDE904900397CDE9016401
:102B800069463748FEF78CF802AA4FF0400A82E8FF
:102B90009002CDE900A669463248FEF781F8334E2F
:102BA00031484FF00067C6E903487461B461F461CD
:102BB0003462746286E881043046FDF703FF08B191
:102BC000FDF7BCFDAE63B563284E27486036783804
:102BD0003060C6E90174C6E9034880157461C6E92E
:102BE0000640346230467462FDF7ECFE08B1FDF732
:102BF000A5FDEE63022201212520B563FEF7B8F999
:102C0000252023E01A4B9A4222D10A6842F0200282
:102C10000A60096801F020010591016841F0040192
:102C200001600068029400F004000590C020CDE926
:102C300000060820CDE9037069460E48FEF730F81B
:102C4000002211464720FEF793F94720FEF782F94C
:102C500006B0BDE8F0870000001001404438024093
:102C60000000024000040240B86402402C0600202C
:102C7000001401400008024090F84230202B01D09F
:102C80000220704721B11AB10023036301F014BD83
:102C90000120704790F84230202B01D0022070476D
:102CA00021B11AB10023036301F056BD0120704722
:102CB0002DE9F0410068224988423FD12148002691
:102CC000224C02782048224B0178032918D231B1D6
:102CD00001290BD06254032101701A7027E00A21E8
:102CE000B1EB121F23D12270012105E00521B1EBC8
:102CF000121F03D162700221017018E0067016E005
:102D0000134D104F2D783F7862547D40532903D2E4
:102D1000491C01701D700AE01D70067061782078F2
:102D200061F31F10C0B2854201D100F0B7F8BDE8D1
:102D3000F041012203490748FFF7ACBFBDE8F0812D
:102D4000001401402401002020010020D40A0020AA
:102D50002C010020E405002070472DE9F8430446CB
:102D600090F84100984616460D46202802D00220D1
:102D7000BDE8F88385B17EB100206064212084F82D
:102D80004100FEF785F8A6848146E684A0682027E6
:102D9000B0F5805F02D003E00120E9E7206910B1BF
:102DA0002E4600250EE000260CE08021204601F092
:102DB000EEFCA8B9C6B116F8010B21684860E08C9A
:102DC000401EE084E08C4B464FF00002CDF80080BE
:102DD0000028EAD14FF04001204601F0D8FC40B174
:102DE00084F841700320C3E735F8020BC0F30800F4
:102DF000E3E784F841700020BAE7000070B50446AC
:102E000090F84100202801D0022070BD01B3FAB132
:102E10002162A284E28400206064212384F841308E
:102E2000A56B144BEB63A56B134B2B64A56B134B7A
:102E3000EB64A36B186520681346A56B021D28463A
:102E4000FDF72AFE30B110206064202084F8410094
:102E5000012070BD21686FF04000086020681430C8
:102E600050E8001F41F0800140E80012002AF5D12F
:102E7000002070BD33440008754400084543000835
:102E800000680349884202D1024901200870704756
:102E900000100140000000207047FEE72DE9F041DE
:102EA0004D4CE178A07801F07F0100EB012002F0A9
:102EB000D8F89FED4A1B53EC112B02F021F901F0D9
:102EC000A7FD484B00EE100A1846D3ED010A4088D2
:102ED000454DF3EE042A9FED451ADFED451AB4EE99
:102EE000E00AA4F57A71F1EE10FA2BDD70EE600ABB
:102EF0005FF0000280EEA22A02EE902AF0EE400A75
:102F0000F8EE622A42EE220A10EE906AAE4201DD2D
:102F100070EEC10A871860EEA10AFCEEE00A10EE1E
:102F2000906A21F8276004EB82063779767907EBFF
:102F30000626871801EB8707521CD2B27E80142A1E
:102F4000DAD32CE030EE012A5FF0000272EE600A64
:102F500080EEA22A02EE902AF0EE400AF8EE622AF3
:102F600042EE220A10EE906AAE4201DD70EEC10A16
:102F7000871860EEA10AFCEEE00A10EE906A21F8D4
:102F8000276004EB82063779767907EB06268718E7
:102F900001EB8707521CD2B27E80142ADAD3143098
:102FA00080B283ED010A5880B0F5827F12D90A4AB7
:102FB00000206E3231F8204022F8204001EB8004DE
:102FC00002EB8005401C6488C0B26C80FA28F1D303
:102FD00000205880BDE8F081D40A002000000000E5
:102FE0000000903F240100200000B4430000B443DF
:102FF0000000C84210B56420FDF786FD80216B20DB
:1030000000F0E4F86420FDF77FFD00216B2000F064
:10301000DDF801216B2000F0D9F80721192000F01C
:10302000D5F806211A2000F0D1F800211B2000F06D
:10303000CDF800211C2000F0C9F8BDE81040322076
:10304000FDF762BD2DE9F04F89B08846DDE913B97F
:1030500000211C4615460646DDF848A0084601AA90
:1030600005ABFF2757545854491C0F29FADBBB20E6
:103070001C4F8DF80400002201213846FDF703FFA4
:103080004FF0FF3000900F2305AA01A91648FEF764
:10309000D2FB012211463846FDF7F5FEBDF81500BA
:1030A00040BA3080BDF8170040BAA8F80000BDF85B
:1030B000190040BA2880BDF81B0040BAA9F80000EA
:1030C000BDF81D0040BA2080BDF81F0040BAAAF824
:1030D0000000BDF8210040BAABF8000009B0BDE81F
:1030E000F08F000000080240240400202DE9F04782
:1030F0008AB0074612A8154690E800070E4609AAAE
:1031000008A907A88DE807001C4606AB05AA04A974
:1031100003A8FFF797FFBDF90C0000EE100AF8EEC8
:10312000C00A9FED260A60EE800AC7ED000ABDF9CD
:10313000100000EE900AF8EEE00A60EE800AC6ED9C
:10314000000ABDF9140000EE900AF8EEE00A20EE45
:10315000800A85ED000ABDF9180000EE100AF8EEAD
:10316000C00A9FED170A80EE801A84ED001ABDF99F
:103170001C0000EE900AF8EEE00A80EE801A88ED5E
:10318000001ABDF9200000EE900AF8EEE00A80EE89
:10319000801A89ED001ABDF924009FED0A1A00EE8D
:1031A000100AF8EEC00A80EE810ADFED070A30EE61
:1031B000200A8AED000A0AB0BDE8F08700008038D6
:1031C000000003430000AA43B81E124238B500F0C5
:1031D0007F008DF800000C4C8DF8011000220121B9
:1031E0002046FDF750FE4FF0FF33022269460748A4
:1031F000FEF76EFA012211462046FDF744FE01203B
:10320000FDF782FC38BD00000008024024040020C5
:103210000D4808B5016841F4800101600068002292
:1032200000F48000009011463A20FDF7A1FE3A20FC
:10323000FDF790FE002211464620FDF799FEBDE8FD
:1032400008404620FDF786BE30380240F0B587B012
:1032500014216846FDF758F93B480024016841F005
:1032600004010160016801F004010591016841F069
:1032700080010160016801F080010591016841F061
:1032800001010160016801F001010591016841F04F
:103290000201016000682D4E00F00200012205903D
:1032A00011463046FDF7EFFD294F00222021384618
:1032B000FDF7E9FD4FF4005000904FF40410CDE904
:1032C000010469463046FDF7EBFC0220CDE90240DF
:1032D00001250095694601953046FDF7E1FC202067
:1032E0000090CDE90154694638460394FDF7D8FCB7
:1032F0004FF4014000904FF44410CDE901056946B8
:103300003846FDF7CDFC6E02009669463846CDE999
:103310000145FDF7C5FC009669460E48CDE901451B
:10332000FDF7BEFC002201211720FDF721FE17202A
:10333000FDF710FE022201212820FDF719FE2820AA
:10334000FDF708FE07B0F0BD30380240000802402B
:1033500000000240000402400F4810B50D49016012
:103360004FF48271416000218160C1604FF40072AE
:103370000161C0E90512C1610162416281620A21F5
:10338000C162FEF7F7F8002803D0BDE81040FDF752
:10339000D5B910BD003800402404002010B586B017
:1033A00000241548009401940294039404944FF06F
:1033B00080410594C0E90014611EC0E90241046126
:1033C0008461FEF78FFB08B1FDF7B8F94FF4805028
:1033D000009069460848FEF73DFC08B1FDF7AEF9DC
:1033E000049404A904480594FEF734FB002801D096
:1033F000FDF7A4F906B010BD7C04002010B58EB016
:1034000000240794089409940A940B941C2168469C
:103410000C94FDF779F822482049C0E9001442F2E3
:10342000CF01C0E9024104618461FEF75BFB08B192
:10343000FDF784F94FF48050079007A91848FEF76C
:1034400009FC08B1FDF77AF91548FEF7B2FD08B19D
:10345000FDF774F90B940BA911480C94FEF7FAFAD6
:1034600008B1FDF76BF96020CDE900040294082251
:1034700069460B480494FEF736FD08B1FDF75EF986
:103480000C2269460648FEF72EFD08B1FDF756F9F5
:103490000348FEF7E7FC0EB010BD0000000400403A
:1034A000C404002010B586B000241848009401948C
:1034B0000294039404941449059401605321C0E9D3
:1034C000011440F2E731C0E9031480218161FEF765
:1034D00009FB08B1FDF732F94FF4805000906946BE
:1034E0000A48FEF7B7FB08B1FDF728F92020CDE91F
:1034F000040404A90548FEF7ADFA002801D0FDF741
:103500001DF906B010BD0000000800400C050020A9
:1035100010B58EB000240794089409940A940B9473
:103520001C2168460C94FCF7EFFF22482049C0E9B3
:10353000001442F2CF01C0E9024104618461FEF748
:10354000D1FA08B1FDF7FAF84FF48050079007A9B7
:103550001848FEF77FFB08B1FDF7F0F81548FEF7B5
:1035600028FD08B1FDF7EAF80B940BA911480C945B
:10357000FEF770FA08B1FDF7E1F86020CDE900042C
:103580000294002269460B480494FEF7ACFC08B193
:10359000FDF7D4F8042269460648FEF7A4FC08B1FA
:1035A000FDF7CCF80348FEF75DFC0EB010BD00003F
:1035B000000C0040540500200C4810B50A49016079
:1035C0004FF461214160002181600C22C160C0E99B
:1035D00004128161C161FFF76DFA002803D0BDE8D4
:1035E0001040FDF7ABB810BD001001409C05002055
:1035F0000C4810B50A4901604FF4E12141600021F7
:1036000081600C22C160C0E904128161C161FFF7D1
:1036100051FA002803D0BDE81040FDF78FB810BD67
:1036200000140140E405002000686FF00101016111
:10363000044801684268491C42F10002016042608E
:103640007047000018010020FEE7FEE770B5044651
:103650002DED108B53EC102B90ED008B51EC180BD3
:1036600001F082FE41EC100B84ED0A0B94ED081B77
:1036700053EC102B51EC110B01F0FCF9C4E90801DB
:10368000F6489FEDF7BB9FEDF8CB9FEDF9DB9FED83
:10369000FAFB9FEDFBEB9FEDFC9B9FEDFDABFE4D21
:1036A00084427CD153EC1B2B51EC180B01F0ECFC49
:1036B0000BD294ED000B53EC1C2B51EC100B01F0D2
:1036C0001DFE02D205F1180025E094ED000B53EC2D
:1036D0001B2B51EC100B01F011FE08D894ED000BE0
:1036E00053EC1D2B51EC100B01F0CEFC11D994EDD5
:1036F000000B53EC1C2B51EC100B01F0C5FC1DD83A
:1037000094ED000B53EC1F2B51EC100B01F0F6FD68
:1037100014D8E148243090ED000A84ED040A90EDBD
:10372000010A84ED050A90ED020A84ED060A9FED78
:10373000DB0A85ED000A9FEDDA0A3BE094ED000B11
:1037400053EC1D2B51EC100B01F0D8FD08D294ED79
:10375000000B53EC1E2B51EC100B01F095FC13D910
:1037600094ED000B53EC1F2B51EC100B01F08CFC73
:1037700022D294ED000B9FEDCB1B51EC100B53ECC0
:10378000112B01F0BBFD17D8C348303090ED000A73
:1037900084ED040A90ED010A84ED050A00E079E069
:1037A00090ED020A84ED060A9FEDC00A85ED000A3D
:1037B0009FEDBF0A85ED010A206901F0BFFE94ED7F
:1037C0000ABB53EC1B2B01F09BFC41EC1C0B60690A
:1037D00001F0B4FE94ED081B53EC112B01F090FCAA
:1037E00094ED0C0B41EC180B53EC102B51EC1B0B14
:1037F00001F0BAFD41EC1D0BA06901F09FFE53ECF6
:103800001D2B01F07DFC41EC1D0B84ED0CBB2868E9
:1038100001F094FE53EC182B01F036FC04D228681A
:1038200001F08CFE41EC180B686801F087FE53EC48
:10383000182B01F063FD04D2686801F07FFE41ECB3
:10384000180B51EC1C0B53EC182B01F013F953EC33
:103850001D2B01F00FF941EC100B53EC192B84EDEB
:10386000020B01F04BFD02D394ED020B05E0B0EE2C
:10387000490AF0EE690A84ED020B53EC1A2B51EC65
:10388000100B01F001FC05D2B0EE4A0AF0EE6A0A14
:1038900084ED020B714840309FED868B9FED87BB16
:1038A0009FED88CB9FED89DB84427DD194ED000BA9
:1038B00053EC182B51EC100B01F0E6FB1DD894EDE6
:1038C000000B53EC1B2B51EC100B01F017FD14D81F
:1038D00071483C3090ED000A84ED040A90ED010A35
:1038E00084ED050A90ED020A84ED060A9FED790A3F
:1038F00085ED020A9FED780A74E094ED000B53EC1D
:10390000182B51EC100B01F0F9FC08D294ED000BD0
:1039100053EC1C2B51EC100B01F0B6FB11D994EDBC
:10392000000B53EC1B2B51EC100B01F0ADFB1DD227
:1039300094ED000B53EC1D2B51EC100B01F0DEFC51
:1039400014D85548483090ED000A84ED040A90EDF3
:10395000010A84ED050A90ED020A84ED060A9FED46
:103960004F0A85ED020A9FED4E0A3BE094ED000BF5
:1039700053EC1C2B51EC100B01F0C0FC08D294ED61
:10398000000B53EC1E2B51EC100B01F07DFB15D9F5
:1039900094ED000B53EC1D2B51EC100B01F074FB5C
:1039A00022D294ED000B00E0C8E09FED3E1B51ECED
:1039B000100B53EC112B01F0A1FC15D836485430F4
:1039C00090ED000A84ED040A90ED010A84ED050AE9
:1039D00090ED020A84ED060A9FED400A85ED020A89
:1039E0009FED3F0A85ED030A206901F0A7FD94EDE4
:1039F0000ABB53EC1B2B01F083FB41EC1D0B6069F0
:103A000001F09CFD94ED081B53EC112B01F078FBA9
:103A100094ED0C0B41EC180B53EC102B51EC1B0BE1
:103A200001F0A2FC41EC1C0BA06901F087FD53ECF6
:103A30001C2B01F065FB41EC1C0B84ED0CBBA86852
:103A400001F07CFD53EC182B01F01EFB04D2A8689A
:103A500001F074FD41EC180BE86843E0500F0020C2
:103A6000333333333333D33F333333333333D3BF4E
:103A7000000000000000E03F000000000000E0BF88
:103A8000000000000000F03F000000000040AF40D8
:103A9000000000000040AFC0300100200080BB44A7
:103AA0000080BBC4000000000000F0BF00803B4568
:103AB00000803BC59A9999999999C93F9A99999982
:103AC0009999C9BFCDCCCCCCCCCCDC3FCDCCCCCC27
:103AD000CCCCDCBF00009643000096C300C05A4522
:103AE00000C05AC501F02AFD53EC182B01F006FC6A
:103AF00004D2E86801F022FD41EC180B51EC1D0BDB
:103B000053EC182B00F0B6FF53EC1C2B00F0B2FF67
:103B100041EC100B53EC192B84ED020B01F0EEFB82
:103B200001D284ED029B94ED020B53EC1A2B51EC65
:103B3000100B01F0A9FA01D284ED02AB4E489FEDC3
:103B40004FCB9FED50DB84427ED194ED000B9FED77
:103B50004F1B51EC100B53EC112B01F095FA1FD8B1
:103B600094ED000B9FED4B1B51EC100B53EC112B04
:103B700001F0C4FB14D8494890ED000A84ED040A12
:103B800090ED010A84ED050A90ED020A84ED060A23
:103B90009FED430A85ED040A9FED420A85ED050A73
:103BA000206901F0CBFC94ED0A9B53EC192B01F03A
:103BB000A7FA41EC1B0B606901F0C0FC94ED081BF7
:103BC00053EC112B01F09CFA94ED0C0B41EC180B0B
:103BD00053EC102B51EC190B01F0C6FB41EC1A0B06
:103BE000A06901F0ABFC53EC1A2B01F089FA41EC0F
:103BF0001A0B84ED0C9B286901F0A0FC53EC182BE8
:103C000001F042FA04D2286901F098FC41EC180B4B
:103C1000686901F093FC53EC182B01F06FFB04D2A0
:103C2000686901F08BFC41EC180B51EC1B0B53EC59
:103C3000182B00F01FFF53EC1A2B00F01BFF41EC78
:103C4000100B84ED020B00E011E053EC1C2B01F093
:103C500055FB01D284ED02CB94ED020B53EC1D2BEE
:103C600051EC100B01F010FA01D284ED02DB94ED5F
:103C7000020BBDEC108B70BDD00F0020666666662F
:103C80006666E63F666666666666E6BF000000003A
:103C900000C062400000000000C062C0900100202F
:103CA000CDCC4C3ECDCC4CBE70B5044620482DED5D
:103CB000028BA0F110059FED1F8A84420AD128686B
:103CC00001F03CFCC4E9000184ED048A84ED058A1E
:103CD00084ED068A1648403084420AD1686801F0B3
:103CE0002DFCC4E9000184ED048A84ED058A84ED8D
:103CF000068A0F48803084420AD1A86801F01EFC71
:103D0000C4E9000184ED048A84ED058A84ED068A05
:103D10009FED090B84ED020B84ED080B84ED0A0B7B
:103D200084ED0C0B84ED0E0BBDEC028B70BD00001E
:103D3000500F002000000000000000000000000004
:103D4000704700002DE9FE43354800684068354F54
:103D500085B2B888A84201D3401B02E0C5F14001FA
:103D600008440604360C58D00024DFF8BC80A14675
:103D70004CE020442D4900F03F00085C797821B1E7
:103D8000012908D002293FD10DE0FF283CD188F855
:103D90000000012004E0222832D188F8010002202E
:103DA000B870787030E0B9780C2906D208F80100B4
:103DB000491CC8B2B8700C2826D398F80A1040469F
:103DC00022291DD1C17AEE291AD1016800914168DA
:103DD0000191D8F808000290DDF802007863DDF860
:103DE0000610396301F0AAFB41EC100B1048FCF7F8
:103DF00034FC386B01F0A2FB0A4A8032C2E90C01A4
:103E000087F8019087F80290641CA4B2B879B44294
:103E1000AFD3304400F03F00F880BD80BDE8FE83A2
:103E20008C060020000000209C010020E4030020FC
:103E3000D00F0020014890ED060B7047D000002005
:103E4000014890ED080B7047D0000020F8B51546EA
:103E50000E460B46009204460122022100F02CF887
:103E6000A0B9134813490068B0FBF1F04FF47A7120
:103E7000484300906068B0F5827F0DD13346002240
:103E800080212046009500F017F870B1606D40F079
:103E9000200060650320F8BD009830B1401E0090FE
:103EA00020688068C0430006F6D50020F8BD0000F9
:103EB000CC00002000366E012DE9F8431E469146E5
:103EC00088460446089DFCF7E3FF401B351AFCF7C3
:103ED000DFFF074626480068C0F3CB3068430AE09E
:103EE000701C09D0FCF7D4FFC01BA8420FD275B1DB
:103EF0000098B8B3401E00902068816838EA01003D
:103F000033D000214945EBD10020BDE8F88320687B
:103F1000416821F0E00141606068B0F5827F0BD11B
:103F2000A068B0F5004F02D0B0F5806F04D12068D2
:103F3000016821F040010160A06AB0F5005F09D17D
:103F40002068016821F4005101602068016841F493
:103F500000510160012084F85100002084F85000D5
:103F60000320D2E7FFE70025C6E70121CAE70000EA
:103F7000CC00002070470000024A1060101D016054
:103F800070470000340C0040024A1060101D0160B0
:103F9000704700003C040040FCF780BF30B593B090
:103FA00034216846FCF7B0FA14210DA8FCF7ACFAEE
:103FB0001E480025016841F080510160006800F052
:103FC000805012901A48016821F4404141F4804128
:103FD00001600068022400F4404012900120039028
:103FE0001020009406940490CDE907504FF4A87077
:103FF00009900420CDE90A0468460C94FDF7EEF818
:1040000008B172B6FEE70DA90F2081E831004FF428
:104010008050CDE9100502210DA8FCF7DBFF002838
:1040200001D072B6FEE713B030BD00004038024048
:10403000007000400248016841F47001016070475F
:1040400088ED00E00148FFF7EFBA00007C04002093
:104050000148FDF76EBE00000C050020F0B50268B7
:10406000274B284D284E294F294C4FF0804C984221
:1040700009D0604507D0A84205D0B04203D0B8426D
:1040800001D0A04204D122F0700E4A6842EA0E022A
:1040900098421BD0604519D0A84217D0B04215D025
:1040A000B84213D0A04211D01A4DA8420ED01A4DDA
:1040B000A8420BD0194DA84208D0194DA84205D0EE
:1040C000184DA84202D0184DA84203D122F44075E1
:1040D000CA682A434D6922F080022A438D68C5626E
:1040E0000D688562984201D0A04201D1096901633F
:1040F000016841F004010160012141610260F0BDED
:10410000000001400004004000080040000C004096
:1041100000040140004001400044014000480140CB
:1041200000180040001C00400020004010B501F0C5
:104130001F030121046A99408C430462016A9A407A
:104140001143016210BD10B5846842EA032224F4D1
:104150007F440A432243826010BD826822F07002CD
:104160000A4342F00701816070470000F0B5036A1E
:10417000026A22F00102026242688469124E24F04F
:1041800073050C682C4323F002058B682B430D4DFF
:10419000A84201D0B04205D123F00807CB683B43C9
:1041A00023F00403A84201D0B04205D14D6922F4A6
:1041B000407215438A692A434260846149684163B9
:1041C0000362F0BD0000014000040140F0B5026A46
:1041D000036A23F010030362436884690D6824F4C2
:1041E000E64444EA05248D6822F0200242EA0512E2
:1041F0000F4D104EA84201D0B04206D1CF6822F038
:10420000800242EA071222F04002A84201D0B042E6
:1042100007D14D6923F4406343EA85038D6943EA7E
:10422000850343608461496881630262F0BD0000D8
:104230000000014000040140F0B5026A036A23F463
:10424000807303624368C46922F4007224F073052A
:104250000C68124E2C438D6842EA05220E4DA8428E
:1042600001D0B04206D1CF6822F4006242EA0722B0
:1042700022F48062A84201D0B04207D14D6923F4F4
:10428000405343EA05138D6943EA05134360C46153
:104290004968C1630262F0BD0000014000040140B2
:1042A00030B5046A026A22F4805202624268C3692D
:1042B0000D6823F4E64343EA05238D6824F4005493
:1042C00044EA0534084DA84202D0084DA84204D162
:1042D0004D6922F4804242EA85124260C361496816
:1042E0000164046230BD0000000001400004014090
:1042F00010B5036A046A24F001040462846924F09E
:10430000F00444EA021423F00A020A4384610262C0
:1043100010BD10B5036A046A24F0100404628469B5
:1043200023F0A00324F4704444EA023243EA01116A
:104330008261016210BD10B5806B0021C185FEF75E
:1043400067FA10BD70B5846B2068406994F841101D
:10435000C0F3C0100025212904D118B1E5842046FE
:1043600000F0B4F82068406994F84210C0F380105F
:10437000222904D118B1E585204600F080F8606C50
:1043800040F0100060642046FEF742FA70BD10B5A0
:104390000146806B096809684FF00002C9052ED4F8
:1043A000C28501680C3151E8003F23F4807341E875
:1043B0000034002CF5D10168143151E8003F23F09E
:1043C000010341E80034002CF5D10168143151E8B3
:1043D000003F23F0400341E80034002CF5D12021B8
:1043E00080F84210016B012909D101680C3151E8B4
:1043F000003F23F0100341E80034002CF5D1426364
:10440000016B012902D0FEF753FC10BD818DFEF730
:10441000FEF910BD10B5806B01214163016B0129CC
:1044200002D0FEF799FC10BD818D4908FEF7EFF927
:1044300010BD10B50146806B09680968C90516D41E
:104440000021C1840168143151E8002F22F080025C
:1044500041E80023002BF5D101680C3151E8002F11
:1044600042F0400241E80023002BF5D110BDFEF7D9
:1044700007FD10BD10B5806BFEF70EFD10BD016885
:104480000C3151E8002F22F4907241E80023002BF8
:10449000F5D10168143151E8002F22F0010241E802
:1044A0000023002BF5D1016B012909D101680C31E2
:1044B00051E8002F22F0100241E80023002BF5D133
:1044C000202180F8421000210163704701680C31FF
:1044D00051E8002F22F0C00241E80023002BF5D163
:1044E000202180F84110704708B590F84210222929
:1044F00001D0022008BD82684FF480539A4201D156
:10450000016921B1816A9A421BD04AB10AE002686E
:10451000816A5268C2F308020A80816A891C08E035
:10452000026972B10268526802F07F020A70816A01
:10453000491C8162C18D491E0904090CC18503D043
:104540001BE002685268F1E70168CA6822F02002A5
:10455000CA600168CA6822F48072CA6001684A6948
:1045600022F001024A61202180F8421000214163BB
:10457000026B012A03D0FEF79BFB002008BD0163FC
:1045800001680C3151E8002F22F0100241E80023AD
:10459000002BF5D101680A68D20602D50A6849687D
:1045A0000091818DFEF733F9E7E7000070B504460E
:1045B00000680169E26821F44051114301612169F9
:1045C000A068E26908436169114308432168CA6829
:1045D00049F20C639A430243CA6020684169A269A8
:1045E00021F440711143416131492068884202D071
:1045F0003049884202D1FCF797FD01E0FCF784FDC9
:10460000E2690023192164253226B2F5004F626861
:1046100028D0A0FB0101930F9200FBF763FE014637
:10462000B0FBF5F06FF01802504301EB800006EB91
:104630000010B0FBF5F000F0F002B1FBF5F002EB7A
:104640000012B1FBF5F06FF01803584301EB800046
:1046500006EB0010B0FBF5F000F00F0021681044ED
:10466000886070BDA0FB010192185B41FBF73AFE28
:104670000146B0FBF5F00201B1FBF5F06FF0180355
:10468000584301EB800006EBC000B0FBF5F000F0F2
:10469000F80002EB4002B1FBF5F0584301EB80005B
:1046A00006EBC000B0FBF5F000F00700D6E7000015
:1046B000001001400014014038B581620446828533
:1046C000002013466064222284F84220E56B1F4AD2
:1046D000EA63E56B1E4A2A64E56B1E4AEA64E26BF4
:1046E00010650A462168E06B091DFCF7D5F930B169
:1046F00010206064202084F84200012038BD20682A
:10470000016840680090206948B120680C3050E88A
:10471000001F41F4807140E80012002AF5D12068A2
:10472000143050E8001F41F0010140E80012002A57
:10473000F5D12068143050E8001F41F0400140E8F6
:104740000012002AF5D1002038BD00008F43000878
:10475000154400084543000881628285C285002116
:104760004164222180F84210016921B10168CA68C0
:1047700042F48072CA6001684A6942F001024A61EB
:104780000068C16841F02001C160002070472DE938
:10479000F843984617460D460446089E24E0701CD0
:1047A00022D0FCF775FBA0EB0800B0421AD8CEB1BE
:1047B0002068C168490717D5802D15D0402D13D02A
:1047C0000168C94309070FD40168002540680090BB
:1047D0002046FFF754FE0820606484F84050012012
:1047E000BDE8F8830320FBE72068006835EA000095
:1047F00004D00020B842D2D00020F1E70120F9E730
:104800000148FEF717B800009C0500200148FEF79C
:1048100011B80000E4050020FEE700001B481C4A18
:10482000D0ED021A40EE011A9FED1A0A11EE901A0D
:10483000C0ED021A914202DCB0EE611A03E031EEE3
:10484000C01A80ED021AB5EEC01AF1EE10FA03D2CA
:1048500031EE001A80ED021A31EE601A0E4AB0EE07
:10486000C11A11EE101A914202DDD0ED020A01E0E8
:10487000C0ED020A10EE901A084A1144084A91420B
:1048800003D230EEC00A80ED020A70472C0F0020E0
:104890000000B4430000B4430AD7233CFFFFCBBC65
:1048A000FFFF7F000907090E002804DB00F1E0206C
:1048B00080F80014704700F00F0000F1E02080F84D
:1048C000141D70472DED020B019820F0004001905F
:1048D0009DED000B02B07047FCF7E8FAFFF75EFBB6
:1048E000FEF7B4FCFEF794FCFEF766FEFEF756FDFD
:1048F000FEF784FDFEF70CFEFEF7D4FDFEF778FE12
:10490000FEF72AFD2448FDF765F9FEF773FB4FF427
:10491000FA70FCF7F9F8FBF75BFE00211F48FDF782
:1049200077FB04211D48FDF773FB08211C48FDF7A8
:104930006FFB0C211A48FDF76BFB1A48FFF7B4F91F
:104940001948FFF7B1F91948FFF7AEF94FF677703C
:1049500000F059F8164C2080FA2000F054F8E08757
:104960009FED140A00F049F810EE100A206447F297
:10497000EE7000F048F8A4F83A02402204F50F71F6
:104980000D48FEF779F90D48006840680C498880A9
:104990000C48FDF71FF9FEE77C04002054050020B9
:1049A000C4040020500F0020900F0020D00F0020E2
:1049B000A8010020EC51B83F9C0500208C06002087
:1049C000000000200C0500202DED020B86B002AA8D
:1049D000DDE90601CDE9000100206946C0F10703C9
:1049E000CB5C1354401C0828F8DBDDE90201CDE95B
:1049F00004019DED040B08B0704710EE100A00BAD8
:104A000000EE100A7047010241EA102080B27047A0
:104A100021F00042A2F16052B2F5801F01F0004384
:104A200028BFD2F17F6C0BD95FEA001C43EAC202B7
:104A300042EB507018BF704728BF20F0010070474C
:104A4000B2F5801FBCBF184670474FEA410C1CF5F9
:104A5000001F02D2084600F0E7BD70B500F0FAFB77
:104A600000000089FFF7F6BF4FF00040A0F580007E
:104A70007047000010B591EA030F48BF83F0004370
:104A800000F17A84841A71EB030C05D2121943EBFE
:104A90000C03001B61EB0C01DFF824E14FEA115419
:104AA000A4EB135C1EEA430F18BF9EEA445F73D069
:104AB00023EA0E03DCF1200E21EA045143F48013B3
:104AC00032D322FA0CFE10EB0E0023FA0CFE41EB5F
:104AD0000E01CCF1200E03FA0EFE10EB0E0051F188
:104AE0000001B1F5801FCCF1200E32D201EB045150
:104AF00012FA0EF2BDE8104058BF7047401C38BF94
:104B00005FEA420218BF7047002814BF20F001007E
:104B100041F100014FEA410313F5001F38BF704710
:104B2000A1F1C04100F0E4BB012A43EB0302ACF168
:104B3000200CDCF11F0E32BF4FF0000E23FA0CF3F5
:104B400010EB030041EB0451B4EB115FD0D0A1EBAB
:104B5000045101F5801149085FEA300001EB04516E
:104B60000ED350F1000038BF12FA0EFE08D1BDE896
:104B70001040C9E7401C38BF5FEA4202CAD1C3E710
:104B8000BDE810404FEA410313F5001F38BF7047DE
:104B9000A1F1C04100F0ACBB9EEA445F08D011EA2D
:104BA0005E0FBDE8104004BF01F0004100207047D7
:104BB000BDE8104070B500F04DFB00BF64FBBE3E89
:104BC0000000E0FF491058BFC1F140415B1058BFE1
:104BD000C3F140438B42EFF3008070472DE9C041A1
:104BE00030B4DFF8A0C23CEA111418BF3CEA131439
:104BF00000F0EC8081EA03051CEA111444EAD57444
:104C000018BF1CEA131500F0C780A4EB05044FF091
:104C1000004545EAC12145EAC32341EA505143EA30
:104C2000525304F17F74994204F500344FEAC020D6
:104C30004FEAC22208BF904200F09C804FEA136501
:104C40000FF24016765D4FEA134506FB05F7C7F1F4
:104C5000807706FB07F74FEAD737A7FB0368764252
:104C6000C8F58038A7FB06CE38BFA8F1010807FBBE
:104C700008E64FF0000EA6FB028CE6FB03CEDCF14B
:104C8000000CCEF1004E38BFAEF1010EA6FB0C5861
:104C90004FF000074FF00005E6FB0E87A1FB08C6AA
:104CA000A0FB07CE16EB0E0645F10005E1FB0765FC
:104CB00015F1E04E7EBFA4F580345FEA46066D41F3
:104CC00016F1800745F100054FEA17274FEA0666FF
:104CD00047EA0567A6F1DE46B6F1805F4FEA152583
:104CE0001FD9384624F0010C05EBC471BCF1FE6FEE
:104CF00001EB0C1102D8F0BCBDE8008124425CBF7E
:104D000001F5801E9EEAC47F02D4F0BCBDE800819C
:104D1000244238D4F0BCA1F1C041BDE8004100F00C
:104D2000E7BA4FEAD22242EA43524FEAD323A7FB23
:104D300002864FEAD02040EA415007FB03661EEA94
:104D40000E0F4FEAD12105FB026658BFA6EB0056B5
:104D5000B6EB00564FEA520E4EEAC37E18EB0E0E2B
:104D600056EB530EBDD518EB02085E417F1C55F182
:104D70000005B6E74FF480154FF000074FF000062E
:104D80004FF00008ADE7F0BC4FF0000001F1C0416A
:104D900001F00041BDE8008111EA0C1F0CEA131577
:104DA00000D00CE013EA0C1F00F025804FF000004B
:104DB000F0BC81EA030101F00041BDE80081F0BCD4
:104DC000BDE8004181EA030100F092BAF0BCBDE801
:104DD000004170B500F03EFA097EFC3E00F007B8D5
:104DE00081EA03014FF0000001F00041704781EAC1
:104DF000030100F07DBAF0BCBDE800414FF00000B7
:104E000021497047FFFDFBF9F7F5F4F2F0EEEDEB09
:104E1000E9E8E6E4E3E1E0DEDDDBDAD8D7D5D4D3B8
:104E2000D1D0CFCDCCCBCAC8C7C6C5C4C2C1C0BF04
:104E3000BEBDBCBBBAB9B8B7B6B5B4B3B2B1B0AF0A
:104E4000AEADACABAAA9A8A8A7A6A5A4A3A3A2A1EE
:104E5000A09F9F9E9D9C9C9B9A99999897979695A9
:104E600095949393929191908F8F8E8E8D8C8C8B45
:104E70008B8A8989888887878685858484838382CD
:104E8000828181800000FF070000F87F51EA030C57
:104E900017D41CF5801F58BFBCF5801F00F1068099
:104EA000994218BF704708BF9042704707D711F565
:104EB000801F58BF13F5801F19D49942704789424B
:104EC00070471CF5801F08D5BCF5801FF7D58B42B5
:104ED00018BF704708BF824270474FF4001C1CEB9C
:104EE000410F38BF1CEB430F01D28B42704770B5A6
:104EF00000F0B0F9922449004FF000514FF0805378
:104F0000FFF760BE4FEA41034FEA5353A3F58063B6
:104F1000D3F11E03C8BFD3F1210C0CDD4FF00042CA
:104F200042EAC12242EA505232FA03FC8CEAE17CA6
:104F3000ACEBE1707047102BC4BF0020704703F545
:104F4000787CBCF1FF3F04D06FF0004282EA210080
:104F5000704770B500F07EF94992248000207047B8
:104F6000F2E700004FEA1153A3F58063D3F11E036B
:104F7000A8BFD3F1200C08DB4FF0004242EAC12267
:104F800052EA505232FA03F0704709420BD4102B08
:104F9000C4BF0020704703F5787CBCF1FF3F05D00B
:104FA0004FF0FF3070474FF00000704770B500F0D1
:104FB00051F900BF4992248000207047F0E70000BB
:104FC0007FEAE17202D1101A62EB0101B1FA81F3BA
:104FD0000B3B24D3994012D1B0FA80F310FA03F1BD
:104FE00008BF7047C3F11D0303F5406303EBC22301
:104FF0004FEAD1224FEA415002EB03517047C3F10F
:10500000200C20FA0CFC9840C3F1320303F54063F6
:1050100003EBC22341EA0C0101EB0351704710B5C9
:10502000C3F1320CC3F10004C4F1200E0CF5406C46
:105030000CEBC22201FA0EFC21FA04F100FA0EF385
:10504000E040BDE8104040EA0C0001EB025138BFDF
:105050007047401C41F100015B0008BF20F00100D7
:105060007047B0FA80F310FA03F10AD0C3F11D03C0
:1050700003F580634FEA41504FEA035202EBD1211E
:1050800070474FF00000704751EA030C17D41CF52D
:10509000801F58BFBCF5801F00F10680994218BFE1
:1050A000704708BF9042704707D711F5801F58BF5F
:1050B00013F5801F19D499427047894270471CF537
:1050C000801F08D5BCF5801FF7D58B4218BF7047ED
:1050D00008BF824270474FF4001C1CEB410F38BFE1
:1050E0001CEB430F01D28B42704770B500F0B2F851
:1050F000922449004FF000514FF08053FFF762BDFA
:10510000DFF848C170B51CEA111E1EBF1CEA13155A
:105110009EEA0C0F95EA0C0F00F06F8081EA030401
:1051200023EA4C134EEAD47E21EA4C1141F480115B
:1051300043F48013AE44A1FB024CA0FB0365AEF127
:105140007F7E361955EB0C05A1FB034C4CF1000397
:10515000A0FB021C16EB0C06654153F1000309424B
:1051600018BF46F0010613F4007F0BD14FEA03315C
:105170004FEA0530340341EA155140EA16506FF00A
:1051800003020AE04FEAC3214FEAC520F40241EAD4
:10519000555140EA56506FF0020202EB2E4201EBED
:1051A000025585EACE710AD05FEA440C18BF24F09C
:1051B000004450F1000041F1000120EAD47040F2B7
:1051C000FE7C624500D270BDA84214BF4FF08044FF
:1051D0004FF04044002E08BF0024BEF1806FA8BFEE
:1051E000A1F1C041BDE8704080F282804FF0000024
:1051F00001F1C04101F0004170479EEA0C0F0CEA3A
:10520000131518BF95EA0C0F06D04FF0000081EA85
:10521000030E0EF0004170BD00F01CF88900013E45
:1052200000F007B800F009B84FEA430C5FEA5C5C95
:1052300008D081EA030100F05BB84FEA410C5FEA55
:105240005C5CF6D14FF00000014970470000FF0799
:105250000000F87F0EF1020E2EF0030E5EF8046BD4
:10526000364205D4012A43EB030515F5001F12D879
:10527000012841EB010C1CF5001F0CD80ED14FEAA0
:10528000D17C15F5001F0CEB4C0C0CF1020C08BF87
:105290004CEBD37C04E04FF0080C01E04FEAD37CE8
:1052A0000CEB4C0526FA05F606F00706B6F1040CE1
:1052B00006D20EEB860CBDE870404CF0010C604746
:1052C000DFE80CF0090B02024FF000414FF0000044
:1052D000A1F5002170BD19461046012851EB0104CB
:1052E00018BFD4F5001484BF002001F0004170BD48
:1052F0000808A0F500114FEA3101704753EA010C8C
:1053000017D41CF5801F58BFBCF5801F00F1068024
:105310008B4218BF704708BF8242704707D713F50A
:10532000801F58BF11F5801F19D48B4270479B42D4
:1053300070471CF5801F08D5BCF5801FF7D5994232
:1053400018BF704708BF904270474FF4001C1CEB19
:10535000430F38BF1CEB410F01D2994270470FB485
:105360000CBC03BCFFF7C1BE10B591EA030F48BFE8
:1053700083F000433FF586AB841A71EB030C07D230
:1053800012198CF0004C43EB0C03001B61EB0C0179
:10539000DFF8A4E14FEA1154A4EB135C1EEA430FBB
:1053A00018BF9EEA445F00F0B08023EA6E035242C9
:1053B00021EA0451C3EB6E0338BF5B1EDCF1200E03
:1053C00025D322FA0CFE10EB0E0043FA0CFE41EB43
:1053D0000E01CCF1200E03FA0EFE10EB0E0051F17F
:1053E0000001CCF1200E29D412FA0EF201EB045187
:1053F000BDE8104058BF7047401C1CBFB2F1004FC1
:10540000704700280CBF491C20F00100704712EBC8
:10541000020E43EB030218BF4FF0010E4EEA4202A8
:10542000ACF1200CDCF11E0E54D943FA0CFE10EB4B
:105430000E0051F1FF31CCF11E0ED5D50EF1010E4B
:1054400012FA0EFE404141EB010101EB445C5FEAC0
:105450005C5C10D910EBDE7001EB045138BFBEF17B
:10546000004FBDE8104018BF704700280CBF491C12
:1054700020F00100704730D24FEAD42C11F5001112
:1054800024F400641BD0B1FA81F20B3AA41AA41ED2
:10549000D2F12003914030FA03F31943904001EB1D
:1054A000CC71002C01EB0451BDE81040A8BF70473F
:1054B00001F1C0414FF0000001F000417047B0FA27
:1054C00080F310FA03F100D110BDE41A173C48052F
:1054D000C90AE4E701EB045110BD491001EB045186
:1054E000BDE810404FEA300002E04FF00001704785
:1054F0004A0008BF0042F8D0B2F5001F28BF70472D
:1055000001F000414FF0000070479EEA445F07D071
:1055100011EA5E0FBDE8104004BF00210020704773
:10552000BDE8104070B5FFF795FE00BF40DFF63EC6
:1055300083F00041104670470000E0FF43004FEA4F
:10554000D30C4FEA3C0C43401FBF40070CF16051A5
:1055500013F0FE4F70471CF0006F03D100200CF0D9
:10556000004170470CF0004343EA507010B540EA28
:10557000CC0000F00EF800BF000000924FEA0001DE
:10558000FFF7B6BE4FF000414FF00000A1F500213B
:1055900070470EF1020E2EF0030E5EF8044B24420B
:1055A00004D44FEA4102B2F17F4F11D84FEA4003D1
:1055B000B3F17F4F0CD80ED14FEAD07CB2F17F4FC0
:1055C0000CEB4C0C0CF1020C08BF4CEBD17C04E052
:1055D0004FF0080C01E04FEAD17C0CEB4C0324FAAD
:1055E00003F404F00704B4F1040C06D20EEB840CAF
:1055F000BDE810404CF0010C6047DFE80CF00708F4
:1056000002024FF00040A0F5800010BD08464200A5
:1056100018BFD2F1807288BF00F0004010BD4FF07B
:105620004070E1EE100A7047FF2141EAD050C005FA
:10563000704700061016000610160000000000005B
:10564000000001020304060708090000000001022F
:105650000304000074560008000000209C010000B4
:1056600000020008C45600089C010020D414000069
:105670005C02000822011903011A4BA00F040198D3
:1056800029BD8210037A24F424803B46237A4413F4
:10569000FA4514606A463C409C450C1B80BB181AB6
:1056A000FA189924291C14401C464BA00C1C793C68
:1056B000000F007A446F1283BA82A8FBB8ACC527EA
:0456C000B70000002F
:04000005080001C529
:00000001FF
