:020000040800F2
:1000000038120020850200081B500008B53A00088D
:1000100019500008F51700081557000800000000E7
:100020000000000000000000000000004550000833
:10003000FD170008000000001D500008695000086E
:100040009F0200089F0200089F0200089F0200080C
:100050009F0200089F0200089F0200089F020008FC
:100060009F0200089F0200089F0200089F020008EC
:100070009F0200089F0200089F0200089F020008DC
:100080009F0200089F0200089F0200089F020008CC
:100090009F0200089F0200089F0200089F020008BC
:1000A0009F0200089F0200089F0200089F020008AC
:1000B0009F0200089F02000815510008C53A000879
:1000C000B93A00089F0200089F0200089F0200083A
:1000D0009F020008CD5600089F0200089F020008FA
:1000E0009F0200089F0200089F0200089F0200086C
:1000F0009F0200089F0200089F0200089F0200085C
:100100009F0200089F0200089F0200089F0200084B
:100110009F0200089F0200089F0200089F0200083B
:100120009F0200089F0200089F0200089F0200082B
:100130009F02000800000000000000009F0200086D
:100140009F0200089F0200089F0200089F0200080B
:100150009F0200089F0200089F020008D95600086D
:100160009F0200089F0200089F0200089F020008EB
:100170009F0200089F0200089F0200080000000084
:10018000000000009F0200080000000000000000C6
:100190009F02000800000000000000009F0200080D
:1001A0000000000000000000000000009F020008A6
:1001B0009F0200089F0200089F0200089F0200089B
:1001C0009F02000800F002F800F04CF80AA090E846
:1001D000000C82448344AAF10107DA4501D100F002
:1001E00041F8AFF2090EBAE80F0013F0010F18BF83
:1001F000FB1A43F001031847E86800000869000093
:10020000103A24BF78C878C1FAD8520724BF30C842
:1002100030C144BF04680C60704700000023002414
:1002200000250026103A28BF78C1FBD8520728BF06
:1002300030C148BF0B607047662906F0F08364291F
:1002400000F0F480002070471FB506F0DEFB00F0E0
:100250009FFC04000020002105F022FFE0601FBD8C
:1002600010B510BD00F098FD1146FFF7EDFF05F049
:100270009BFC00F0B6FD03B4FFF7F2FF03BC00F0F7
:10028000F9FD00000948804709480047FEE7FEE7FE
:10029000FEE7FEE7FEE7FEE7FEE7FEE7FEE7FEE736
:1002A00004480549054A064B7047000005510008FF
:1002B000C5010008380C002038120020380E00203C
:1002C000380E002053EA020C00F069802DE9F04B53
:1002D0004FF00006002B1FBFB3FA83F503FA05F4B5
:1002E00024FA05F65E4012BF1643B2FA82F502FA0E
:1002F00005F4C5F120051EBF22FA05FC44EA0C04F2
:10030000203556EA044C4FEA144418BF641C4FF0E1
:1003100000084FF00009904271EB030C39D300291B
:1003200019BFB1FA81F701FA07F6B0FA80F700FABF
:1003300007F6C7F120071EBF20FA07FC46EA0C06A5
:100340002037B6FBF4FCA7EB0507103F07F01F0BA7
:10035000CBF120060CFA0BFB2CFA06F644BFB34691
:100360000026202FA4BF5E464FF0000B5BEA060C70
:1003700008BF4FF0010B19EB0B09ABFB027C48EBFC
:100380000608C01B06FB02CC0BFB03CC71EB0C0177
:10039000C1E70B46024641464846BDE8F08B13B51F
:1003A0004FF000004FF00001AFF30080BDE81C40AB
:1003B000704700000FB41CB5074B06AA7B44694682
:1003C0000090059800F0CBFB0020694600F0DAFBB6
:1003D0001CBC5DF814FB0000C507000070B50446A6
:1003E00085690068C10601D5302600E02026C007D7
:1003F00007D070BDD4E9012130469047206A401CE7
:1004000020626D1EF6D570BD70B504468569007812
:10041000C00707D170BDD4E9012120209047206A90
:10042000401C20626D1EF6D570BD00002DE9F04124
:100430000646002410687529314616A510D0AFF382
:100440000080002802DA404213A507E031688A07DD
:1004500001D512A502E0490704D511A5012401E048
:10046000AFF3008000210A2206F1240709E0B0FB67
:10047000F2FCB0FBF2F302FB1C003030785418465B
:10048000491C0028F3D123462A463046BDE8F041F6
:1004900000F0F8B8000000002D0000002B00000064
:1004A000200000002DE9F05F894604464FF0000A65
:1004B000DFF824B1FB44C0F820A02046E16888475B
:1004C00000287DD0252806D0D4E901219047206A54
:1004D000401C2062F1E700255F462046E16888471E
:1004E0002028064607DB312E05D2B81910F8200C5B
:1004F00008B10543F1E7A80701D525F00405C4F8C4
:100500001CA00027C4F818A02A2E09D0304605F0F8
:10051000BBFA38B304EB8708303EC8F8186019E01E
:1005200059F8041B204604EB87029161E168884773
:10053000012F064618D1E069002820DA25F02005B1
:100540001DE0D8F8180000EB800006EB40003038C2
:10055000C8F818002046E1688847064605F094FA76
:100560000028EED1012F0AD02E2E08D12046E168B6
:1005700088477F1C0646022F45F02005C4DBA06992
:10058000002803DA404245F00105A061E80701D0E8
:1005900025F01005A6B1A6F14100192802D8203691
:1005A00045F400654A463146204625604D46FFF732
:1005B00043FE60B1012807D0ED1D25F0070000E0E3
:1005C00007E000F1080978E705F1040975E730460E
:1005D0007AE7206ABDE8F09F8265000010B5431CF1
:1005E00002E010F8011B71B18107FAD14FF001321E
:1005F00002C88C1A8C4314EAC211F9D0C01A0A0638
:1006000003D0C01E10BDC01A10BD0A0401D0801E48
:1006100010BD0902FCD0401E10BD4FF0000200B515
:10062000134694469646203922BFA0E80C50A0E815
:100630000C50B1F12001BFF4F7AF090728BFA0E8C3
:100640000C5048BF0CC05DF804EB890028BF40F88F
:10065000042B08BF704748BF20F8022B11F0804FD1
:1006600018BF00F8012B704770477047704710B5EE
:1006700000F092FA006810BD10B5044600F08CFA44
:10068000046010BD2DE9F0470D4699469246044698
:1006900000F124080168880604D5E06921F0100102
:1006A000216000E00120A84201DD471B00E0002797
:1006B000A1697A1902EB0900081AA0612078C00626
:1006C00002D42046FFF78AFE002608E0D4E9012183
:1006D0001AF806009047206A401C761C20624E459E
:1006E000F4DB2078C0060AD52046FFF777FE06E047
:1006F000D4E9012130209047206A401C2062381E36
:10070000A7F10107F4DC07E0D4E9012118F805009E
:100710009047206A401C2062281EA5F10105F3DCE9
:100720002046FFF771FE2078000602D50220BDE8C2
:10073000F0870120FBE770472DE9FF4F0C461E466E
:100740004FF0FF378BB0D2E90001DDF860800A90EE
:100750008A46C1F30A5505B93D46002108464FF0C7
:100760000000BAF1000F00F4400005DA00EB800051
:100770004FF4400101EA50004FEA9059B9F1010FDE
:1007800000DDB9460A9850EA4A000ED044F61050EF
:10079000A5F2FF3545432F14B8F1000F1ED0754266
:1007A000291E1EDDC9F100021CE0B8F1010F4FF057
:1007B000000001D0302103E0F24305E02154401C49
:1007C000B042FBDB30460022002121540B99C1F8D6
:1007D0000880C1E900200FB0BDE8F08FBD1B6D1C83
:1007E000DEE74A4600DA694206A800F05FFA06AB87
:1007F00093E8070003AB83E8070050460A9900F02E
:1008000040FB8DE80700A0F500501F3800900398CA
:10081000002D0ADD42F21F014A460844002303A9C5
:100820000390684600F0A9FD09E0A0F500504A4693
:100830001F38002303A90390684600F0B3FD8DE83C
:1008400007000004000C03D04FF0FF30410800E027
:100850001046B8F1000F03D00022009215461EE0AA
:10086000751E05D400F09CF9303262556D1EF9D525
:10087000B3460122084302D000227F1C04E0207806
:10088000302801D100227F1E002A099784D01DE064
:10089000112D07DA00F084F9303262556D1C50EAF0
:1008A0000102F5D1084302D00098C8B10EE0002142
:1008B000681E05E0235C625C63542254401E491CA0
:1008C0008142F7DBAB46A81B401E0990002004F8CC
:1008D0000B000B98099AC0F80880C0E9002B7AE752
:1008E00011264FF0000857E72DE9F04F88460446DF
:1008F000D21D22F0070191B0D1E90001CDE90A0132
:1009000004F009FF02460B98C00F01D02D2007E02C
:100910002068810701D52B2002E0202101EAC000D8
:10092000032A099001D0072A05DB034641462046E9
:1009300000F07CF90BE12078800601D5E06900E049
:100940000620B8F1650F814606D0B8F1660F18D0C1
:10095000B8F1670F70D131E00020B9F1110F0090AC
:1009600001DB112301E009F101030AAA01A90CA886
:10097000FFF7E2FEDDE90C70002609F10105834670
:1009800047E001204B4600904FF000470AAA01A91A
:100990000CA8FFF7D1FEDDE90DB00C995D460026ED
:1009A00010B909F101000D18B9EB050003D4C0F12D
:1009B000FF3609F10105A5EB09002BE0B9F1010FA4
:1009C00001DA4FF001090020B9F1110F00904846FB
:1009D00001DD112300E003460AAA01A90CA8FFF7D4
:1009E000ABFEDDE90C704D460026834620780007FB
:1009F0000AD4AB4500DA5D4601A8012D04DD41199A
:100A000011F8011C302907D04F4502DA17F1040F05
:100A100004DA012082460FE06D1EEEE7002F02DCB3
:100A2000ED1B3E4403E0781CA84200DD7D1CB81B92
:100A300000F1010A4FF000472078000703D4AA45CF
:100A400001DB4FF0FF3A0021B7F1004F0DF14308F1
:100A50008DF8431024D002202B23002F01DA7F428F
:100A60002D230A21021EA0F1010000DC5FB197FBDB
:100A7000F1FC97FBF1F201FB1C7C17460CF1300CEA
:100A800008F801CDEEE7A8F10100037021880905FF
:100A900001D5452100E06521A0F1010800F8011C05
:100AA00009980FA9A1EB0807FF1D00B1012041190A
:100AB00001EBEA70A1693844081A401EA061207851
:100AC000C00602D42046FFF789FC099828B1D4E972
:100AD00001219047206A401C20622078C00622D560
:100AE0002046FFF77BFC1EE0002E04DBB34502DD51
:100AF00001A8805D00E03020D4E901219047206A00
:100B0000401C2062761CAAF101005FEA000A0AD1AB
:100B100000F03EF8C0680168405CD4E901219047CC
:100B2000206A401C2062281EA5F10105DCDC07E0DC
:100B3000D4E9012118F8010B9047206A401C20627B
:100B4000381EA7F10107F3DC2046FFF75DFC032008
:100B500011B041E601694A1C02610878704700B58E
:100B60008FB0CDE901310021059105497944CDE9E6
:100B7000031011466846FFF795FC0FB000BD00005A
:100B8000E5FFFFFF0A6802F8010B0A6070470000EA
:100B900000487047F80B002000487047D80B002031
:100BA00030B5B0F10A024FEA900E71F100034EEA3F
:100BB000817EB0EB0E0061EB91014FEA101E4EEA10
:100BC000017E10EB0E0041EB11114FEA102E4EEAA0
:100BD000016E10EB0E0041EB11214FEA104E4EEA70
:100BE000014E10EB0E0041EB1141401841F10001A4
:100BF0004FEAD00040EA41704FEAD10110EB800586
:100C00004FEA810444EA907444EB01046D1944EB0B
:100C10000404521BA3414FF0000348BF0A3200D521
:100C200030BD401C41F1000130BD00002DE9F04114
:100C30001F46044603260168072A01F4006004DB0E
:100C400008B116A505E016A503E008B115A500E05A
:100C500015A521F010002060A069C01EA0610FB191
:100C6000401EA0612046FFF7B9FB4FB1D4E9012136
:100C700038469047206A401C2062C01C206206E073
:100C8000206AFAE7D4E9012115F8010B9047761E96
:100C9000F8D22046FFF7B8FBBDE8F0814E414E0088
:100CA0006E616E00494E4600696E66002DE9F047A0
:100CB000814616468AB0354878440DC88DE80D0047
:100CC00032487844801C03AC0DC884E80D0041F61E
:100CD0009B300844372190FBF1F290FBF1F5A5F130
:100CE000800501FB12041B3C02D56442012000E098
:100CF0000020DFF898A080460027FA44AAF1BE0A37
:100D00000EE0E0070AD03246684607EB47010123B0
:100D10000AEB810100F046FB8DE8070064107F1CA0
:100D2000002CEED1194F7F44AE3F19E0E80715D0F3
:100D300007EB04100DF1180A90E80E008AE80E0087
:100D4000C068F04201D1981908903246012306A9E3
:100D500003A800F027FB03AB83E807006D10641CB9
:100D6000002DE3D14FF0010332466946B8F1000F80
:100D700003A802D000F001FB01E000F013FBC9E979
:100D80000001C9F808200AB0BDE8F0870C5E000039
:100D900000487047D80B00207546FFF7F9FFAE46B4
:100DA00005006946534620F00700854618B020B577
:100DB000FFF776FABDE820404FF000064FF000073D
:100DC0004FF000084FF0000B21F00701AC46ACE8F3
:100DD000C009ACE8C009ACE8C009ACE8C0098D4660
:100DE000704710B50446AFF300802046BDE81040C0
:100DF000FFF741BA4FF0013C50F8042B51F8043B87
:100E00009A4221D1A2EB0C03934313EACC1317D1DE
:100E100050F8042B51F8043B9A4215D1A2EB0C0375
:100E2000934313EACC130BD150F8042B51F8043B35
:100E30009A4209D1A2EB0C03934313EACC13DBD003
:100E40004FF00000704700BFD01A01BAB1FA81F12B
:100E500001F0180122FA01F0CB40C1F12001DBB210
:100E6000C0B2C01A2CFA01F3D11A914311EAC3118E
:100E7000E6D1704701491820ABBEFEE7260002000C
:100E800070475FEA400C08BF91F0000F4FEA8C23D7
:100E90004FEAC12243EA51514FEA1C5018BF00F5F6
:100EA000F0404FEA300018BF41F000415FEA6C5C4F
:100EB00000F02980BCF1FF3F08BF40F08040704740
:100EC000130C06BF12044FF0100C4FF0000C130E61
:100ED00004BF12020CF1080C130F04BF12010CF135
:100EE000040C930F04BF92000CF1020CD30F04BF4B
:100EF00052000CF1010C11464FF00002A0F11F004E
:100F0000A0EB0C00704711F0004F08BF704731F0A4
:100F100000413FF4D5AF0B0C06BF09044FF0100C95
:100F20004FF0000C0B0E04BF09020CF1080C0B0F64
:100F300004BF09010CF1040C8B0F04BF89000CF1F4
:100F4000020CCB0F04BF49000CF1010CCCF12003C3
:100F5000A0EB0C0022FA03F302FA0CF241EA0301BF
:100F600000F10100704720F07F4C80EA030023F07D
:100F70007F47ACEB070303F57C5300F0004003F11F
:100F8000FF032DE980494FEA154B09B44FEA14439A
:100F900025EA0B4E24EA03480FF2042606EB13273A
:100FA00049083E785FEA320203FB0667C7F500078F
:100FB00007FB06F64FEA54374FEAD64606F102061B
:100FC00007FB066CCCF1005C4FEA1C472CEA074C8F
:100FD00007FB06F40CFB06F504EB15464FEA9616E4
:100FE00034BF00204FF000404FEAD13706FB07FC2A
:100FF0004FEA1C4C0CFB0BF7D21B03FB0CF761EB0D
:1010000007010CFB0EF7B0EB074072EB17420CFB2D
:1010100008F734BFA2EB0742B2EB074261EB17417E
:101020004FEA0C444FEA910706FB07FC4FEA1C4CC1
:101030000CFB0BF7B0EBC74072EB573203FB0CF71E
:1010400034BFA2EBC742B2EBC74261EB57310CFB96
:101050000EF7B0EBC70072EB57720CFB08F734BF0A
:10106000A2EBC702B2EBC70261EB5771039F4FEAD5
:10107000816141EA921104EBCC044FEAD1374FEA87
:10108000826206FB07FC42EA90124FEA80604FEA58
:101090001C4C0CFB0BF7D21B03FB0CF761EB07019D
:1010A0000CFB0EF7B0EB074072EB17420CFB08F796
:1010B00034BFA2EB0742B2EB074261EB17414FEAA4
:1010C0008C554FEA910704EB9C2406FB07FC4FEA82
:1010D0001C4C0CFB0BF7B0EBC74072EB573203FB19
:1010E0000CF734BFA2EBC742B2EBC74261EB5731FA
:1010F0000CFB0EF7B0EBC70072EB57720CFB08F756
:1011000034BFA2EBC702B2EBC70261EB577115EB1C
:101110004C254FEA816141EA92114FEA82624FEA1F
:10112000D13742EA901206FB07FC44F100044FEA73
:1011300080604FEA1C4C0CFB0BF7D21B03FB0CF737
:1011400061EB07010CFB0EF7B0EB074072EB1742A7
:101150000CFB08F734BFA2EB0742B2EB074261EB8E
:10116000174115EB1C154FEA813141EA92414FEAD4
:10117000823242EA90424FEA80304FEA0C7644F1E4
:10118000000448EA03434EEA0B484FF0000EB2EB6E
:10119000080C71EB030724BF624639464EEB0E0E76
:1011A0004FF0000B0018524149414BEB0B0BB2EBD7
:1011B000080C71EB03077BF1000B24BF6246394634
:1011C0004EEB0E0E4FF0000B0018524149414BEB15
:1011D0000B0BB2EB080C71EB03077BF1000B24BF88
:1011E000624639464EEB0E0E51EA020718BF46F032
:1011F000010616EB0E7655F1000254F1000103D5FD
:10120000BDE88901BDE80088BDE88901BDE8004866
:10121000B619524141EB0101A3F1010370478080EF
:101220007F7E7D7C7B7A7978777676757473727140
:1012300071706F6E6E6D6C6C6B6A6A6968686766F8
:1012400066656464636362616160605F5F5E5E5D8A
:101250005D5C5C5B5B5A5A595958585757565655FE
:1012600055555454535352525251515050504F4F60
:101270004F4E4E4D4D4D4C4C4C4B4B4B4A4A4A49B0
:1012800049494848484747474746464645454544F3
:101290004444444343434342424242414141002B80
:1012A0009C4630D477002BD01CB54FEA370703B4E7
:1012B0004FF010004FF01001BAF1000F06D0BCF152
:1012C000000FDCBF40F0080040F008014FF00000C4
:1012D0000FBCBDE810400BF1010BBBF1010F08BFC3
:1012E0005FEA170722BF12F1010211F101014FF06D
:1012F000004143F1000300F0004043EA0000704762
:10130000F9D35708D0E746EA064613F1400F4FEAF3
:1013100016461FDD13F1200FDFBF16430A460021DA
:1013200020335B42BED0C3F1200746EA064602FAEC
:1013300007F74FEA164646EA0706C3F1200722FAE6
:1013400003F201FA07F721FA03F14FF0000342EA32
:101350000702A7E746EA020646EA06464FEA1646AD
:1013600046EA0106BCBF46EA0646360C4FF00003CB
:101370004FF000024FF0000194E72DE9804C9A46AF
:10138000934670B491E8380007C831EA400C48BF72
:1013900034EA430C03D5FFF7E6FDFFF780FFF0BC0E
:1013A000BDE8008C2DE9804C9A46934670B491E8D4
:1013B000380007C810F0804F08BF13F0804F03D1EA
:1013C00000F005F8FFF76BFFF0BCBDE8008C20F0E3
:1013D0007F4780EA030023F07F4C07EB0C03A3F563
:1013E0007C5300F00040A3F1FE0392F0000F00F0E8
:1013F000B38095F0000F00F077802DE901494FEAA6
:1014000011404FEA144621EA004800FB06FC24EA9A
:10141000064708FB06F607FB08F800FB07F718EB82
:1014200006484CEB164C4FEA124B18EB07484FEAB4
:1014300015464CEB174022EA0B4E0BFB06FC25EA47
:1014400006470EFB06F607FB0EFE0BFB07F71EEB2F
:10145000064E4CEB164C4FF000061EEB074E4CEBC5
:10146000174B18EB0B0840F1000018EB0E0B58EB74
:10147000000840F100008F1A4FF000013CBFC94343
:10148000661B14BFB5EB040C00213CBFC943F61B1F
:101490004FEA17444EEA8E0E27EA04454FEA1C47EE
:1014A00004FB07622CEA074C05FB07F70CFB05F66B
:1014B00004FB0CFC16EB074642EB174216EB0C46FE
:1014C00042EB1C421BEB060658EB0202414146EA86
:1014D0009E0601D5BDE80189B619524141EB0101D3
:1014E000A3F10103BDE801894FEA14454FEA114712
:1014F00024EA054621EA074C05FB07F406FB07F73B
:101500000CFB06F105FB0CFC11EB074144EB174407
:101510004FEA124711EB0C4144EB1C4422EA074C02
:1015200005FB07F206FB07F70CFB06F605FB0CFCB8
:1015300016EB074642EB174216EB0C4642EB1C45F6
:101540006A1854F1000148BF7047B619524141EB87
:101550000101A3F10103704795F0000F37D04FEA66
:1015600011424FEA144721EA024624EA074C02FBE3
:1015700007F106FB07F70CFB06F402FB0CFC14EB6F
:10158000074441EB17414FEA154714EB0C4441EB7C
:101590001C4125EA074C02FB07F506FB07F70CFB8D
:1015A00006F602FB0CFC16EB074645EB174516EB5F
:1015B0000C4645EB1C42121951F1000148BF70471F
:1015C000B619524141EB0101A3F1010370474FEA03
:1015D00014454FEA114724EA054621EA074C05FB6A
:1015E00007F106FB07F70CFB06F24FF0000605FBC0
:1015F0000CFC12EB074241EB174112EB0C4251EB92
:101600001C4148BF7047921841EB0101A3F101034F
:101610007047000070B5194CA5200122207082206F
:1016200060700520A0700020E07020716071A071D2
:10163000E071222020721249124802F033F908B1F9
:1016400000F0DDF84FF4FA6000F03AF90025611976
:10165000642301220B4802F0C3F90A4801F031FF6C
:101660002128FAD064230C2207A10B4802F0B8F914
:101670006D1CEDB2092DEAD370BD0000E407002017
:10168000C4000020080300206F6E6520626974208A
:1016900073656E7400000000C002002010B52DEDCF
:1016A0000C8BB0EE418AB0EE60AAB0EE40DAB0EE3C
:1016B000639AF0EE438AF0EE62AAB0EE42CAF0EE10
:1016C00061CAF0EE480AB0EE4A0A04F05FF8DFEDB6
:1016D0003D0A20EE200A10EE100A05F025F99FEDD4
:1016E0003ABB53EC1B2B04F0CBFD04F0EFFC2AEECD
:1016F0000A0A09EE900A08EE080A04F09DF9F0EED5
:10170000400AB0EE4D0A04F041F8DFED310A20EE58
:10171000200A10EE100A05F007F953EC1B2B04F019
:10172000AFFD04F0D3FC04EE900AB0EE491AF0EEDF
:101730006C0AB0EE690A274803F0BFF82649B0EEFC
:10174000491AF0EE4C0A81ED000AB0EE640A234813
:1017500003F0B3F881ED010A91ED020A204ADFEDB2
:10176000210A0AEE890A10EE100A81ED020A90425F
:1017700003DD30EE600A81ED020AB5EEC00AF1EE3B
:1017800010FA03D230EE200A81ED020A30EE680A28
:10179000154AB0EEC00A10EE100A904201DCC1ED0D
:1017A000028A91ED020A114A10EE100A1044104A02
:1017B000904203D230EE600A81ED020ABDEC0C8B40
:1017C00010BD000000003443182D4454FB21094093
:1017D000000034C358000020D00000207C0000200E
:1017E0000000B4430000B4430AD7233CFFFFCBBC46
:1017F000FFFF7F00FEE780ED000A7047704772B67A
:10180000FEE72DE9F0410446876D00F05FF90646DA
:1018100094F835000025022806D08020606584F801
:1018200034500120BDE8F0812068016821F01601E4
:1018300001602068416921F080014161206C08B994
:10184000A06C20B12068016821F0080101602068C7
:10185000016821F0010101600CE000F037F9801B04
:10186000052807D920206065032084F8350084F816
:101870003450D7E720680068C007EED194F85C10B8
:101880003F208840B860012084F8350084F8345047
:101890000020C7E790F83510022903D08021416568
:1018A00001207047052180F835100068016821F09B
:1018B000010101600020704790F83500704700007A
:1018C00070B5044600F002F90546601C02D00448D9
:1018D0000078044400F0FAF8401BA042FAD370BD2F
:1018E000B00000202DE9F84FDFF8ACA10022012460
:1018F00003254FF00F090AF1040BAAF1040E00BFF3
:101900000B6804FA02F63340B3426ED10F7907F048
:101910000307012F01D0022F16D187684FEA420832
:1019200005FA08FC27EA0C07D1F80CC00CFA08FCF1
:101930004CEA070CC0F808C04768B7430E79C6F3F5
:10194000001696403E4346600E79F643B6070AD02D
:10195000C6684FEA420C05FA0CF7BE438F6807FAD7
:101960000CF73743C7600E7906F00306022E10D13C
:10197000D60800EB8608D8F8206057074FEAD76CE6
:1019800009FA0CF7BE430F6907FA0CF73743C8F89A
:10199000207006684FEA420C05FA0CF7BE430F7937
:1019A00007F0030707FA0CF7374307604E6816F491
:1019B000403F6BD0394E376847F480473760366810
:1019C00022F0030706F480460096354E07EB060C1E
:1019D000DCF8086897074FEA177809FA08F7BE435A
:1019E000304FB84202D100271FE04FE02E4FB842DF
:1019F00001D1012719E02D4FB84201D1022714E08F
:101A00002B4FB84201D103270FE02A4FB84201D132
:101A100004270AE0284FB84201D1052705E0274FE7
:101A2000B84201D1062700E0072707FA08F7374335
:101A3000CCF80878DAF800605746D1F804C09E4325
:101A40005FEACC2C00D51E433E60DBF800605F46A9
:101A5000D1F804C09E435FEA8C2C00D51E433E6043
:101A6000DEF800607746D1F804C09E435FEA8C3C04
:101A700000D51E433E60084F083F3E68D1F804C0C1
:101A80009E435FEACC3C00D51E433E60521C102AA8
:101A9000FFF436AFBDE8F88F083C014044380240FF
:101AA00000300140000002400004024000080240F3
:101AB000000C0240001002400014024000180240D6
:101AC0000AB1816170470904FBE7000001488068A2
:101AD00070470000B0000020704770472DE9F041CA
:101AE000016804464A694E6890F83E000025D743D5
:101AF000FA0506D4F243D20503D46FF480720125AF
:101B00004A61B90508D4F143C90505D422686FF4C8
:101B1000007145F002055161790525D4F143C905ED
:101B200022D4638D94F83D10226B202808D13BB954
:101B3000212910D029290ED0282901D1212A0AD003
:101B400022686FF48061516145F00405102806D0C9
:101B5000402804D008E0204602F084FC04E020681D
:101B6000016841F400710160380508D4F043C005F4
:101B700005D421686FF4006045F008054861002D28
:101B800007D0206C284320642046BDE8F04102F0D5
:101B900005B8BDE8F0812DE9F047026800215368DF
:101BA000C66A90F83E4090F83D50102C12D0402C60
:101BB00010D0046C002C7DD05469E443A6077AD47D
:101BC000DE43B60577D4036C03B19169BDE8F047F5
:101BD00002F024BC976951694FF42A0CC9435FEAAB
:101BE000C1784FF02A4904D066452AD04E4528D006
:101BF00010E0DE43B6050DD4C16A614501D1012173
:101C000003E0C16A494501D10821C162BDE8F0473E
:101C100002F098BA0E0716D4DE43B60513D4416C11
:101C2000C9B21161416B09B1C96B29B9816B002936
:101C300007D0C96B002904D00068416841F40061F5
:101C40004160BDE8F0878E0706D4DE43B60503D4B5
:101C5000BDE8F04702F0EAB9FE43526876074FEA62
:101C600002521DD4002AECDB0A0608D4DA435205DE
:101C700005D4490705D5BDE8F04702F07BB949070F
:101C8000DFD4D9438905DCD4212D05D0402CD8D10F
:101C9000BDE8F04702F09CBABDE8F04702F028B971
:101CA000002ACEDB4A060BD4DA43520508D4490792
:101CB00008D501E00DE00EE0BDE8F04702F09EB867
:101CC0004907BED4D9438905BBD4BDE8F04702F02B
:101CD00028B8916970E7E10606D4D943890503D491
:101CE000BDE8F04702F006BC2821212D27D0292D80
:101CF00025D0650655D4DD436D0552D4640752D511
:101D000090F83D30448D002C9BD01269446A2270BB
:101D1000426A521C4262428D521E4285428D002A06
:101D20008FD12A2B8DD10268536823F480635360CE
:101D30002222026380F83D1000F0F0FA81E72506C8
:101D400023D4DD436D0520D4640720D590F83D30C1
:101D5000448D002CF2D0446A24781461426A521CEB
:101D60004262428D521E4285428D002AE6D1292BC5
:101D7000E4D10268536823F4806353602122026334
:101D800080F83D1000F0CBFA5BE76107D6D4D94369
:101D90008905D3D4418D0029D0D0416A09781161D9
:101DA0000AE06107CAD4D9438905C7D4418D002907
:101DB000C4D01169426A1170416A491C4162418D67
:101DC000491E41853DE7704770B5040025D094F861
:101DD0003D00002520B984F83C50204600F058FA18
:101DE000242084F83D002068016821F00101016091
:101DF0002068016841F4004101602068016821F415
:101E00000041016000F0C0FB4D4A6168914201D879
:101E10004C4900E04C49884201D2012070BD4B4939
:101E20002368B0FBF1F15E6826F03F060E435E606A
:101E30006368934206D94FF4967359434FF47A730B
:101E4000B1FBF3F12368491C1E6A26F03F063143BB
:101E500019626168914210D84900401EB0FBF1F24E
:101E6000521CC2F30B02042A01D2042022E0B0FB70
:101E7000F1F0401CC0F30B001CE0A268F2B301EBD0
:101E8000C10303EB0116431EB3FBF6F35B1C43F4E3
:101E900080431B0549D092B301EBC10202EB011153
:101EA000401EB0FBF1F0401CC0F30B0040F480403A
:101EB00040F400402168CA694CF6FF739A4310430E
:101EC000C861D4E9071001432068026822F0C0020B
:101ED00011430160D4E9030101432068826848F29C
:101EE000FF339A4311438160D4E905010843216817
:101EF000CA6822F0FF021043C86001E00EE016E05D
:101F00002068016841F0010101602564202084F807
:101F10003D00256384F83E50002070BD01EB410672
:101F2000431EB3FBF6F35B1CB3E70120C2E701EBF2
:101F30004101401EB0FBF1F0401CC0F30B00B7E7BD
:101F4000A086010080841E0000093D0040420F0071
:101F50007047704770477047704700002DE9FF4F8A
:101F600083B09A46DDE9118793460446DDF8409038
:101F7000FFF7ACFD054694F83D00202870D11923E9
:101F8000012274492046009502F08EFB0028F5D10D
:101F900094F83C00012863D0012084F83C002068BC
:101FA0000168C90703D1016841F00101016020689F
:101FB000016821F400610160222084F83D00402086
:101FC00084F83E0000262664C4F82490A4F82A80F1
:101FD000608D20856048E062CDE9007553465A4621
:101FE0002046049902F048F9002879D1208DD0B11B
:101FF000012821D00228206824D0416980690090FE
:10200000208D032866D801282BD0544902283B464E
:102010004FF00002009557D08846204602F044FB5E
:1020200000285DD13AE0206841698169009101682A
:1020300041F4007101607DE02068016821F4806155
:102040000160F0E7016821F48061016020680168A7
:1020500041F400610160206841698069009069E095
:1020600075E02A463946204602F0C4FB88BB54E09E
:102070002068016841F40071016020680069616AAC
:102080000870606A401C6062218D491E2185618D47
:10209000491E618521680969017042E02068016874
:1020A00021F48061016020680069616A0870606ADB
:1020B000401C6062208D401E2085608D401E608522
:1020C0003B46002241460095204602F0EDFA00B959
:1020D000CEE705E02A463946204602F08BFB18B1D0
:1020E000012007B0BDE8F08F20680069616A0870C0
:1020F000606A401C6062208D401E81B22185608D27
:10210000401E608520684269D243520712D40329D9
:1021100003D1016821F48061016020680069616A6F
:102120000870606A401C6062208D401E2085608DB2
:10213000401E6085208D00287FF462AF202084F847
:102140003D0084F83E6084F83C600020C9E702202E
:10215000C7E70000020010000000FFFF04000100BC
:102160002DE9FF4F83B09A46DDE911979346044667
:10217000DDF84080FFF7AAFC054694F83D002028D2
:102180007FD11923012240492046009502F08CFAA4
:10219000002876D194F83C00012872D0012084F800
:1021A0003C0020680168C90703D1016841F00101C2
:1021B00001602068016821F400610160212084F839
:1021C0003D00402084F83E0000262664C4F82480A8
:1021D000A4F82A90608D20852C48E062CDE9007536
:1021E00053465A462046049902F0C4F870B930E0CC
:1021F0002A463946204602F035FB58B1206C0428A7
:1022000004D12068016841F400710160012007B029
:10221000BDE8F08F606A216800780861606A401C40
:102220006062218D491E89B22185628D521E6285B0
:1022300022685369DB435B070BD469B100781061F6
:10224000606A401C6062208D401E2085608D401EAB
:102250006085208D0028CBD12A463946204602F0E1
:10226000F7F90028CAD154F83D0B016841F4007118
:102270000160202004F81E09E67766770020C6E793
:10228000FFE70220C3E70000020010000000FFFF8C
:1022900010B586B0044614216846FEF7BEF91C4905
:1022A0002068884231D11B48016841F00201016079
:1022B0000068694600F0020005904FF4C07000907D
:1022C000122001900120029003200390042004902A
:1022D0001148FFF707FB0F481030016841F4001167
:1022E00001600068002200F40010059001211F2009
:1022F00000F07EF81F2000F06DF800220121202060
:1023000000F076F8202000F065F806B010BD00005F
:1023100000540040303802400004024070477047CB
:10232000024881680278114481607047B000002043
:102330000B4810B5016841F400710160016841F477
:1023400080610160016841F480710160032000F048
:102350006FF8002000F006F800F024F8002010BD0F
:10236000003C024070B50D4D04464FF47A71287858
:10237000B1FBF0F00A490968B1FBF0F000F03AFB5C
:1023800048B9102C07D200222146501E00F030F828
:1023900000206C6070BD012070BD0000B000002006
:1023A000BC0000200A4808B5016841F48041016082
:1023B000006800F4804000900548001F016841F06B
:1023C00080510160006800F08050009008BD00005E
:1023D00044380240002809DB00F01F02012191402F
:1023E0004009800000F1E020C0F8001170470000B3
:1023F000F0B40E4B1B680C46C3F30223C3F1070570
:10240000042D00D90425191D072901D2002300E05D
:10241000DB1E012606FA05F1491E214099409E4027
:10242000761E16403143F0BC03F0A0B90CED00E07D
:10243000064900F0070208684FF6FF03184040EA1B
:102440000220034A10430860704700000CED00E0D2
:102450000000FA052DE9F0470E46050065D0DFF8CB
:102460001481D8F80000F7B200F00F00B04207D294
:1024700088F80070D8F8000000F00F00B04254D186
:1024800028683D4C810712D5400703D5206840F4E9
:10249000E05020602878000703D5206840F46040B1
:1024A00020602068A96820F0F000084320602878A8
:1024B000C0072DD0304968680839012812D0022899
:1024C00013D0032811D00968890700292DDA216863
:1024D00021F0030101432160FFF7F8FA814641F240
:1024E000883A0EE009688903EFE709688901ECE79B
:1024F000FFF7ECFAA0EB0901514502D90320BDE832
:10250000F0872068696800F00C00B0EB810FEFD114
:10251000D8F80010404601F00F01B14207D907700A
:10252000006800F00F00B04201D00120E7E72878F2
:10253000400705D52068E96820F4E0500843206092
:102540002878000706D52068296920F4604040EA11
:10255000C100206000F038F82168084AC1F3031177
:10256000515CC8400649086006480068FFF7FAFE5B
:102570000020C4E7003C024008380240226A0008FC
:10258000BC000020B4000020044805490068096828
:10259000044AC1F38221515CC8407047BC0000204E
:1025A00008380240326A0008044805490068096892
:1025B000044AC1F34231515CC8407047BC0000205E
:1025C00008380240326A0008224810B5006810F04E
:1025D0000C02214815D04110042A11D01D4C241F93
:1025E000082A0FD00C2A0CD12268236802F03F027F
:1025F0005B0221D52068C0F38810A0FB010120E018
:10260000084610BD2268236802F03F025B0205D530
:102610002068C0F38810A0FB010104E02168C1F329
:102620008811A1FB00010023FDF74CFE2168C1F3D6
:102630000141491C49000AE02168C1F38811A1FB4E
:1026400000010023FDF73EFE2168C1F30271B0FBDB
:10265000F1F010BD083802400024F4002DE9F84FD5
:1026600004007DD0DFF878B32078ABF10407C00711
:10267000A7F1040550D0DBF800105846C1F38101E2
:1026800001290FD00168C1F38101022902D1396803
:10269000490207D40068C0F38100032809D13868D3
:1026A000400206D52868800336D560680028D8D057
:1026B00032E06068B0F5803F10D0B0F5A02F2868F8
:1026C00010D020F480302860286820F48020286012
:1026D0006068A0B1FFF7FAF906460CE0286840F4FC
:1026E0008030F4E740F480202860F7E7FFF7EEF948
:1026F000801B642876D828688003F7D50CE0FFF7A4
:10270000E5F9064605E000BFFFF7E0F9801B642805
:10271000F0D828688003F7D42078DFF8C8928007C3
:102720004FF0000A44D5DBF80010584611F00C0FAA
:102730000FD00168C1F38101022902D13968490231
:1027400007D50068C0F3810003280AD13868400229
:1027500007D42868800715D5E068012800D111E06A
:102760003AE1E068B0B10120C9F80000FFF7AEF926
:10277000064604E0FFF7AAF9801B0228BAD82868A9
:102780008007F7D52868216920F0F80040EAC100E9
:1027900028600DE0C9F800A0FFF798F9064604E0AC
:1027A000FFF794F9801B02281CD828688007F7D40B
:1027B0002078000727D5DFF828828B48616908F167
:1027C0006C0881B101210160FFF780F9064604E041
:1027D000FFF77CF9801B022804D8D8F80000800796
:1027E000F6D510E089E0C0F800A0FFF76FF90646C3
:1027F00005E000BFFFF76AF9801B02287DD8D8F8F2
:1028000000008007F6D42078400769D574484FF05F
:10281000000838300068C0000BD4714838300168B7
:1028200041F08051016000684FF0010800F08050D5
:1028300000906E4E3068C00511D4306840F480704E
:102840003060FFF743F9009006E000BFFFF73EF964
:102850000099401A022850D83068C005F6D5604E5D
:10286000A068683601280FD00528306810D020F005
:1028700001003060306820F004003060A068B8B11A
:10288000FFF724F900900FE0306840F00100F4E712
:1028900040F004003060F7E7FFF718F90099411A9B
:1028A00041F28830814264D830688007F4D50EE068
:1028B000FFF70CF9009007E0FFF708F90099411ABB
:1028C00041F28830814254D830688007F4D4B8F19E
:1028D000000F05D042483830016821F08051016076
:1028E000A069A8B3DBF80010C1F38101022947D029
:1028F0000228C9F860A005D000E03AE0FFF7E6F84A
:10290000044639E0FFF7E2F8064604E0FFF7DEF898
:10291000801B02282DD828688001F7D4F4E907012C
:102920000843E168324A490802EB0141A26841EAE2
:1029300082110843217C40EA0160217D40EA017058
:1029400038600120C9F86000FFF7C0F8044606E0CF
:1029500044E000BFFFF7BAF8001B022809D8286836
:102960008001F7D53AE000BFFFF7B0F8001B02285E
:1029700002D90320BDE8F88F28688001F4D42DE047
:102980000128F7D03868E26900F48001914223D130
:10299000226A00F03F0191421ED147F6C071626A7F
:1029A0000140B1EB821F17D1A26A4FF0FF3300F450
:1029B000403103EB5202B1EB024F0DD194F82C20C1
:1029C00000F07061B1EB026F06D194F8301000F0A6
:1029D000E040B0EB017F01D00120CBE70020C9E748
:1029E0000838024000004742800E47420070004015
:1029F0000000FFFF10B5401EB0F1807F01D3012021
:102A000010BD4FF0E02460610F21601702F0AEFEB0
:102A10000020A06107202061002010BD7047704792
:102A200070B590F83C20012A32D0012480F83C4057
:102A3000022280F83D2003685A689D6822F07006E3
:102A40000A6832435A60134B02689A4214D0B2F1BA
:102A5000804F11D0104B9A420ED0104B9A420BD09F
:102A60000F4B9A4208D00F4B9A4205D00E4B9A4218
:102A700002D00E4B9A4204D1496825F080031943D5
:102A8000916080F83D40002180F83C10084670BD00
:102A9000022070BD0000014000040040000800401A
:102AA000000C0040000401400040014000180040BC
:102AB00010B5040003D094F83D0010B107E00120E8
:102AC00010BD002084F83C00204600F01FF80220D2
:102AD00084F83D00211D206802F022FB012084F8CB
:102AE000460084F83E0084F83F0084F8400084F8F3
:102AF000410084F8420084F8430084F8440084F8DC
:102B0000450084F83D00002010BD000008B5174ABC
:102B100001681748914207D1016841F00201016044
:102B2000006800F002001EE0124A914211D10168D3
:102B300041F0040101600068002200F004000090F0
:102B400001211E20FFF754FCBDE808401E20FFF7BE
:102B500041BC094A914207D1016841F00801016076
:102B6000006800F00800009008BD0000000400406C
:102B70004038024000080040000C004090F83D1032
:102B8000012901D001207047022180F83D10016821
:102B9000CA6842F00102CA6000681149884214D034
:102BA000B0F1804F11D00F4988420ED00E498842B3
:102BB0000BD00E49884208D00D49884205D00D49F6
:102BC000884202D00C49884204D1816801F0070193
:102BD000062903D0016841F001010160002070471F
:102BE000000001400004004000080040000C0040CC
:102BF00000040140004001400018004070B5044648
:102C000090F83C000025012817D0012684F83C608C
:102C1000022084F83D002068826822F0770222F4C6
:102C20007F4282600868502838D00DDC20284FD0C1
:102C300005DC90B3102811D14AE0022070BD302885
:102C400046D040280AD13BE060282FD070280DD014
:102C5000B0F5805F03D0B0F5005F12D0012584F895
:102C60003D60002084F83C00284670BDCB68D1E967
:102C70000121206802F0C9FA2068816841F07701DB
:102C800009E0CB68D1E90121206802F0BEFA206892
:102C9000816841F480418160E1E719E0CA684968D0
:102CA000206802F087FB5021206806E0CA68496866
:102CB000206802F090FB6021206802F0B0FACEE7B5
:102CC000CA684968206802F075FB40212068F4E773
:102CD000226801461046F0E72DE9F0410D46040058
:102CE00003D094F83D0018B108E00120BDE8F08160
:102CF000002084F83C00204600F040F8022084F8D0
:102D00003D002068816844F2070291438160211DE3
:102D1000206802F005FA226890689169166A2B68AB
:102D2000AF69034340F20330814341EA0721A868B9
:102D3000EF6908434FF6FC418843E96840EA072001
:102D4000014328692F6A000140EA07300843696897
:102D50006D6926F0AA0646EA0515294393602268A4
:102D6000906154F8460B0162012004F81F09E075D8
:102D70002076E0762077A0750020B7E770B586B0A2
:102D8000044614216846FDF748FC2B4B22680024BA
:102D90002A49022501262A489A4218D1274A143284
:102DA000136843F001031360126802F001020592F8
:102DB0000A6842F001020A60096801F00101059108
:102DC0004FF440710091CDE9015469462DE0B2F114
:102DD000804F2ED1194A1032136843F0010313605B
:102DE000126802F0010205920A6842F001020A60CC
:102DF0000A6802F0010205920A6842F002020A60C3
:102E0000096801F0020105914FF400410091CDE9FC
:102E10000154CDE903466946FEF764FD4FF40070A6
:102E20000090CDE9015407486946CDE90346FEF715
:102E300059FD06B070BD000000000140303802406E
:102E4000000002400004024070B590F83E60044665
:102E500090F83F5090F8423090F84320022021B182
:102E600004290ED0012E1BD114E0012E18D1012B04
:102E700016D184F83E0084F8420001220021206827
:102E800020E0012D0CD1012A0AD184F83F0084F8FA
:102E9000430014E0012D03D1012B01D1012A01D0FF
:102EA000012070BD84F83E0084F83F0084F84200A1
:102EB00084F8430001220021206802F099F90122E0
:102EC0000421206802F094F92068016841F00101B2
:102ED0000160002070BD70472DE9F0410446006894
:102EE000C66805694FF00007A90713D5B10711D5CA
:102EF000F91E016101202077206880698007204643
:102F000002D0FFF7E8FF04E000F0BEF8204600F032
:102F100050F92777680716D5700714D521686FF028
:102F200004000861022020772068806910F4407F47
:102F3000204602D0FFF7CFFF04E000F0A5F82046BE
:102F400000F037F92777280715D5300713D5216802
:102F50006FF008000861042020772068C0698007AE
:102F6000204602D0FFF7B7FF04E000F08DF82046BE
:102F700000F01FF92777E80616D5F00614D521686A
:102F80006FF010000861082020772068C06910F4F5
:102F9000407F204602D0FFF79EFF04E000F074F867
:102FA000204600F006F92777E80708D0F00706D09A
:102FB00021686FF001000861204600F05FF92806E3
:102FC00008D5300606D521686FF0800008612046DC
:102FD000FFF724FD680608D5700606D521686FF056
:102FE00040000861204600F069FAA8060AD5B0063C
:102FF00008D521686FF0200008612046BDE8F04147
:10300000FFF70DBDBDE8F08130B587B0044614214F
:103010006846FDF702FB2468164D0021164803237D
:103020000222AC420FD1046844F00204046000683C
:10303000009300F002000590CDE90121CDE90312D3
:1030400069460E4811E00E4DAC4210D1046844F0C0
:10305000010404600068009300F001000590CDE9D0
:103060000121CDE9031269460648FEF73BFC07B093
:1030700030BD00000004004030380240000402402F
:10308000000C004000000240704770B5044690F804
:103090003C0000260D4601280FD0012084F83C009A
:1030A0006AB1042A1DD0082A2FD00C2A3FD001264D
:1030B000002084F83C00304670BD022070BD2068BE
:1030C00002F0B6F82068816941F00801816120684A
:1030D000816921F004018161206881692A691143B5
:1030E00011E0206802F0D4F82068816941F40061A1
:1030F00081612068816921F4806181612068816932
:103100002A6941EA02218161D2E7206802F0F6F8DB
:103110002068C16941F00801C1612068C16921F0DE
:103120000401C1612068C1692A69114311E0206866
:1031300002F018F92068C16941F40061C16120689A
:10314000C16921F48061C1612068C1692A6941EACD
:103150000221C161ACE710B5040003D094F83D0032
:1031600010B107E0012010BD002084F83C0020468B
:1031700000F01EF8022084F83D00211D206801F0B7
:10318000CFFF012084F8460084F83E0084F83F0019
:1031900084F8400084F8410084F8420084F8430039
:1031A00084F8440084F8450084F83D00002010BDF8
:1031B0007047704710B50446022249B104290ED069
:1031C000082913D094F84100012816D0012010BD21
:1031D00094F83E000128F9D184F83E200FE094F8DD
:1031E0003F000128F2D184F83F2008E094F8400025
:1031F0000128EBD184F8402001E084F8412001222D
:10320000206801F0F5FF16492068164A884201D06F
:10321000904203D1436C43F40043436420688842E6
:1032200013D0B0F1804F10D00F4988420DD00F4914
:1032300088420AD00E49884207D0904205D00D49F5
:10324000884202D00C49884204D1816801F007010C
:10325000062903D0016841F001010160002010BD82
:10326000000001400004014000040040000800404C
:10327000000C004000400140001800402DE9F041E2
:1032800080492DED028B88427ED17F4C04F11C03D6
:10329000206C1A1F401C2064111F7C4801F040FC68
:1032A00004F128031A1F111F784801F07FFC94EDE8
:1032B0000A0AF6EE000A764930EE200A10EE100AED
:1032C00084ED0A0A884208DC10EE100A714988422F
:1032D00003D29FED710A84ED0A0A10EE100A03F082
:1032E00023FB9FED6E1B53EC112B03F035F941ECE2
:1032F000180B206B03F018FB9FED6A1B53EC112B8E
:1033000003F02AF953EC182B02F012FF02F0DEFE54
:1033100002EE900A04F11400C4ED0A2AC4ED0C2A4E
:10332000D4ED043A94ED0B3A90EC050AFEF7B6F9A9
:103330005E4DD5ED000A9FED5E0A60EE800AFDEE5F
:10334000E00AC4ED0D0AD5ED010A60EE800AFDEE3B
:10335000E00AC4ED0E0AD5ED020A20EE800ABDEEA9
:10336000C00A84ED0F0A206C0A280DD100262664BD
:10337000207838B90021084601F06EFE0021084689
:1033800001F062FE207800E077E0022807D1616D4D
:10339000E06C01F061FE216DA06C01F055FE20781B
:1033A000012814D195ED020A424802F0A5FBBDEEBA
:1033B000C00A10EE100A6064E16C0844616D01F00F
:1033C0004BFE616C206D411AA06C01F03DFE20782F
:1033D000384F9FED398A032823D1607838B197EDB3
:1033E000000A384630EE080AFEF705FA667095EDD9
:1033F000020A304802F080FBBDEEC00A4FF0000127
:1034000010EE100A6064002804DD01F025FE0021A2
:10341000606C04E0002001F01FFE0021084601F06E
:1034200013FE2078042828D1A07838B197ED000A3F
:10343000204830EE480AFEF7DEF9A67095ED020A44
:103440001C4802F059FBBDEEC00A10EE100A606481
:10345000002806DA4142002001F0FEFD606C414286
:1034600004E00021084601F0F7FD0021BDEC028BCD
:103470000020BDE8F04101F0E7BDBDEC028BBDE8E6
:10348000F081000030020020000000200401002034
:103490003333B33F3333B3BF000000006666666664
:1034A0006666E63F333333333333D33FD0000020F7
:1034B0000000C842740300200000B4427047704707
:1034C000704710F8411F407808437047F8B501680D
:1034D00004460868CA684B6910F00F0F4FF00005EA
:1034E00059D003F0010602F49077374365D0C10745
:1034F00005D0D10503D5616C41F00101616441073C
:1035000005D5D90703D0616C41F0020161648107E0
:1035100005D5D90703D0616C41F00401616401074E
:1035200007D502F02001314303D0616C41F008015E
:103530006164616C00293AD0800604D5900602D5FA
:10354000204601F088FF20684069616CC0F380105C
:10355000090700D460B3204601F056FF2068406997
:10356000400621D52068143050E8001F21F04001AA
:1035700040E80012002AF5D1E06BA8B1724901655C
:10358000E06BFEF787F9002811D0E06B016D01B008
:10359000BDE8F040084783060FD593060DD52046B9
:1035A000BDE8F84001F057BF2046FFF789FFF8BD9E
:1035B0002046FFF785FF6564F8BD266B2023012EAA
:1035C0007ED1C6067CD5D6067AD5086848680090B4
:1035D00048694FF0020640064DD5E26B106840681E
:1035E0004FF480770004000C3AD0A18D814237D986
:1035F000E085D069B8422DD020680C3050E8001F1B
:1036000021F4807140E80012002AF5D120681430BE
:1036100050E8001F21F0010140E80012002AF5D116
:103620002068143050E8001F21F0400140E80012EB
:10363000002AF5D184F84230256320680C3050E828
:10364000001F21F0100140E80012002AF5D1E06BC4
:10365000FEF7D7F86663A08DE18D401A81B206E0CF
:10366000A18D8142A8D1D069B842A5D16663204618
:10367000FFF725FFF8BDA08DE18D401A81B2E08DE6
:103680000028F7D00029F5D020680C3050E8002F32
:1036900022F4907240E80027002FF5D12068143002
:1036A00050E8002F22F0010240E80027002FF5D15A
:1036B00084F84230256320680C3050E8002F00E089
:1036C00006E022F0100240E80023002BF3D1CDE702
:1036D00005062BD5150629D594F841002128C9D116
:1036E000A068B0F5805F01D12069B0B1206A411CAB
:1036F0002162216800784860E08C401E0004000CC4
:10370000E084B7D12068C16821F08001C1602068E1
:10371000C16841F04001C160F8BD206A0088C0F373
:1037200008004860206A801C2062E5E74006F3D567
:103730005006F1D5CA68204622F04002CA6084F8DB
:10374000413000F0B6F9F8BDFB53000870B5040035
:1037500004D094F84100002510B106E0012070BDAE
:1037600084F84050204600F023F8242084F84100DB
:103770002068C16821F40051C160204601F0CCFEF0
:103780002068016921F4904101612068416921F0BC
:103790002A0141612068C16841F40051C16065643B
:1037A000202084F8410084F842006563002070BD49
:1037B000F0B587B0044614216846FCF72EFF344864
:1037C000324B2268002432491438022503269A42DB
:1037D00033D10A6842F010020A60096801F0100152
:1037E0000591016841F001010160016801F00101EA
:1037F0000591016841F002010160006802AA00F031
:10380000020005901815CDE90005072782E8D000D1
:1038100069462048FEF766F84020CDE9000502AA77
:10382000694682E8D0001C48FEF75CF800220121BE
:103830002520FEF7DDFD252023E0184B9A4222D1FA
:103840000A6842F020020A60096801F0200105912F
:10385000016841F0040101600068029400F0040076
:103860000590C020CDE900050820CDE90360694638
:103870000B48FEF737F8002211464720FEF7B8FD47
:103880004720FEF7A7FD07B0F0BD00000010014083
:10389000443802400000024000040240001401408D
:1038A0000008024090F84230202B01D002207047DF
:1038B00021B11AB10023036301F0B4BE01207047A7
:1038C0002DE9F047074600683C49002401250526FC
:1038D0004FF002094FF00308884229D13849C878CF
:1038E00030280ED031280ED032280ED033280FD0F9
:1038F000342811D0352811D0362811D037282BD0B4
:1039000010E00C700EE00D700CE081F8009009E002
:1039100081F800804D7005E0042002E00E7001E0A7
:103920000620087026490122C91C2648FFF7BAFF65
:103930002549386888423ED1254B2448254F1978BF
:103940000078254A032919D241B101290DD07854B4
:1039500083F80080107027E00720E2E70A21B1EB2E
:10396000101F21D138701D701EE0B6EB101F03D15F
:10397000787083F8009017E01C7015E05329785494
:1039800005D2491C19701178414011700CE0117872
:10399000414011701C707A78387862F31F10C0B201
:1039A000814201D100F0CEFFBDE8F0470122074976
:1039B0000A48FFF777BFBDE8F0870000001001401C
:1039C00000000020C002002000140140C4000020BC
:1039D000C000002080070020CC0000200803002049
:1039E0002DE9F843044690F84100984616460D46E6
:1039F000202802D00220BDE8F88385B17EB10020E6
:103A00006064212084F84100FEF760F8A6848146B6
:103A1000E684A0682027B0F5805F02D003E0012093
:103A2000E9E7206910B12E4600250EE000260CE0E3
:103A30008021204601F011FEA8B9C6B116F8010B8D
:103A400021684860E08C401EE084E08C4B464FF0DB
:103A50000002CDF800800028EAD14FF04001204656
:103A600001F0FBFD40B184F841700320C3E735F855
:103A7000020BC0F30800E3E784F841700020BAE7C6
:103A800090F84130202B01D00220704779B172B1FB
:103A900001628284C28400214164212180F84110A6
:103AA0000068C16841F08001C160002070470120BA
:103AB00070477047FEE700000148FEF70FB80000AE
:103AC000040100200148FEF766B800000401002050
:103AD00038B5806B002190F83D202B4B46F2A8149E
:103AE0001B68B3FBF4F3C3EBC30303EB8303009343
:103AF0003BB15B1E009303681B689B0505D5009BCB
:103B0000F6E7036C43F020030364436B03B1D9630E
:103B1000836B03B1D96303681C6824F480641C6060
:103B20004185436B03B11965836B03B11965036864
:103B30001C6824F001041C6090F83D402023602C98
:103B40000BD0282434EA02020FD080F83D3080F8F0
:103B50003E1000BFFEF737F938BD80F83D3080F8E1
:103B60003E100164FDF7B8FF38BD0268136843F0EA
:103B7000010313600268136843F4806313600163F8
:103B800080F83D40E6E70000BC0000200068416985
:103B9000C943090601D400210161704770B504468C
:103BA00090F83D0094F83E10102901D0402906D12C
:103BB000222804D121680A6822F400620A602821C0
:103BC00031EA00024FF000054FF0200626D02168B0
:103BD0004968090505D4602803D084F83D6084F85D
:103BE0003E50256320684168090537D5416821F4B6
:103BF00000614160606B90F835203C49012A11D08A
:103C00000165606BFDF746FE38B32068016821F05E
:103C10000101016084F83D60606B1CE0256384F85D
:103C20003D10DFE7A06B0165A06BFDF733FEA0B18F
:103C300020684169C943490605D40069616A087072
:103C4000606A401C60622068016821F00101016027
:103C500084F83D60A06B016D884710E094F83D103A
:103C6000602910D04169C943490605D40069616AD9
:103C70000870606A401C60622046FEF7A4F8206C61
:103C8000C1071CD115E084F83D6025644169C94332
:103C9000490605D40069616A0870606A401C606268
:103CA0002068016821F0010101602046FDF714FF42
:103CB000E5E7810703D4410701D4000704D5206854
:103CC000416821F4E061416094F83D00216C4907AE
:103CD0000BD5282809D10648E062256384F83D60A9
:103CE00084F83E502046FEF733F970BDD13A000803
:103CF0000000FFFF01684A69D24352050FD46FF4F8
:103D000080624A61002140F8301F20224273817393
:103D1000026942F004020261017301207047002031
:103D2000704710B5C26A438D0168042B06D0438DDD
:103D3000032B08D0438D022B1DD012E04A6822F4D9
:103D400080624A600CE04B6823F480634B60042A75
:103D500006D0022A04D001680A6822F480620A6050
:103D600001680969426A1170416A491C4162418DCA
:103D7000491E418510BD012A34D0102A32D0042AB0
:103D800034D0022A32D00B6843F400730B60016810
:103D90000969436A1970416A491C4162438D5B1E7F
:103DA000438503681B690B70416A491C4162418D60
:103DB000491E418501684B6823F440734B60202104
:103DC00080F83D1090F83E300021402B80F83E10E6
:103DD00010D0082A02D0202A00D012210163FEF759
:103DE000B8F810BD0B6823F48063CFE70B6843F489
:103DF0008063CBE70163FEF7AEF810BD38B590F8ED
:103E00003D10222910D1C36A418D03290DD90168C3
:103E10000969426A1170416A491C4162418D491E1B
:103E20004185418D032906D038BDC26A022A02D0DD
:103E3000012906D029B10068416821F48061416000
:103E400038BD2A4A46F2A81400211268B2FBF4F2E7
:103E500002EB8202009202682024009D6D1E0095F4
:103E600026D01568AD05F8D4156825F48065156071
:103E70000268556825F4E065556002681269456A74
:103E80002A70426A521C4262428D521E428580F85C
:103E90003D4090F83E2080F83E10402A21D0082B6B
:103EA00002D0202B00D012210163FEF752F838BD5A
:103EB000036C43F020030364536823F4E06353600E
:103EC00002681269436A1A70426A521C4262428D49
:103ED000521E428580F83D4080F83E10FDF773FF8A
:103EE00038BD0163FEF737F838BD0000BC00002084
:103EF00010B5C26A90F83D1021290BD1418D51B106
:103F0000416A026809781161416A491C4162418D28
:103F1000491E418510BD20230021082A13D0202AE4
:103F200011D012F5803F0ED00268546824F4E0648A
:103F300054601122026380F83E1080F83D3000BFCB
:103F4000FEF708F810BD0268546824F4E064546079
:103F50000268146844F400741460016380F83D3012
:103F600090F83E2080F83E10402AE9D1FDF7F4FF9A
:103F700010BD000010B590F83D1090F83E30C26AB8
:103F8000048DB4B1212903D0402B11D122290FD1A6
:103F9000418DE1B390F83E10402942D0416A026859
:103FA00009781161416A491C4162418D491E418570
:103FB00010BD2129E8D120230021082A13D0202A6E
:103FC00011D012F5803F0ED00268546824F4E064EA
:103FD00054601122026380F83E1080F83D3000BF2B
:103FE000FDF7B8FF10BD0268546824F4E064546023
:103FF0000268146844F400741460016380F83D3072
:1040000090F83E2080F83E10402AE9D100E002E01E
:10401000FDF7A2FF10BD0068416821F48061416096
:1040200010BDBDE8104000F0D3B8000078B590F89E
:104030003E50C26A036B90F83D6000240168222E56
:104040007AD1066D0EB9402D76D0056D1DB9056982
:10405000B5F5404F09D0458D05B3468D384D012E3D
:104060000ED0438D022B3AD05DE04A698A690092F6
:104070000A6842F480720A60016D491C016578BDCE
:10408000AA4213D10A6822F480620A6001684A6871
:10409000120503D50A6822F4806216E04A698A692B
:1040A00000920A6842F400720A6039E0082A10D0CF
:1040B000202A0ED0122B0AD0042A03D0022A01D0C3
:1040C000102AE7D10A6842F480620A6024E0012ADB
:1040D000E0D00A6822F480620A600168DEE7042A00
:1040E00021D0022A1FD0102A1DD00B6823F4806330
:1040F0000B6001680B6843F400630B6001684B6858
:104100001B0509D5AA4212D0012A10D0082A0ED0C8
:10411000102A0CD0202A0AD001684A6989690091C6
:10412000046578BD08E00B6843F48063E5E74A68FE
:1041300042F480524A60EFE7486988690090F0E7EE
:104140000000FFFF90F83E10402910D00169B1F542
:10415000804F19D0016DA9B3016D012910D1416CB7
:104160005FF0F10201F4407142EAD11106E0016D05
:104170000029416C05D0C9B241F00101006801611C
:10418000704701F0FE01F9E790F83D102129416CDC
:1041900009D0C9B241F0010102681161416B29B136
:1041A000C96B49B902E001F0FE01F5E7816B002916
:1041B000E6D0C96B0029E3D00068416841F4006192
:1041C00041607047FFE7416CF02201F44071CBE79A
:1041D00010B590F83D10026D4AB1026D012A14D05D
:1041E000026D022A16D0BDE81040FFF7CFBCC16CAB
:1041F0000129816C02D0C1F3072108E00268C9B22D
:104200001161016D891C016510BD816CC9B2026824
:10421000116123E022291CD0428D0AB1212920D02E
:10422000428D002AF0D12129EED101684A6822F49A
:10423000E0624A6001680A6842F400720A60002184
:104240000163202280F83D2080F83E10FDF784FEB7
:1042500010BD01680A6842F480720A60016D491C51
:10426000D1E7416A026809781161416A491C4162DB
:10427000418D491E418510BD2DE9F84F0446006867
:1042800089460B9D01689846174641F4806101609C
:104290002068016841F48071016000954FF0011BB6
:1042A0000022594620460A9B00F0FEF94FF4007A9E
:1042B00040B120680068C00501D5C4F840A00320C3
:1042C000BDE8F88F216809F0FE0008612B462849F7
:1042D00020460A9A00F030FAF0BB206841698069F4
:1042E00000902A4620460A9900F0BCFA40B1206CA2
:1042F00004283AD12068016841F40071016034E07B
:10430000FEB2B8F1010F09D02168380A08612A46C7
:1043100020460A9900F0A6FA0028E8D12068066134
:104320002A4620460A9900F09DFA0028DFD120682D
:10433000016841F4807101600095002259462046D1
:104340000A9B00F0B1F90028B3D1216809F0FF0001
:1043500040F00100086100E007E02B4604492046D8
:104360000A9A00F0E9F90028AAD00120A8E7000085
:10437000020001002DE9F843044600680D46DDE91E
:10438000089701689846164641F4807101604B46D3
:1043900000224FF001112046009700F085F948B146
:1043A00020680068C00502D54FF400702064032027
:1043B000BDE8F883216805F0FE0008613B464A46E7
:1043C0001549204600F0B8F988B92068416980692C
:1043D00000903A464946204600F044FA48B1206C25
:1043E000042804D12068016841F4007101600120B3
:1043F000DEE7F5B2B8F1010F09D02168300A086193
:104400003A464946204600F02DFA0028E7D12068B8
:1044100005610020CCE700000200010038B50C4621
:1044200090F83D2000212825954302680B4605D0D1
:1044300051699169009180F83C3038BD556825F488
:1044400080655560E243540700D50121120601D56D
:10445000828900E0028B80F83C3092B2FDF73DFB90
:1044600038BD00002DE9F04190F83D300446C26AA5
:10447000002120261E4F00686FF48065082A01D0B5
:10448000202A01D1282B04D0212B17D04561BDE86B
:10449000F081E762426822F4E06242602068456190
:1044A0002068026822F480620260216384F83D6023
:1044B00084F83E102046FDF74BFDE8E7E762212235
:1044C000226384F83D6084F83E10416821F4E06185
:1044D0004160206845612068016821F480610160C5
:1044E0002046FFF753FB2046FDF719FFCFE70000FA
:1044F0000000FFFFF8B590F83D6004460068416891
:1045000021F4E06141602068002541690091016863
:1045100041F0010101602068016821F480610160BF
:1045200020684168090520D5474F222E48D02A2E01
:1045300046D0616B096849686185618D19B1216C4C
:1045400041F004012164416821F400614160606B25
:10455000FDF7B2F9012808D0606B0765606BFDF7C5
:1045600099F910B1606B016D8847608D08B32068C0
:104570004169C943490708D40069616A0870606AE3
:10458000401C6062608D401E608520684169C9439F
:10459000490608D40069616A0870606A401C60625C
:1045A000608D401E6085608D18B1206C40F0040065
:1045B0002064206C00B32046BDE8F840FFF7EEBA57
:1045C000A16B096849686185618D19B1216C41F061
:1045D00004012164416821F400614160A06BFDF792
:1045E0006BF90128C1D0A06B0765A06BFDF752F9EC
:1045F0000028BAD0A06BB6E72A2E06D12563282062
:1046000084F83D002046FDF789FE94F83D102020F7
:1046100028290DD0216B222901D0222E07D1256314
:1046200084F83D0084F83E502046FDF777FEF8BD43
:104630000649E162256384F83D0084F83E50204637
:10464000FDF786FCF8BD0000D13A00080000FFFF2E
:1046500070B516460D4604461EE02046FFF74AFB9D
:1046600008B1012070BD681C16D0FDF72FFA801B21
:10467000A84200D885B920684069C04340070BD5DF
:10468000002044F8300F20216173A073216941F0AC
:10469000200121612073E4E720684069C04340079E
:1046A000DBD4002070BD00002DE9F0479846174686
:1046B0000D460446C1F30746DDF820902AE000BF0E
:1046C000B8F1FF3F26D0FDF701FAA0EB0901414503
:1046D00002D8B8F1000F1DD12068012E16D08069D4
:1046E00025EA00000004000C12D00020B84211D1CD
:1046F000002044F8300F20216173A073216941F03C
:104700002001216120730120BDE8F0874069E7E7BF
:104710000120EBE72068012E0AD0806925EA00001D
:104720000004000C06D00020B842C9D00020EBE7FE
:104730004069F3E70120F7E72DE9F0479846164670
:104740000D4604464FF000094FF0200AC1F3074719
:1047500023E020684069C043400515D42068016803
:1047600041F40071016021686FF480604861C4F811
:10477000309084F83DA084F83E90216C41F0040113
:10478000216484F83C9021E0701C06D0FDF79EF96E
:10479000A0EB0800B04203D816B1012F1FD021E0D2
:1047A0002068012F15D0806925EA00000004000C64
:1047B00018D000BF44F8309F84F80DA084F80E9004
:1047C000216941F02001216184F80C900120BDE8AD
:1047D000F087406925EA00000004000CEAD1206857
:1047E000406901E02068806925EA00000004000CAF
:1047F000AFD1ECE72DE9F041002590460E46044686
:10480000202728E04069C043C0060CD454F8301B70
:104810006FF01000486144F810596777A577206A57
:104820002062257714E0FDF751F9A0EB0800B042B3
:1048300000D886B920684069C04340060BD544F8CB
:10484000305F6773A573206940F0200020612573F5
:104850000120BDE8F08120684169C9434906D1D4EF
:104860000020F6E770B516460D4604461EE02046C9
:10487000FFF740FA08B1012070BD681C16D0FDF7A3
:1048800025F9801BA84200D885B920684069C0433B
:1048900000060BD5002044F8300F20216173A0736F
:1048A000216941F0200121612073E4E7206840691B
:1048B000C0430006DBD4002070BDD0ED043AB0EE5A
:1048C000403A90ED030A70EEE30A90ED082AD0ED2D
:1048D000051AD0ED012A01EE200AD0ED000A62EEA1
:1048E000200A41EE201AD0ED060A41EE420A02EEFD
:1048F000812A90ED021A31EE814A81EE841AC0EECF
:10490000842A33EE404A01EE040A80ED030A33EEB6
:10491000403A42EE833AB0EE613A01EE613AF0EE8F
:10492000601AC0ED043A41EE601A80ED053A42EE9D
:10493000C30AC0ED061A02EEE12AC0ED070A80EDB7
:10494000082A70472DE9F0414D4CE178A07801F03C
:104950007F0100EB012001F0EBFD9FED4A1B53ECC2
:10496000112B01F0F9FD01F0B1FB484B00EE100AEC
:104970001846D3ED010A4088454DF3EE042A9FED19
:10498000451ADFED451AB4EEE00AA4F57A71F1EEAE
:1049900010FA2BDD70EE600A5FF0000280EEA22AB2
:1049A00002EE902AF0EE400AF8EE622A42EE220A67
:1049B00010EE906AAE4201DD70EEC10A871860EE1B
:1049C000A10AFCEEE00A10EE906A21F8276004EBE1
:1049D00082063779767907EB0626871801EB870779
:1049E000521CD2B27E80142ADAD32CE030EE012A97
:1049F0005FF0000272EE600A80EEA22A02EE902AB8
:104A0000F0EE400AF8EE622A42EE220A10EE906AB8
:104A1000AE4201DD70EEC10A871860EEA10AFCEE1D
:104A2000E00A10EE906A21F8276004EB82063779DD
:104A3000767907EB0626871801EB8707521CD2B25E
:104A40007E80142ADAD3143080B283ED010A5880B4
:104A5000B0F5827F12D90A4A00206E3231F8204028
:104A600022F8204001EB800402EB8005401C6488A2
:104A7000C0B26C80FA28F1D300205880BDE8F081E4
:104A800080070020000000000000903FC4000020CC
:104A90000000B4430000B4430000C8422DE9FF41C8
:104AA00080466420FCF70CFF012503AE64240096C9
:104AB000CDE901542B467522D0214046FDF74EFA30
:104AC00040BB9DF80C00702824D100278DF80C7095
:104AD0000096CDE9015401236B22D0214046FDF719
:104AE0003FFBB8B98DF80C700096CDE90154012355
:104AF0001B22D0214046FDF733FB58B98DF80C70CE
:104B00000096CDE9015401231C22D0214046FDF737
:104B100027FB18B1002004B0BDE8F0810120FAE7BE
:104B200070B586B01C4615460E466423062203A9BE
:104B30008DE80E0001233B22D021FDF70FFA48B18A
:104B40009FED180A84ED000A85ED000A86ED000A43
:104B500006B070BDBDF80C00BDF8102040BA01B21F
:104B600000EE101ABDF80E0052BAF8EEC00A9FED22
:104B70000E0A40BA00B260EE800A12B2C6ED000A18
:104B800000EE900AF8EEE00A60EE800AC5ED000A39
:104B900000EE902AF8EEE00A20EE800A84ED000A8A
:104BA000D6E70000000000000000803870B586B035
:104BB0001C4615460E466423062203A98DE80E0006
:104BC00001234322D021FDF7C9F948B19FED180A0E
:104BD00084ED000A85ED000A86ED000A06B070BD7E
:104BE000BDF80C00BDF8102040BA01B200EE101A5A
:104BF000BDF80E0052BAF8EEC00A9FED0E0A40BA98
:104C000000B280EE801A00EE900A12B2F8EEE00ACE
:104C100086ED001A80EE801A00EE902AF8EEE00A87
:104C200085ED001A80EE801A84ED001AD6E70000A8
:104C3000000000000000034330B587B0142168462F
:104C4000FBF7EBFC1F480024016841F00401016000
:104C5000016801F004010591016841F080010160E3
:104C6000016801F080010591016841F001010160D6
:104C7000016801F001010591016841F00201016044
:104C80000068114D00F00200059000222021284606
:104C9000FCF716FF4FF4005000904FF40410CDE9DC
:104CA000010469460948FCF71DFE20200090012000
:104CB000CDE90104694628460394FCF713FE07B0CA
:104CC00030BD0000303802400000024000080240C1
:104CD0000D4810B50B4901600C49416000214FF4AB
:104CE00080428160C0E9031241618161C16101625A
:104CF000FDF76AF8002803D0BDE81040FCF77FBD3F
:104D000010BD00000054004004010020801A06007D
:104D100010B58CB024216846FBF77FFC00241748AF
:104D2000099415490A94C0E900144FF6FF71C0E9CF
:104D300002410461446184610320CDE90004012043
:104D4000CDE902040A210491CDE90540CDE90741EE
:104D500069460A48FDF7C0FF08B1FCF750FD099409
:104D600009A906480A94FDF75BFE002801D0FCF76C
:104D700046FD0CB010BD00000000014058010020AD
:104D800010B58CB024216846FBF747FC0024164878
:104D900009944FF080410A94C0E900144FF6FF7166
:104DA000C0E90241046184610320CDE900040120CF
:104DB000CDE902040A210491CDE90540CDE907417E
:104DC00069460948FDF788FF08B1FCF718FD09940A
:104DD00009A905480A94FDF723FE002801D0FCF735
:104DE0000EFD0CB010BD0000A001002010B58EB06B
:104DF00000240794089409940A940B941C21684693
:104E00000C94FBF70AFC22482049C0E9001442F246
:104E1000CF01C0E9024104618461FDF749FE08B198
:104E2000FCF7EDFC4FF48050079007A91848FDF7F8
:104E3000E5FE08B1FCF7E3FC1548FEF78CF908B174
:104E4000FCF7DDFC0B940BA911480C94FDF7E8FD71
:104E500008B1FCF7D4FC6020CDE9000402940822DC
:104E600069460B480494FEF710F908B1FCF7C7FC3B
:104E70000C2269460648FEF708F908B1FCF7BFFCAA
:104E80000348FEF7C1F80EB010BD0000000400405A
:104E9000E801002010B586B0002418480094019461
:104EA0000294039404941449059401605921C0E9C3
:104EB000011440F2E731C0E9031480218161FDF75C
:104EC000F7FD08B1FCF79BFC4FF480500090694659
:104ED0000A48FDF793FE08B1FCF791FC2020CDE9CC
:104EE000040404A90548FDF79BFD002801D0FCF748
:104EF00086FC06B010BD0000000800403002002013
:104F000010B58EB000240794089409940A940B9469
:104F10001C2168460C94FBF780FB22482049C0E91D
:104F2000001442F2CF01C0E9024104618461FDF73F
:104F3000BFFD08B1FCF763FC4FF48050079007A950
:104F40001848FDF75BFE08B1FCF759FC1548FEF761
:104F500002F908B1FCF753FC0B940BA911480C940F
:104F6000FDF75EFD08B1FCF74AFC6020CDE90004C6
:104F70000294002269460B480494FEF786F808B1B3
:104F8000FCF73DFC042269460648FEF77EF808B1AE
:104F9000FCF735FC0348FEF737F80EB010BD0000F3
:104FA000000C0040780200200C4810B50A4901604E
:104FB0004FF461214160002181600C22C160C0E991
:104FC00004128161C161FEF7C1FB002803D0BDE876
:104FD0001040FCF714BC10BD00100140C0020020BE
:104FE0000C4810B50A4901604FF4E12141600021ED
:104FF00081600C22C160C0E904128161C161FEF7C9
:10500000A5FB002803D0BDE81040FCF7F8BB10BD9D
:105010000014014008030020FEE7FEE7704700008F
:105020000021012806D0022801D0002070474FF04F
:10503000804200E0024A506A516200B270470000AC
:105040000000014070470000024A1060101D01601E
:10505000704700003C040040024A1060101D0160CF
:1050600070470000340C0040FDF75AB930B593B0DA
:1050700034216846FBF7D1FA14210DA8FBF7CDFACD
:105080001E480025016841F080510160006800F071
:10509000805012901A48016821F4404141F4804147
:1050A00001600068022400F4404012900120039047
:1050B0001020009406940490CDE907504FF4A87096
:1050C00009900420CDE90A0468460C94FDF7C6FA5D
:1050D00008B172B6FEE70DA90F2081E831004FF448
:1050E0008050CDE9100502210DA8FDF7B3F9002885
:1050F00001D072B6FEE713B030BD00004038024068
:10510000007000400248016841F47001016070477E
:1051100088ED00E00148FDF7DFBE0000300200200E
:10512000F0B50268274B284D284E294F294C4FF0E7
:10513000804C984209D0604507D0A84205D0B042C3
:1051400003D0B84201D0A04204D122F0700E4A68C8
:1051500042EA0E0298421BD0604519D0A84217D0EF
:10516000B04215D0B84213D0A04211D01A4DA84277
:105170000ED01A4DA8420BD0194DA84208D0194D97
:10518000A84205D0184DA84202D0184DA84203D11C
:1051900022F44075CA682A434D6922F080022A43EE
:1051A0008D68C5620D688562984201D0A04201D128
:1051B00009690163016841F0040101600121416155
:1051C0000260F0BD00000140000400400008004003
:1051D000000C004000040140004001400044014038
:1051E0000048014000180040001C00400020004022
:1051F00010B501F01F030121046A99408C43046239
:10520000016A9A401143016210BD10B5846842EAF8
:10521000032224F47F440A432243826010BD826843
:1052200022F070020A4342F00701816070470000DB
:10523000F0B5036A026A22F00102026242688469E0
:10524000124E24F073050C682C4323F002058B6882
:105250002B430D4DA84201D0B04205D123F00807E1
:10526000CB683B4323F00403A84201D0B04205D1F0
:105270004D6922F4407215438A692A434260846171
:10528000496841630362F0BD000001400004014031
:10529000F0B5026A036A23F010030362436884696D
:1052A0000D6824F4E64444EA05248D6822F02002C7
:1052B00042EA05120F4D104EA84201D0B04206D16D
:1052C000CF6822F0800242EA071222F04002A84290
:1052D00001D0B04207D14D6923F4406343EA85030E
:1052E0008D6943EA85034360846149688163026292
:1052F000F0BD00000000014000040140F0B5026A6A
:10530000036A23F4807303624368C46922F4007261
:1053100024F073050C68124E2C438D6842EA052276
:105320000E4DA84201D0B04206D1CF6822F40062EF
:1053300042EA072222F48062A84201D0B04207D19B
:105340004D6923F4405343EA05138D6943EA05137D
:105350004360C4614968C1630262F0BD000001405E
:105360000004014030B5046A026A22F480520262ED
:105370004268C3690D6823F4E64343EA05238D6858
:1053800024F4005444EA0534084DA84202D0084DE4
:10539000A84204D14D6922F4804242EA851242605B
:1053A000C36149680164046230BD0000000001402F
:1053B0000004014010B5036A046A24F00104046289
:1053C000846924F0F00444EA021423F00A020A4338
:1053D0008461026210BD10B5036A046A24F01004EF
:1053E0000462846923F0A00324F4704444EA023286
:1053F00043EA01118261016210BD10B5806B00218A
:10540000C185FEF75DF810BD01680C3151E8002F31
:1054100022F4907241E80023002BF5D10168143189
:1054200051E8002F22F0010241E80023002BF5D1C2
:10543000016B012909D101680C3151E8002F22F0DC
:10544000100241E80023002BF5D1202180F8421002
:1054500000210163704708B590F84210222901D05D
:10546000022008BD82684FF480539A4201D101693D
:1054700021B1816A9A421BD04AB10AE00268816A6E
:105480005268C2F308020A80816A891C08E0026936
:1054900072B10268526802F07F020A70816A491C88
:1054A0008162C18D491E0904090CC18503D01BE02E
:1054B00002685268F1E70168CA6822F02002CA60F7
:1054C0000168CA6822F48072CA6001684A6922F0E1
:1054D00001024A61202180F8421000214163026BE1
:1054E000012A03D0FEF7ECF9002008BD0163016832
:1054F0000C3151E8002F22F0100241E80023002B6C
:10550000F5D101680A68D20602D50A684968009197
:10551000818DFDF7D4FFE7E770B5044600680169A7
:10552000E26821F44051114301612169A068E269F8
:1055300008436169114308432168CA6849F20C6352
:105540009A430243CA6020684169A26921F440710C
:105550001143416131492068884202D03049884274
:1055600002D1FDF721F801E0FDF70EF8E269002312
:10557000192164253226B2F5004F626828D0A0FBBD
:105580000101930F9200FAF79DFE0146B0FBF5F082
:105590006FF01802504301EB800006EB0010B0FBE7
:1055A000F5F000F0F002B1FBF5F002EB0012B1FBF8
:1055B000F5F06FF01803584301EB800006EB001084
:1055C000B0FBF5F000F00F0021681044886070BD5A
:1055D000A0FB010192185B41FAF774FE0146B0FB93
:1055E000F5F00201B1FBF5F06FF01803584301EB41
:1055F000800006EBC000B0FBF5F000F0F80002EB15
:105600004002B1FBF5F0584301EB800006EBC0000F
:10561000B0FBF5F000F00700D6E7000000100140F5
:105620000014014081628285C285002141642221EB
:1056300080F84210016921B10168CA6842F48072A1
:10564000CA6001684A6942F001024A610068C168A3
:1056500041F02001C160002070472DE9F8439846D1
:1056600017460D460446089E24E0701C22D0FCF725
:105670002DFAA0EB0800B0421AD8CEB12068C1685C
:10568000490717D5802D15D0402D13D00168C94387
:1056900009070FD401680025406800902046FFF7F5
:1056A000B3FE0820606484F840500120BDE8F88310
:1056B0000320FBE72068006835EA000004D00020E2
:1056C000B842D2D00020F1E70120F9E70148FDF708
:1056D000FDBE0000C00200200148FDF7F7BE00003B
:1056E00008030020094810B50168094C6268891A4E
:1056F0000A290AD3006860600220FFF791FC40424B
:10570000A0600120FFF78CFCE06010BDB800002015
:1057100000000020FEE703B401984100009850EA21
:10572000C12018BF04204A0D18BF40F0010040F20C
:10573000FF72B2EB515F08BF40F00200012808BFC2
:10574000052002B070474100080218BF04200A0E6D
:1057500018BF40F001004FF07F4232EA010108BF5C
:1057600040F00200012808BF052070470907090E14
:10577000002804DB00F1E02080F80014704700F0FE
:105780000F0000F1E02080F8141D704770B54FF055
:1057900068422DED048BF0EE408A18EE900AB0EED0
:1057A000608A18EE101A02EB4003B3F1654F3CBF5C
:1057B00002EB4102B2F1654F7DD200BFC0F3C75387
:1057C000C1F3C7529A1A1B2A09DD10F0004F14BF0B
:1057D0009FED830A9FED830ABDEC048B70BD12F12F
:1057E0001A0F36DA11F0004F09D010F0004F0CBF3D
:1057F0009FED7D0A9FED7D0ABDEC048B70BD88EEA8
:10580000889A19EE100AFFF79EFF042808BF00F0DF
:1058100033F918EE900AFFF796FF054618EE100AC6
:10582000FFF791FF044619EE100AFFF78CFF042DD5
:1058300018BF052D08D1042C18BF052C04D1002851
:1058400004BF0220FAF718FFB0EE490ABDEC048B42
:1058500070BD4200B2EB410F3AD910F0004F19BFB2
:10586000DFED630A9FED630ADFED630A9FED630AD4
:10587000B0EE481A0A46B1EE688A80F00041F0EEB8
:10588000418A10460A1A5200B2F1807F34D2484051
:1058900010F0004FDFED5A1A9FED5A2A1DBFBEEEE1
:1058A000001A70EEE10A30EE420AB6EE001A08BFA6
:1058B00070EEA10A00E040E008BF30EE020AB0EE50
:1058C000682A01EE482A08EE818AC2EE081A15E01D
:1058D00011F0004F04BF9FED4C0AF0EE400AD1D00A
:1058E00010F0004F19BFDFED490A9FED490ADFEDC7
:1058F000490A9FED490AC5E7C8EE881A21EEA11AA8
:105900009FED462ADFED462A41EE022A9FED452A09
:1059100001EE222ADFED442A41EE022A9FED432ABE
:10592000BDEC048B01EE222A21EE811A01EE020A5F
:1059300030EE210A30EE200A70BD4FF07F42B2EB0C
:10594000400F28BFB2EB410F09D2F0EE480AB0EE8B
:10595000680ABDEC048BBDE8704000F08AB840EAEC
:1059600001035B0008BF41F0FF410BD0B2EB400FD9
:1059700008BFB2EB410F08D120F0804008EE900A3A
:1059800021F0804108EE101A18E7B2EB400F12BF69
:105990005FEA410340F0FF4001F000413FF40EAFE9
:1059A000B2EB410F12BF5FEA400200F0004041F04D
:1059B000FF413FF403AF4A0092EA40033FF5FEAED9
:1059C000002AACBF9FED1A0A9FED1A0A68EE808A82
:1059D00028EE008A18EE900A18EE101AEEE6000083
:1059E000DB0FC9BFDB0FC93FDB0F4940DB0F49C0ED
:1059F0000000C9BF22AAFDB90000C93F22AAFD3993
:105A00000060ED3EC30ACE3700000000000049C030
:105A100022AA7DBA0000494022AA7D3A2DAD65BD7B
:105A20008FB8D53D0FB511BE61C84C3EA8AAAABE1D
:105A30000000804F0000802F10B52DED028BB1EEDD
:105A4000C08A18EE100A20F00040C0F1FF40C00FDD
:105A50000AD010EE100A20F00040C0F1FF40C00F45
:105A600004BF0120FAF708FEB0EE480ABDEC028B35
:105A700010BD30EE200A70479FED020A20EE000AAA
:105A8000704700000000001030380A2801D20120C1
:105A9000704700207047000006490020064A086051
:105AA00041F288311160054A1160054908600549D5
:105AB000087070474C00002054000020480000206F
:105AC00050000020AC000020064841F28831064A10
:105AD000016000201060054A1060054A1160054908
