:020000040800F2
:10000000403800206D0200086F2A00084B250008C8
:100010006D2A00083D090008B13100080000000009
:10002000000000000000000000000000732A00082B
:10003000F109000800000000712A0008752A000874
:10004000870200088702000887020008870200086C
:10005000870200088702000887020008870200085C
:10006000870200088702000887020008870200084C
:10007000870200088702000887020008870200083C
:10008000870200088702000887020008870200082C
:10009000870200088702000887020008090A000892
:1000A000870200088702000887020008870200080C
:1000B000212B0008870200082D2B0008870200086A
:1000C00087020008870200088702000887020008EC
:1000D000870200089931000887020008870200089B
:1000E000F309000887020008870200088702000859
:1000F00087020008870200088702000887020008BC
:1001000087020008870200088702000887020008AB
:10011000870200088702000887020008870200089B
:10012000870200088702000887020008870200088B
:10013000870200080000000000000000870200089D
:10014000870200088702000887020008870200086B
:10015000870200088702000841090008A53100084D
:10016000870200088702000887020008870200084B
:1001700087020008870200088702000800000000CC
:1001800000000000870200080000000000000000DE
:10019000870200080000000000000000870200083D
:1001A00000000000000000000000000087020008BE
:1001B00087020008870200088702000887020008FB
:1001C0008702000800F002F800F041F80AA090E869
:1001D000000C82448344AAF10107DA4501D100F002
:1001E00036F8AFF2090EBAE80F0013F0010F18BF8E
:1001F000FB1A43F0010318477834000098340000DC
:10020000103A24BF78C878C1FAD8520724BF30C842
:1002100030C144BF04680C60704700000023002414
:1002200000250026103A28BF78C1FBD8520728BF06
:1002300030C148BF0B607047642900F01181002075
:1002400070471FB503F0F0F91FBD10B510BD00F0E9
:10025000F6FA1146FFF7F5FF02F0C2FF00F014FBBB
:1002600003B4FFF7F2FF03BC00F01CFB0948804712
:1002700009480047FEE7FEE7FEE7FEE7FEE7FEE788
:10028000FEE7FEE7FEE7FEE704480549054A064BA0
:1002900070470000112B0008C50100084032002003
:1002A00040380020403400204034002053EA020C43
:1002B00000F069802DE9F04B4FF00006002B1FBFC6
:1002C000B3FA83F503FA05F424FA05F65E4012BF8B
:1002D0001643B2FA82F502FA05F4C5F120051EBFF5
:1002E00022FA05FC44EA0C04203556EA044C4FEA95
:1002F000144418BF641C4FF000084FF000099042EE
:1003000071EB030C39D3002919BFB1FA81F701FA57
:1003100007F6B0FA80F700FA07F6C7F120071EBF0C
:1003200020FA07FC46EA0C062037B6FBF4FCA7EBE4
:100330000507103F07F01F0BCBF120060CFA0BFB53
:100340002CFA06F644BFB3460026202FA4BF5E4613
:100350004FF0000B5BEA060C08BF4FF0010B19EBE6
:100360000B09ABFB027C48EB0608C01B06FB02CC6A
:100370000BFB03CC71EB0C01C1E70B460246414677
:100380004846BDE8F08B13B54FF000004FF0000178
:10039000AFF30080BDE81C40704710B54C1084EAF4
:1003A000530404D54042C1F1000138BF491E1B422D
:1003B00004D55242C3F1000338BF5B1EFFF776FF3E
:1003C00014F0804F04D04042C1F1000138BF491EF3
:1003D00014F0004F04D05242C3F1000338BF5B1E3B
:1003E00010BD00000FB41CB5084B06AA7B4469463B
:1003F0000090059800F00BFA04460020694600F0D2
:1004000019FA20461CBC5DF814FB000045040000EE
:1004100070B5044685690068C10601D5302600E044
:100420002026C00707D070BDD4E90121304690478F
:10043000206A401C20626D1EF6D570BD70B5044662
:1004400085690078C00707D170BDD4E9012120205B
:100450009047206A401C20626D1EF6D570BD0000DA
:100460002DE9F0410646002410687529314616A58D
:1004700010D0AFF30080002802DA404213A507E055
:1004800031688A0701D512A502E0490704D511A5F4
:10049000012401E0AFF3008000210A2206F12407C5
:1004A00009E0B0FBF2FCB0FBF2F302FB1C003030C1
:1004B00078541846491C0028F3D123462A46304672
:1004C000BDE8F04100F045B9000000002D0000003B
:1004D0002B000000200000002DE9F05F8946044653
:1004E0004FF0000ADFF824B1FB44C0F820A02046FA
:1004F000E168884700287DD0252806D0D4E901216D
:100500009047206A401C2062F1E700255F462046A4
:10051000E16888472028064607DB312E05D2B81946
:1005200010F8200C08B10543F1E7A80701D525F024
:100530000405C4F81CA00027C4F818A02A2E09D06E
:10054000304602F046FE38B304EB8708303EC8F868
:10055000186019E059F8041B204604EB87029161EA
:10056000E1688847012F064618D1E069002820DAA3
:1005700025F020051DE0D8F8180000EB800006EB00
:1005800040003038C8F818002046E1688847064621
:1005900002F01FFE0028EED1012F0AD02E2E08D126
:1005A0002046E16888477F1C0646022F45F020055B
:1005B000C4DBA069002803DA404245F00105A061D0
:1005C000E80701D025F01005A6B1A6F141001928D1
:1005D00002D8203645F400654A463146204625605B
:1005E0004D46FFF729FE60B1012807D0ED1D25F02B
:1005F000070000E007E000F1080978E705F10409C9
:1006000075E730467AE7206ABDE8F09F7031000058
:10061000032A40F2308010F0030C00F0158011F82E
:10062000013BBCF1020F624498BF11F801CB00F806
:10063000013B38BF11F8013BA2F1040298BF00F85A
:1006400001CB38BF00F8013B11F0030300F0258017
:10065000083AC0F0088051F8043B083A51F804CB3E
:10066000A0E80810F5E7121D5CBF51F8043B40F804
:10067000043BAFF30080D20724BF11F8013B11F80F
:1006800001CB48BF11F8012B24BF00F8013B00F853
:1006900001CB48BF00F8012B704710B5203AC0F0DD
:1006A0000B80B1E81850203AA0E81850B1E8185073
:1006B000A0E81850BFF4F5AF5FEA027C24BFB1E8B0
:1006C0001850A0E8185044BF18C918C0BDE8104021
:1006D0005FEA827C24BF51F8043B40F8043B08BF2A
:1006E0007047D20728BF31F8023B48BF11F8012BF1
:1006F00028BF20F8023B48BF00F8012B70474FF09D
:10070000000200B5134694469646203922BFA0E861
:100710000C50A0E80C50B1F12001BFF4F7AF09076D
:1007200028BFA0E80C5048BF0CC05DF804EB89005E
:1007300028BF40F8042B08BF704748BF20F8022BA1
:1007400011F0804F18BF00F8012B704770477047B9
:1007500070472DE9F0470D4699469246044600F150
:1007600024080168880604D5E06921F010012160A1
:1007700000E00120A84201DD471B00E00027A1693D
:100780007A1902EB0900081AA0612078C00602D489
:100790002046FFF73DFE002608E0D4E901211AF8C3
:1007A00006009047206A401C761C20624E45F4DB10
:1007B0002078C0060AD52046FFF72AFE06E0D4E9D5
:1007C000012130209047206A401C2062381EA7F18A
:1007D0000107F4DC07E0D4E9012118F8050090478F
:1007E000206A401C2062281EA5F10105F3DC20468A
:1007F000FFF724FE2078000602D50220BDE8F0872E
:100800000120FBE701694A1C02610878704700B5C6
:100810008FB0CDE901310021059105497944CDE939
:10082000031011466846FFF757FE0FB000BD0000E9
:10083000E5FFFFFF0A6802F8010B0A607047754682
:1008400000F02CF8AE4605006946534620F007003C
:10085000854618B020B5FFF717FDBDE820404FF0E2
:1008600000064FF000074FF000084FF0000B21F09A
:100870000701AC46ACE8C009ACE8C009ACE8C00967
:10088000ACE8C0098D46704710B50446AFF3008050
:100890002046BDE81040FFF7E3BC00000048704769
:1008A000E031002001491820ABBEFEE7260002001F
:1008B0007047000070B5194CA520012220708220DD
:1008C00060700520A0700020E07020716071A07140
:1008D000E071222020721249124801F035FD08B162
:1008E00000F096F84FF4FA6000F078FA00256119EC
:1008F000642301220B4801F089FD0A4801F014FB32
:100900002128FAD064230C2207A10B4801F07EFDB8
:100910006D1CEDB2092DEAD370BD0000EC2D002056
:1009200074000020F82800206F6E65206269742032
:1009300073656E74200D0A00B0280020FEE70000E9
:10094000014800F0D9B800004029002001681823B0
:10095000CAB2103AB2FBF3F2054B6FF30901032A56
:100960009B5CC36500D9091D81650846704700007E
:100970003C36000810B5014600208B698A6A4FF0AA
:10098000C07453B1B3F5005F15D072B1012A0CD019
:10099000022A0AD0032A09D104E01AB1012A06D09A
:1009A000022A03D1C96AC90100D5012010BDC96A54
:1009B000A142FAD010BD002AF7D0012AF2D0022AB3
:1009C000F3D0032AF3D010BD30B50468256825F4B0
:1009D00080252560046863608368402B036803D02A
:1009E00099600068C26030BD9A600068C16030BD27
:1009F000704710B54FF4005000F0B0FABDE8104059
:100A00004FF4004000F0AABA4FF4807000F0A6BA8C
:100A100072B6FEE710B50848084C0268506A2168B3
:100A20006368536A8342F9D300221018514154225B
:100A30000023FFF73BFC10BD90270020680000203A
:100A40002DE9F0410446876D00F08CFB064694F8D2
:100A500035000025022806D08020606584F83450D7
:100A60000120BDE8F0812068016821F016010160D5
:100A70002068416921F080014161206C08B9A06CB7
:100A800020B12068016821F0080101602068016838
:100A900021F0010101600CE000F064FB801B0528DF
:100AA00007D920206065032084F8350084F834508D
:100AB000D7E720680068C007EED194F85C103F20AB
:100AC0008840B860012084F8350084F83450002054
:100AD000C7E790F83510022903D080214165012035
:100AE0007047052180F835100068016821F0010188
:100AF00001600020704700002DE9F84304464FF0E4
:100B00000009CDF8009063484FF41651A56D0068B8
:100B1000B0FBF1F72E6894F85C10082000FA01F1A0
:100B200031420FD021680A6852070BD50A6822F0BB
:100B300004020A6094F85C108840A860606D40F080
:100B40000100606594F85C104FF0010808FA01F0AC
:100B5000304208D021684969090604D5A860606D53
:100B600040F00200606594F85C1004208840304238
:100B700008D021680968890704D5A860606D40F035
:100B80000400606594F85C1010208840304218D052
:100B900021680968090714D5A8602068016849031D
:100BA00004D50068000308D5A16C07E00168C905F9
:100BB00003D4016821F008010160216C09B12046CD
:100BC000884794F85C1020208840304231D021685A
:100BD0000968C9062DD5A86094F835000528206855
:100BE000016806D0490347D5006800031DD4616C35
:100BF0001CE021F0160101602068416921F08001AC
:100C00004161206C08B9A06C20B12068016821F016
:100C10000801016094F85C103F208840A86084F8C7
:100C2000358084F83490216D1FE0E16B09B12046D6
:100C30008847606D00282BD0606DC00714D0052058
:100C400084F835002068016821F0010101600098F6
:100C5000401C0090B84203D820680068C007F6D155
:100C600084F8358084F83490E16C002910D001B00C
:100C70002046BDE8F04308470168C905D5D401689E
:100C800021F01001016084F8358084F83490CCE7BD
:100C9000BDE8F883180000202DE9F041044600F07B
:100CA00061FA06465CB1022084F83500002584F81C
:100CB00034502068016821F0010101600DE001203D
:100CC000BDE8F08100F04EFA801B052805D92020F0
:100CD0006065032084F83500F2E720680068C007EB
:100CE000F0D12268116820480140D4E9010318437B
:100CF000D4E903363343184363691843A36918439F
:100D0000E3691843236A18430843616A042903D13D
:100D1000D4E90B1319430843106020684069666AE0
:100D200020F0070130460E43012704280CD1A06AA9
:100D30000643E06A40B12046FFF71CFE20B1402088
:100D4000606584F83570BAE7206846612046FFF791
:100D5000FDFD94F85C203F2191408160656584F839
:100D600035700020ACE700003F8010F02DE9F04125
:100D70000446866D90F83400002501280DD001202E
:100D800084F8340094F835700020012F07D084F8DF
:100D9000340002252846BDE8F0810220FBE7022747
:100DA00084F8357060652046FFF70EFE94F85C10FD
:100DB0003F208840B0602068016841F01601016062
:100DC000206C20B12068016841F0080101602068B2
:100DD000016841F001010160DCE7000070B50446E4
:100DE00000F0C0F90546601C02D0044800780444B5
:100DF00000F0B8F9401BA042FAD370BD0C000020EF
:100E00002DE9F05F4FF4807A514D01260227514CB5
:100E10004FF4007B6FF001084FF0FF3950454CD084
:100E20004FF4004A504546D1D4E90C01C4E90A0107
:100E3000FFF7F0FDC4E90C015146284600F088F99F
:100E400005465946444800F083F9012D01D1012897
:100E50000ED005430CD0D4E90201401E41F1FF3110
:100E6000C4E902012068002810DDC4F800800FE00A
:100E7000D4E90201401C41F10001C4E902012068EB
:100E8000002801DD266003E0276001E0C4F800903F
:100E9000D4E90213D525A1FB050603FB0563002257
:100EA00001FB02314FF443720023FFF776FA02F0A0
:100EB00059FAC4E90601BDE8F09FD4E91001C4E97C
:100EC0000E01FFF7A7FDC4E910015146AA462846C6
:100ED00000F03EF905465946504600F039F9012D1B
:100EE00001D015B103E078B101E001280CD0D4E9BC
:100EF0000401401E41F1FF31C4E90401606800288B
:100F000010DDC4F804800FE0D4E90401401C41F175
:100F10000001C4E904016068002801DD666003E0A7
:100F2000676001E0C4F80490D4E90412D525A1FB60
:100F3000050602FB0562002301FB03214FF4437207
:100F4000FFF72BFA02F00EFAC4E90801B3E700003C
:100F5000000002402000002000040240044910B5B7
:100F60000A68024202D00860FFF74AFF10BD000085
:100F7000143C01402DE9F84FDFF8ACA10022012418
:100F800003254FF00F090AF1040BAAF1040E00BF6C
:100F90000B6804FA02F63340B3426ED10F7907F0C2
:100FA0000307012F01D0022F16D187684FEA4208AC
:100FB00005FA08FC27EA0C07D1F80CC00CFA08FC6B
:100FC0004CEA070CC0F808C04768B7430E79C6F36F
:100FD000001696403E4346600E79F643B6070AD0A7
:100FE000C6684FEA420C05FA0CF7BE438F6807FA51
:100FF0000CF73743C7600E7906F00306022E10D1B6
:10100000D60800EB8608D8F8206057074FEAD76C5F
:1010100009FA0CF7BE430F6907FA0CF73743C8F813
:10102000207006684FEA420C05FA0CF7BE430F79B0
:1010300007F0030707FA0CF7374307604E6816F40A
:10104000403F6BD0394E376847F480473760366889
:1010500022F0030706F480460096354E07EB060C97
:10106000DCF8086897074FEA177809FA08F7BE43D3
:10107000304FB84202D100271FE04FE02E4FB84258
:1010800001D1012719E02D4FB84201D1022714E008
:101090002B4FB84201D103270FE02A4FB84201D1AC
:1010A00004270AE0284FB84201D1052705E0274F61
:1010B000B84201D1062700E0072707FA08F73743AF
:1010C000CCF80878DAF800605746D1F804C09E439F
:1010D0005FEACC2C00D51E433E60DBF800605F4623
:1010E000D1F804C09E435FEA8C2C00D51E433E60BD
:1010F000DEF800607746D1F804C09E435FEA8C3C7E
:1011000000D51E433E60084F083F3E68D1F804C03A
:101110009E435FEACC3C00D51E433E60521C102A21
:10112000FFF436AFBDE8F88F083C01404438024078
:10113000003001400000024000040240000802406C
:10114000000C02400010024000140240001802404F
:101150000069084000D0012070470AB181617047E2
:101160000904FBE701488068704700000C0000207C
:101170000248816802781144816070470C000020A9
:101180000B4810B5016841F400710160016841F439
:1011900080610160016841F480710160032000F00A
:1011A0006FF8002000F006F800F024F8002010BDD1
:1011B000003C024070B50D4D04464FF47A7128781A
:1011C000B1FBF0F00A490968B1FBF0F000F03AFB1E
:1011D00048B9102C07D200222146501E00F030F8EA
:1011E00000206C6070BD012070BD00000C0000206C
:1011F000180000200A4808B5016841F480410160E8
:10120000006800F4804000900548001F016841F02C
:1012100080510160006800F08050009008BD00001F
:1012200044380240002809DB00F01F0201219140F0
:101230004009800000F1E020C0F800117047000074
:10124000F0B40E4B1B680C46C3F30223C3F1070531
:10125000042D00D90425191D072901D2002300E01F
:10126000DB1E012606FA05F1491E214099409E40E9
:10127000761E16403143F0BC01F09BBF0CED00E040
:10128000064900F0070208684FF6FF03184040EADD
:101290000220034A10430860704700000CED00E094
:1012A0000000FA052DE9F0470E46050065D0DFF88D
:1012B0001481D8F80000F7B200F00F00B04207D256
:1012C00088F80070D8F8000000F00F00B04254D148
:1012D00028683D4C810712D5400703D5206840F4AB
:1012E000E05020602878000703D5206840F4604073
:1012F00020602068A96820F0F0000843206028786A
:10130000C0072DD0304968680839012812D002285A
:1013100013D0032811D00968890700292DDA216824
:1013200021F0030101432160FFF71CFF814641F2D8
:10133000883A0EE009688903EFE709688901ECE75C
:10134000FFF710FFA0EB0901514502D90320BDE8CA
:10135000F0872068696800F00C00B0EB810FEFD1D6
:10136000D8F80010404601F00F01B14207D90770CC
:10137000006800F00F00B04201D00120E7E72878B4
:10138000400705D52068E96820F4E0500843206054
:101390002878000706D52068296920F4604040EAD3
:1013A000C100206000F038F82168084AC1F3031139
:1013B000515CC8400649086006480068FFF7FAFE1D
:1013C0000020C4E7003C02400838024044360008D0
:1013D0001800002010000020044805490068096832
:1013E000044AC1F38221515CC840704718000020B4
:1013F0000838024054360008044805490068096866
:10140000044AC1F34231515CC840704718000020C3
:101410000838024054360008224810B5006810F021
:101420000C02214815D04110042A11D01D4C241F54
:10143000082A0FD00C2A0CD12268236802F03F0240
:101440005B0221D52068C0F38810A0FB010120E0D9
:10145000084610BD2268236802F03F025B0205D5F2
:101460002068C0F38810A0FB010104E02168C1F3EB
:101470008811A1FB00010023FEF718FF2168C1F3CA
:101480000141491C49000AE02168C1F38811A1FB10
:1014900000010023FEF70AFF2168C1F30271B0FBCF
:1014A000F1F010BD083802400024F4002DE9F84F97
:1014B00004007DD0DFF878B32078ABF10407C007D3
:1014C000A7F1040550D0DBF800105846C1F38101A4
:1014D00001290FD00168C1F38101022902D13968C5
:1014E000490207D40068C0F38100032809D1386895
:1014F000400206D52868800336D560680028D8D019
:1015000032E06068B0F5803F10D0B0F5A02F2868B9
:1015100010D020F480302860286820F480202860D3
:101520006068A0B1FFF71EFE06460CE0286840F494
:101530008030F4E740F480202860F7E7FFF712FEE0
:10154000801B642876D828688003F7D50CE0FFF765
:1015500009FE064605E000BFFFF704FE801B642875
:10156000F0D828688003F7D42078DFF8C892800785
:101570004FF0000A44D5DBF80010584611F00C0F6C
:101580000FD00168C1F38101022902D139684902F3
:1015900007D50068C0F3810003280AD138684002EB
:1015A00007D42868800715D5E068012800D111E02C
:1015B0003AE1E068B0B10120C9F80000FFF7D2FDC0
:1015C000064604E0FFF7CEFD801B0228BAD8286843
:1015D0008007F7D52868216920F0F80040EAC100AB
:1015E00028600DE0C9F800A0FFF7BCFD064604E046
:1015F000FFF7B8FD801B02281CD828688007F7D4A5
:101600002078000727D5DFF828828B48616908F128
:101610006C0881B101210160FFF7A4FD064604E0DA
:10162000FFF7A0FD801B022804D8D8F8000080072F
:10163000F6D510E089E0C0F800A0FFF793FD06465C
:1016400005E000BFFFF78EFD801B02287DD8D8F88B
:1016500000008007F6D42078400769D574484FF021
:10166000000838300068C0000BD471483830016879
:1016700041F08051016000684FF0010800F0805097
:1016800000906E4E3068C00511D4306840F4807010
:101690003060FFF767FD009006E000BFFFF762FDD6
:1016A0000099401A022850D83068C005F6D5604E1F
:1016B000A068683601280FD00528306810D020F0C7
:1016C00001003060306820F004003060A068B8B1DC
:1016D000FFF748FD00900FE0306840F00100F4E7AC
:1016E00040F004003060F7E7FFF73CFD0099411A35
:1016F00041F28830814264D830688007F4D50EE02A
:10170000FFF730FD009007E0FFF72CFD0099411A2C
:1017100041F28830814254D830688007F4D4B8F15F
:10172000000F05D042483830016821F08051016037
:10173000A069A8B3DBF80010C1F38101022947D0EA
:101740000228C9F860A005D000E03AE0FFF70AFDE2
:10175000044639E0FFF706FD064604E0FFF702FD08
:10176000801B02282DD828688001F7D4F4E90701EE
:101770000843E168324A490802EB0141A26841EAA4
:1017800082110843217C40EA0160217D40EA01701A
:1017900038600120C9F86000FFF7E4FC044606E069
:1017A00044E000BFFFF7DEFC001B022809D82868D0
:1017B0008001F7D53AE000BFFFF7D4FC001B0228F8
:1017C00002D90320BDE8F88F28688001F4D42DE009
:1017D0000128F7D03868E26900F48001914223D1F2
:1017E000226A00F03F0191421ED147F6C071626A41
:1017F0000140B1EB821F17D1A26A4FF0FF3300F412
:10180000403103EB5202B1EB024F0DD194F82C2082
:1018100000F07061B1EB026F06D194F8301000F067
:10182000E040B0EB017F01D00120CBE70020C9E709
:101830000838024000004742800E474200700040D6
:101840000000FFFF10B5401EB0F1807F01D30120E2
:1018500010BD4FF0E02460610F21601701F0A9FC7A
:101860000020A06107202061002010BD7047704754
:1018700070B590F83C20012A32D0012480F83C4019
:10188000022280F83D2003685A689D6822F07006A5
:101890000A6832435A60134B02689A4214D0B2F17C
:1018A000804F11D0104B9A420ED0104B9A420BD061
:1018B0000F4B9A4208D00F4B9A4205D00E4B9A42DA
:1018C00002D00E4B9A4204D1496825F08003194397
:1018D000916080F83D40002180F83C10084670BDC2
:1018E000022070BD000001400004004000080040DC
:1018F000000C00400004014000400140001800407E
:1019000010B5040003D094F83D0010B107E00120A9
:1019100010BD002084F83C00204600F01FF8022093
:1019200084F83D00211D206801F006F9012084F8AB
:10193000460084F83E0084F83F0084F8400084F8B4
:10194000410084F8420084F8430084F8440084F89D
:10195000450084F83D00002010BD000008B5016876
:101960001F48B1F1804F0AD01E4A914216D101683A
:1019700041F002010160006800F002002DE0016802
:1019800041F0010101600068002200F001000090B8
:1019900011461C20FFF754FC1C2010E0124A914213
:1019A00011D1016841F0040101600068002200F0DB
:1019B0000400009011461E20FFF742FC1E20BDE8E7
:1019C0000840FFF72FBC094A914207D1016841F056
:1019D00008010160006800F00800009008BD0000E8
:1019E000403802400004004000080040000C004065
:1019F00090F83D10012901D001207047022180F8A4
:101A00003D100168CA6842F00102CA6000681149CD
:101A1000884214D0B0F1804F11D00F4988420ED0C7
:101A20000E4988420BD00E49884208D00D498842A1
:101A300005D00D49884202D00C49884204D1816802
:101A400001F00701062903D0016841F0010101609E
:101A500000207047000001400004004000080040E2
:101A6000000C00400004014000400140001800400C
:101A700070B5044690F83C000025012817D00126D7
:101A800084F83C60022084F83D002068826822F0DF
:101A9000770222F47F4282600868502838D00DDC3B
:101AA00020284FD005DC90B3102811D14AE0022045
:101AB00070BD302846D040280AD13BE060282FD0A6
:101AC00070280DD0B0F5805F03D0B0F5005F12D064
:101AD000012584F83D60002084F83C00284670BD54
:101AE000CB68D1E90121206801F09BF8206881686A
:101AF00041F0770109E0CB68D1E90121206801F0CC
:101B000090F82068816841F480418160E1E719E044
:101B1000CA684968206801F059F95021206806E038
:101B2000CA684968206801F062F96021206801F004
:101B300082F8CEE7CA684968206801F047F9402179
:101B40002068F4E7226801461046F0E770472DE967
:101B5000F04104460068C66805694FF00007A90710
:101B600013D5B10711D5F91E016101202077206836
:101B700080698007204602D0FFF7E8FF04E000F00C
:101B8000BFF8204600F051F92777680716D570078F
:101B900014D521686FF004000861022020772068C6
:101BA000806910F4407F204602D0FFF7CFFF04E0A9
:101BB00000F0A6F8204600F038F92777280715D559
:101BC000300713D521686FF00800086104202077E2
:101BD0002068C0698007204602D0FFF7B7FF04E005
:101BE00000F08EF8204600F020F92777E80616D599
:101BF000F00614D521686FF01000086108202077E6
:101C00002068C06910F4407F204602D0FFF79EFF95
:101C100004E000F075F8204600F007F92777E807A0
:101C200008D0F00706D021686FF001000861204657
:101C300000F060F9280608D5300606D521686FF057
:101C4000800008612046FFF711FE680608D570067F
:101C500006D521686FF040000861204600F056F973
:101C6000A8060AD5B00608D521686FF020000861E3
:101C70002046BDE8F041FFF7FABDBDE8F081000065
:101C800030B587B0044614216846FEF738FD246855
:101C9000164D0021164803230222AC420FD10468DE
:101CA00044F0020404600068009300F00200059014
:101CB000CDE90121CDE9031269460E4811E00E4D30
:101CC000AC4210D1046844F0010404600068009341
:101CD00000F001000590CDE90121CDE9031269462C
:101CE0000648FFF747F907B030BD00000004004088
:101CF0003038024000040240000C00400000024066
:101D0000704770B5044690F83C0000260D46012847
:101D10000FD0012084F83C006AB1042A1DD0082AA3
:101D20002FD00C2A3FD00126002084F83C003046FA
:101D300070BD022070BD206800F086FF20688169B8
:101D400041F0080181612068816921F0040181610D
:101D5000206881692A69114311E0206800F0A4FF1E
:101D60002068816941F4006181612068816921F402
:101D700080618161206881692A6941EA022181616B
:101D8000D2E7206800F0C6FF2068C16941F0080171
:101D9000C1612068C16921F00401C1612068C16985
:101DA0002A69114311E0206800F0E8FF2068C1694A
:101DB00041F40061C1612068C16921F48061C161A1
:101DC0002068C1692A6941EA0221C161ACE710B506
:101DD000040003D094F83D0010B107E0012010BDCD
:101DE000002084F83C00204600F01EF8022084F811
:101DF0003D00211D206800F09FFE012084F8460070
:101E000084F83E0084F83F0084F8400084F84100E4
:101E100084F8420084F8430084F8440084F84500C4
:101E200084F83D00002010BD7047704710B504468F
:101E3000022249B104290ED0082913D094F8410098
:101E4000012816D0012010BD94F83E000128F9D1D8
:101E500084F83E200FE094F83F000128F2D184F886
:101E60003F2008E094F840000128EBD184F840209E
:101E700001E084F841200122206800F0C5FE1649E7
:101E80002068164A884201D0904203D1436C43F443
:101E9000004343642068884213D0B0F1804F10D0D3
:101EA0000F4988420DD00F4988420AD00E49884216
:101EB00007D0904205D00D49884202D00C49884293
:101EC00004D1816801F00701062903D0016841F0BF
:101ED00001010160002010BD00000140000401402C
:101EE0000004004000080040000C00400040014099
:101EF000001800400349884203D103488168491C07
:101F00008160704720280020000000207047704743
:101F100000680349884202D10249012008707047D5
:101F2000001001400000002010F8411F40780843D5
:101F300070470000F8B5016804460868CA684B6934
:101F400010F00F0F4FF0000559D003F0010602F416
:101F50009077374365D0C10705D0D10503D5616CB3
:101F600041F001016164410705D5D90703D0616CD7
:101F700041F002016164810705D5D90703D0616C86
:101F800041F004016164010707D502F020013143EB
:101F900003D0616C41F008016164616C00293AD0A2
:101FA000800604D5900602D5204600F0B9FF2068CF
:101FB0004069616CC0F38010090700D460B320460B
:101FC00000F079FF20684069400621D52068143070
:101FD00050E8001F21F0400140E80012002AF5D12E
:101FE000E06BA8B172490165E06BFEF772FD002855
:101FF00011D0E06B016D01B0BDE8F04008478306E9
:102000000FD593060DD52046BDE8F84000F088BFF7
:102010002046FFF77DFFF8BD2046FFF779FF656496
:10202000F8BD266B2023012E7ED1C6067CD5D606B0
:102030007AD508684868009048694FF00206400663
:102040004DD5E26B106840684FF480770004000CB7
:102050003AD0A18D814237D9E085D069B8422DD0E0
:1020600020680C3050E8001F21F4807140E8001215
:10207000002AF5D12068143050E8001F21F001013A
:1020800040E80012002AF5D12068143050E8001F03
:1020900021F0400140E80012002AF5D184F84230D6
:1020A000256320680C3050E8001F21F0100140E843
:1020B0000012002AF5D1E06BFEF7C2FC6663A08D2A
:1020C000E18D401A81B206E0A18D8142A8D1D0698C
:1020D000B842A5D166632046FFF719FFF8BDA08D71
:1020E000E18D401A81B2E08D0028F7D00029F5D0AB
:1020F00020680C3050E8002F22F4907240E800274E
:10210000002FF5D12068143050E8002F22F0010292
:1021100040E80027002FF5D184F84230256320687D
:102120000C3050E8002F00E006E022F0100240E8FA
:102130000023002BF3D1CDE705062BD5150629D5B5
:1021400094F841002128C9D1A068B0F5805F01D181
:102150002069B0B1206A411C216221680078486082
:10216000E08C401E0004000CE084B7D12068C168F8
:1021700021F08001C1602068C16841F04001C16068
:10218000F8BD206A0088C0F308004860206A801CFF
:102190002062E5E74006F3D55006F1D5CA6820462F
:1021A00022F04002CA6084F8413000F0C1F9F8BD65
:1021B000132E000870B5040004D094F841000025E7
:1021C00010B106E0012070BD84F84050204600F0B8
:1021D00023F8242084F841002068C16821F40051CC
:1021E000C160204600F0FEFE2068016921F49041A4
:1021F00001612068416921F02A0141612068C168BC
:1022000041F40051C1606564202084F8410084F8E5
:1022100042006563002070BD2DE9F04786B0064698
:1022200014216846FEF76BFA40483F4B32680025A0
:102230003E491438022403279A424DD10A6842F0DD
:1022400010020A60096801F010010591016841F06F
:1022500001010160016801F001010591016841F08F
:102260000201016000684FF4806800F002004FF046
:102270000709CDF80080CDE9049001AA694682E8FB
:10228000B0002B48FEF776FE4FF0400A01AACDF8C9
:1022900000A082E8B00269462648FEF76BFE274C94
:1022A00025482060C4E903586561A561E5612562A0
:1022B0004FF000606562C4E9010A2046FEF7ECFCBD
:1022C00008B1FEF7A5FBB463002201212520A66317
:1022D000FEF7B6FF252021E0194B9A4220D10A686B
:1022E00042F020020A60096801F0200105910168AE
:1022F00041F0040101600068694600F004000590A7
:10230000C0208DE8B100082004900E48FEF732FE90
:10231000002211464720FEF793FF4720FEF782FF79
:1023200006B0BDE8F08700000010014044380240CC
:102330000000024000040240B8640240402900202E
:10234000001401400008024090F84230202B01D0D8
:102350000220704721B11AB10023036300F0C8BE08
:10236000012070472DE9F0410068224988423FD1A1
:1023700021480026224C02782048224B017803296C
:1023800018D231B101290BD06254032101701A70A7
:1023900027E00A21B1EB121F23D12270012105E0B1
:1023A0000521B1EB121F03D162700221017018E008
:1023B000067016E0134D104F2D783F7862547D4023
:1023C000532903D2491C01701D700AE01D7006706C
:1023D0006178207861F31F10C0B2854201D100F00E
:1023E000B5F8BDE8F041012203490748FFF7ACBF4B
:1023F000BDE8F0810014014074000020700000204E
:10240000882D00207C000020F82800202DE9F843CA
:10241000044690F84100984616460D46202802D002
:102420000220BDE8F88385B17EB1002060642120E0
:1024300084F84100FEF796FEA6848146E684A068F3
:102440002027B0F5805F02D003E00120E9E7206992
:1024500010B12E4600250EE000260CE0802120461B
:1024600000F061FEA8B9C6B116F8010B21684860FA
:10247000E08C401EE084E08C4B464FF00002CDF82B
:1024800000800028EAD14FF04001204600F04BFECA
:1024900040B184F841700320C3E735F8020BC0F364
:1024A0000800E3E784F841700020BAE770B50446FD
:1024B00090F84100202801D0022070BD01B3FAB18C
:1024C0002162A284E28400206064212384F84130E8
:1024D000A56B144BEB63A56B134B2B64A56B134BD4
:1024E000EB64A36B186520681346A56B021D284694
:1024F000FEF73CFC30B110206064202084F84100DD
:10250000012070BD21686FF0400008602068143021
:1025100050E8001F41F0800140E80012002AF5D188
:10252000002070BD6B2E0008AD2E0008212E000883
:1025300000680349884202D10249012008707047AF
:1025400000100140000000207047FEE72DE9F04137
:102550004D4CE178A07801F07F0100EB012000F004
:1025600052FF9FED4A1B53EC112B00F05FFF00F070
:10257000C7FE484B00EE100A1846D3ED010A40880A
:10258000454DF3EE042A9FED451ADFED451AB4EEF2
:10259000E00AA4F57A71F1EE10FA2BDD70EE600A14
:1025A0005FF0000280EEA22A02EE902AF0EE400ACE
:1025B000F8EE622A42EE220A10EE906AAE4201DD87
:1025C00070EEC10A871860EEA10AFCEEE00A10EE78
:1025D000906A21F8276004EB82063779767907EB59
:1025E0000626871801EB8707521CD2B27E80142A78
:1025F000DAD32CE030EE012A5FF0000272EE600ABE
:1026000080EEA22A02EE902AF0EE400AF8EE622A4C
:1026100042EE220A10EE906AAE4201DD70EEC10A6F
:10262000871860EEA10AFCEEE00A10EE906A21F82D
:10263000276004EB82063779767907EB0626871840
:1026400001EB8707521CD2B27E80142ADAD31430F1
:1026500080B283ED010A5880B0F5827F12D90A4A10
:1026600000206E3231F8204022F8204001EB800437
:1026700002EB8005401C6488C0B26C80FA28F1D35C
:1026800000205880BDE8F081882D00200000000067
:102690000000903F740000200000B4430000B443E9
:1026A0000000C842094808B5016841F48001016092
:1026B0000068002200F48000009011464620FEF7DA
:1026C000BFFDBDE808404620FEF7ACBD30380240F3
:1026D000F0B587B014216846FEF711F8344800249D
:1026E000016841F004010160016801F004010591F5
:1026F000016841F080010160016801F080010591ED
:10270000016841F001010160016801F001010591DA
:10271000016841F0020101600068264F00F00200EC
:102720000590002220213846FEF717FD4FF4005097
:1027300000904FF40410CDE9010469461E48FEF7ED
:1027400019FC202000900125CDE901546946384646
:102750000394FEF70FFC4FF4014000904FF4441037
:10276000CDE9010569463846FEF704FC6E02009685
:1027700069463846CDE90145FEF7FCFB00966946FF
:102780000E48CDE90145FEF7F5FB00220121172097
:10279000FEF756FD1720FEF745FD002201212820F7
:1027A000FEF74EFD2820FEF73DFD07B0F0BD00000E
:1027B000303802400000024000080240000402409D
:1027C00010B586B000241548009401940294039437
:1027D00004944FF080410594C0E90014611EC0E9E3
:1027E000024104618461FFF78BF808B1FEF710F92C
:1027F0004FF48050009069460848FFF739F908B156
:10280000FEF706F9049404A904480594FFF730F88C
:10281000002801D0FEF7FCF806B010BD902700207C
:1028200010B58EB000240794089409940A940B9470
:102830001C2168460C94FDF762FF22482049C0E93C
:10284000001442F2CF01C0E9024104618461FFF744
:1028500057F808B1FEF7DCF84FF48050079007A94D
:102860001848FFF705F908B1FEF7D2F81548FFF749
:10287000AEFA08B1FEF7CCF80B940BA911480C94F2
:10288000FEF7F6FF08B1FEF7C3F86020CDE90004BB
:102890000294082269460B480494FFF732FA08B103
:1028A000FEF7B6F80C2269460648FFF72AFA08B187
:1028B000FEF7AEF80348FFF7E3F90EB010BD0000D5
:1028C00000040040D827002010B586B00024184826
:1028D00000940194029403940494144905940160B3
:1028E0005921C0E9011440F2E731C0E90314802105
:1028F0008161FFF705F808B1FEF78AF84FF48050C0
:10290000009069460A48FFF7B3F808B1FEF780F86F
:102910002020CDE9040404A90548FEF7A9FF0028FA
:1029200001D0FEF775F806B010BD000000080040A9
:102930002028002010B58EB0002407940894099434
:102940000A940B941C2168460C94FDF7D8FE22488B
:102950002049C0E9001442F2CF01C0E902410461FC
:102960008461FEF7CDFF08B1FEF752F84FF48050B6
:10297000079007A91848FFF77BF808B1FEF748F859
:102980001548FFF724FA08B1FEF742F80B940BA99B
:1029900011480C94FEF76CFF08B1FEF739F860207F
:1029A000CDE900040294002269460B480494FFF725
:1029B000A8F908B1FEF72CF8042269460648FFF78B
:1029C000A0F908B1FEF724F80348FFF759F90EB053
:1029D00010BD0000000C0040682800200C4810B515
:1029E0000A4901604FF461214160002181600C229D
:1029F000C160C0E904128161C161FFF7DBFB0028FF
:102A000003D0BDE81040FEF703B810BD0010014030
:102A1000B02800200C4810B50A4901604FF4E121AC
:102A20004160002181600C22C160C0E90412816113
:102A3000C161FFF7BFFB002803D0BDE81040FDF7E0
:102A4000E7BF10BD00140140F828002000686FF0B7
:102A500001010161044801684268491C42F1000219
:102A6000016042607047000068000020FEE7FEE75A
:102A700070477047FEF77CBB30B593B03421684691
:102A8000FDF73DFE14210DA8FDF739FE1E48002577
:102A9000016841F080510160006800F080501290A0
:102AA0001A48016821F4404141F480410160006806
:102AB000022400F440401290012003901020009462
:102AC00006940490CDE907504FF4A87009900420B3
:102AD000CDE90A0468460C94FEF7E8FC08B172B62A
:102AE000FEE70DA90F2081E831004FF48050CDE9B9
:102AF000100502210DA8FEF7D5FB002801D072B603
:102B0000FEE713B030BD00004038024000700040C6
:102B10000248016841F470010160704788ED00E0EF
:102B20000148FFF793BF0000902700200148FFF7FE
:102B30000EB8000020280020F0B50268274B284D71
:102B4000284E294F294C4FF0804C984209D06045BF
:102B500007D0A84205D0B04203D0B84201D0A0426D
:102B600004D122F0700E4A6842EA0E0298421BD04D
:102B7000604519D0A84217D0B04215D0B84213D042
:102B8000A04211D01A4DA8420ED01A4DA8420BD027
:102B9000194DA84208D0194DA84205D0184DA84299
:102BA00002D0184DA84203D122F44075CA682A43C6
:102BB0004D6922F080022A438D68C5620D688562E6
:102BC000984201D0A04201D109690163016841F036
:102BD00004010160012141610260F0BD000001407B
:102BE0000004004000080040000C004000040140C8
:102BF00000400140004401400048014000180040EE
:102C0000001C00400020004010B501F01F0301210E
:102C1000046A99408C430462016A9A40114301623C
:102C200010BD10B5846842EA032224F47F440A43AD
:102C30002243826010BD826822F070020A4342F093
:102C40000701816070470000F0B5036A026A22F054
:102C50000102026242688469124E24F073050C6816
:102C60002C4323F002058B682B430D4DA84201D065
:102C7000B04205D123F00807CB683B4323F004039F
:102C8000A84201D0B04205D14D6922F440721543EB
:102C90008A692A4342608461496841630362F0BDE6
:102CA0000000014000040140F0B5026A036A23F00D
:102CB00010030362436884690D6824F4E64444EA1F
:102CC00005248D6822F0200242EA05120F4D104EB5
:102CD000A84201D0B04206D1CF6822F0800242EA79
:102CE000071222F04002A84201D0B04207D14D693C
:102CF00023F4406343EA85038D6943EA8503436017
:102D00008461496881630262F0BD000000000140F7
:102D100000040140F0B5026A036A23F48073036281
:102D20004368C46922F4007224F073050C68124EE3
:102D30002C438D6842EA05220E4DA84201D0B042D4
:102D400006D1CF6822F4006242EA072222F48062B0
:102D5000A84201D0B04207D14D6923F4405343EA61
:102D600005138D6943EA05134360C4614968C16373
:102D70000262F0BD000001400004014030B5046A69
:102D8000026A22F4805202624268C3690D6823F429
:102D9000E64343EA05238D6824F4005444EA0534ED
:102DA000084DA84202D0084DA84204D14D6922F432
:102DB000804242EA85124260C3614968016404624C
:102DC00030BD0000000001400004014010B5036A5E
:102DD000046A24F001040462846924F0F00444EAE3
:102DE000021423F00A020A438461026210BD10B586
:102DF000036A046A24F010040462846923F0A003C7
:102E000024F4704444EA023243EA0111826101620F
:102E100010BD10B5806B0021C185FFF779F810BD9A
:102E200070B5846B2068406994F84110C0F3C010FD
:102E30000025212904D118B1E584204600F062F86C
:102E40002068406994F84210C0F38010222904D110
:102E500018B1E585204600F02EF8606C40F01000B7
:102E600060642046FFF754F870BD10B50146806BD2
:102E700009680968C90516D40021C18401681431A4
:102E800051E8002F22F0800241E80023002BF5D109
:102E900001680C3151E8002F42F0400241E8002364
:102EA000002BF5D110BDFFF743FB10BD10B5806BB3
:102EB000FFF74AFB10BD01680C3151E8002F22F4E6
:102EC000907241E80023002BF5D10168143151E8DC
:102ED000002F22F0010241E80023002BF5D1016B05
:102EE000012909D101680C3151E8002F22F01002AC
:102EF00041E80023002BF5D1202180F84210002169
:102F00000163704701680C3151E8002F22F0C002C4
:102F100041E80023002BF5D1202180F841107047B3
:102F200008B590F84210222901D0022008BD82681D
:102F30004FF480539A4201D1016921B1816A9A42CA
:102F40001BD04AB10AE00268816A5268C2F30802E3
:102F50000A80816A891C08E0026972B102685268BD
:102F600002F07F020A70816A491C8162C18D491E8C
:102F70000904090CC18503D01BE002685268F1E71F
:102F80000168CA6822F02002CA600168CA6822F497
:102F90008072CA6001684A6922F001024A612021F8
:102FA00080F8421000214163026B012A03D0FFF731
:102FB000D9F9002008BD016301680C3151E8002FE8
:102FC00022F0100241E80023002BF5D101680A68C5
:102FD000D20602D50A6849680091818DFEF797FFF5
:102FE000E7E7000070B5044600680169E26821F473
:102FF0004051114301612169A068E2690843616998
:10300000114308432168CA6849F20C639A4302439A
:10301000CA6020684169A26921F44071114341618D
:1030200031492068884202D03049884202D1FEF7F7
:10303000E3F901E0FEF7D0F9E269002319216425E4
:103040003226B2F5004F626828D0A0FB0101930F31
:103050009200FDF72BF90146B0FBF5F06FF0180276
:10306000504301EB800006EB0010B0FBF5F000F0E0
:10307000F002B1FBF5F002EB0012B1FBF5F06FF0DE
:103080001803584301EB800006EB0010B0FBF5F08D
:1030900000F00F0021681044886070BDA0FB0101A2
:1030A00092185B41FDF702F90146B0FBF5F0020111
:1030B000B1FBF5F06FF01803584301EB800006EB0D
:1030C000C000B0FBF5F000F0F80002EB4002B1FBED
:1030D000F5F0584301EB800006EBC000B0FBF5F0C3
:1030E00000F00700D6E70000001001400014014086
:1030F00081628285C28500214164222180F84210CC
:10310000016921B10168CA6842F48072CA6001682D
:103110004A6942F001024A610068C16841F0200139
:10312000C160002070472DE9F843984617460D46C8
:103130000446089E24E0701C22D0FEF713F8A0EB92
:103140000800B0421AD8CEB12068C168490717D527
:10315000802D15D0402D13D00168C94309070FD425
:1031600001680025406800902046FFF7A4FE082073
:10317000606484F840500120BDE8F8830320FBE739
:103180002068006835EA000004D00020B842D2D0A0
:103190000020F1E70120F9E70148FEF7CBBE00006F
:1031A000B02800200148FEF7C5BE0000F828002026
:1031B000FEE70907090E002804DB00F1E02080F893
:1031C0000014704700F00F0000F1E02080F8141D9B
:1031D000704730380A2801D201207047002070471C
:1031E000ADF57C7DFDF7CCFFFFF746FCFFF770FAED
:1031F000FFF758FAFFF7F2FBFFF7E2FAFFF710FBD1
:10320000FFF798FBFFF760FBFFF704FC2C48FEF785
:10321000EFFB00212B48FEF709FE04212948FEF7A9
:1032200005FE08212848FEF701FE0C212648FEF77E
:10323000FDFD4FF4FA70FDF7D1FDFDF73BFB234890
:10324000FEF7D6FB224E234D30780028FCD0746860
:10325000641C746072B64FF47A721F4901A8FDF7BE
:10326000D7F962B6284622461CA1FDF7BBF80446F2
:1032700000270DF104094FF0640800BF39F827203A
:103280004146B2FBF1F308FB1323B2FBF8F209EB62
:10329000870015A1408800902819FDF7A3F87F1C2E
:1032A0000444FA2FEADB281912A1FDF79BF800214C
:1032B0002044317082B207491048FFF7F7F8C3E79E
:1032C0009027002068280020D827002020280020F0
:1032D0000000002080000020F62D00206672616D45
:1032E000653A25640A00000025642E253032642CDE
:1032F00025640A002D2D2D0A00000000B0280020B2
:1033000021F00042A2F16052B2F5801F01F00043AB
:1033100028BFD2F17F6C0BD95FEA001C43EAC202DE
:1033200042EB507018BF704728BF20F00100704773
:10333000B2F5801FBCBF184670474FEA410C1CF520
:10334000001F02D2084600F074B970B500F018F9F9
:1033500000000089FFF7F6BF4FF00040A0F58000A5
:10336000704700007FEAE17202D1101A62EB01019E
:10337000B1FA81F30B3B24D3994012D1B0FA80F318
:1033800010FA03F108BF7047C3F11D0303F5406352
:1033900003EBC2234FEAD1224FEA415002EB035123
:1033A0007047C3F1200C20FA0CFC9840C3F13203A3
:1033B00003F5406303EBC22341EA0C0101EB035127
:1033C000704710B5C3F1320CC3F10004C4F1200EF4
:1033D0000CF5406C0CEBC22201FA0EFC21FA04F150
:1033E00000FA0EF3E040BDE8104040EA0C0001EBAB
:1033F000025138BF7047401C41F100015B0008BF1B
:1034000020F001007047B0FA80F310FA03F10AD0FF
:10341000C3F11D0303F580634FEA41504FEA0352A5
:1034200002EBD12170474FF000007047DFF848C130
:1034300070B51CEA111E1EBF1CEA13159EEA0C0F84
:1034400095EA0C0F00F06F8081EA030423EA4C1325
:103450004EEAD47E21EA4C1141F4801143F48013EA
:10346000AE44A1FB024CA0FB0365AEF17F7E361992
:1034700055EB0C05A1FB034C4CF10003A0FB021C17
:1034800016EB0C06654153F10003094218BF46F0E4
:10349000010613F4007F0BD14FEA03314FEA0530E8
:1034A000340341EA155140EA16506FF003020AE076
:1034B0004FEAC3214FEAC520F40241EA555140EAE0
:1034C00056506FF0020202EB2E4201EB025585EAE4
:1034D000CE710AD05FEA440C18BF24F0004450F1CA
:1034E000000041F1000120EAD47040F2FE7C624508
:1034F00000D270BDA84214BF4FF080444FF040444A
:10350000002E08BF0024BEF1806FA8BFA1F1C0410A
:10351000BDE8704080F282804FF0000001F1C041B0
:1035200001F0004170479EEA0C0F0CEA131518BF1A
:1035300095EA0C0F06D04FF0000081EA030E0EF062
:10354000004170BD00F01CF88900013E00F007B892
:1035500000F009B84FEA430C5FEA5C5C08D081EAEE
:10356000030100F05BB84FEA410C5FEA5C5CF6D106
:103570004FF00000014970470000FF070000F87F8E
:103580000EF1020E2EF0030E5EF8046B364205D4E7
:10359000012A43EB030515F5001F12D8012841EB62
:1035A000010C1CF5001F0CD80ED14FEAD17C15F58B
:1035B000001F0CEB4C0C0CF1020C08BF4CEBD37C45
:1035C00004E04FF0080C01E04FEAD37C0CEB4C0513
:1035D00026FA05F606F00706B6F1040C06D20EEB45
:1035E000860CBDE870404CF0010C6047DFE80CF041
:1035F000090B02024FF000414FF00000A1F500213D
:1036000070BD19461046012851EB010418BFD4F5CE
:10361000001484BF002001F0004170BD0808A0F52F
:1036200000114FEA310170474FF04070E1EE100A8F
:103630007047FF2141EAD050C005704700061016C0
:103640000006101600000000000000000102030444
:103650000607080900000000010203040400000836
:103660000000000000000002000100001000000047
:1036700090360008000000208000000000020008D2
:103680001037000880000020C03700001C0200082E
:103690000100000000000000000000000100000028
:1036A00010000000000000000024F40000000000F2
:1036B000000000000000000000000000000000000A
:1036C00000000000000000000000000000000000FA
:1036D00000000000000000000000000000000000EA
:1036E00000000000000000000000000000000000DA
:1036F00000000000000000000000000000000000CA
:1037000000000000000000000000000000000000B9
:04000005080001C529
:00000001FF
