:020000040800F2
:10000000F813002065020008934500085F300008DF
:1000100091450008E5060008F14C000800000000CA
:10002000000000000000000000000000B1450008D2
:10003000990700080000000095450008B345000836
:100040007F0200087F0200087F0200087F0200088C
:100050007F0200087F0200087F0200087F0200087C
:100060007F0200087F0200087F0200087F0200086C
:100070007F0200087F0200087F0200087F0200085C
:100080007F0200087F0200087F0200087F0200084C
:100090007F0200087F0200087F020008B107000805
:1000A0007F0200087F0200087F0200087F0200082C
:1000B000614600087F0200086D4600086D300008A8
:1000C000613000087F0200087F0200087F020008FC
:1000D0007F020008D94C00087F0200087F02000858
:1000E0009B0700087F0200087F0200087F020008CB
:1000F0007F0200087F0200087F0200087F020008DC
:100100007F0200087F0200087F0200087F020008CB
:100110007F0200087F0200087F0200087F020008BB
:100120007F0200087F0200087F0200087F020008AB
:100130007F02000800000000000000007F020008AD
:100140007F0200087F0200087F0200087F0200088B
:100150007F0200087F020008E9060008E54C00085D
:100160007F0200087F0200087F0200087F0200086B
:100170007F0200087F0200087F02000800000000E4
:10018000000000007F0200080000000000000000E6
:100190007F02000800000000000000007F0200084D
:1001A0000000000000000000000000007F020008C6
:1001B0007F0200087F0200087F0200087F0200081B
:1001C0007F02000800F002F800F03CF80AA090E876
:1001D000000C82448344AAF10107DA4501D100F002
:1001E00031F8AFF2090EBAE80F0013F0010F18BF93
:1001F000FB1A43F00103184798540000B85400005C
:10020000103A24BF78C878C1FAD8520724BF30C842
:1002100030C144BF04680C60704700000023002414
:1002200000250026103A28BF78C1FBD8520728BF06
:1002300030C148BF0B6070471FB505F00EFA1FBDF7
:1002400010B510BD00F0D4F91146FFF7F5FF04F02A
:10025000A5FD00F0F2F903B4FFF7F2FF03BC00F0D4
:10026000F5F900000948804709480047FEE7FEE726
:10027000FEE7FEE7FEE7FEE7FEE7FEE7FEE7FEE756
:1002800004480549054A064B7047000051460008DE
:10029000C5010008F80D0020F8130020F80F002019
:1002A000F80F002053EA020C00F069802DE9F04BB2
:1002B0004FF00006002B1FBFB3FA83F503FA05F4D5
:1002C00024FA05F65E4012BF1643B2FA82F502FA2E
:1002D00005F4C5F120051EBF22FA05FC44EA0C0412
:1002E000203556EA044C4FEA144418BF641C4FF002
:1002F00000084FF00009904271EB030C39D300293C
:1003000019BFB1FA81F701FA07F6B0FA80F700FADF
:1003100007F6C7F120071EBF20FA07FC46EA0C06C5
:100320002037B6FBF4FCA7EB0507103F07F01F0BC7
:10033000CBF120060CFA0BFB2CFA06F644BFB346B1
:100340000026202FA4BF5E464FF0000B5BEA060C90
:1003500008BF4FF0010B19EB0B09ABFB027C48EB1C
:100360000608C01B06FB02CC0BFB03CC71EB0C0197
:10037000C1E70B46024641464846BDE8F08B13B53F
:100380004FF000004FF00001AFF30080BDE81C40CB
:10039000704710B54C1084EA530404D54042C1F1B3
:1003A000000138BF491E1B4204D55242C3F100036D
:1003B00038BF5B1EFFF776FF14F0804F04D0404239
:1003C000C1F1000138BF491E14F0004F04D0524261
:1003D000C3F1000338BF5B1E10BD00000FB41CB595
:1003E000074B06AA7B4469460090059800F0CFF8B9
:1003F0000020694600F0DEF81CBC5DF814FB00002C
:10040000CD01000010B5431C02E010F8011B71B1D2
:100410008107FAD14FF0013202C88C1A8C4314EADA
:10042000C211F9D0C01A0A0603D0C01E10BDC01AEE
:1004300010BD0A0401D0801E10BD0902FCD0401E70
:1004400010BD032A40F2308010F0030C00F015803C
:1004500011F8013BBCF1020F624498BF11F801CBC7
:1004600000F8013B38BF11F8013BA2F1040298BF2C
:1004700000F801CB38BF00F8013B11F0030300F096
:100480002580083AC0F0088051F8043B083A51F83A
:1004900004CBA0E80810F5E7121D5CBF51F8043B3F
:1004A00040F8043BAFF30080D20724BF11F8013BB2
:1004B00011F801CB48BF11F8012B24BF00F8013B14
:1004C00000F801CB48BF00F8012B704710B5203A67
:1004D000C0F00B80B1E81850203AA0E81850B1E8FD
:1004E0001850A0E81850BFF4F5AF5FEA027C24BFB3
:1004F000B1E81850A0E8185044BF18C918C0BDE8AA
:1005000010405FEA827C24BF51F8043B40F8043B72
:1005100008BF7047D20728BF31F8023B48BF11F827
:10052000012B28BF20F8023B48BF00F8012B704781
:100530004FF0000200B5134694469646203922BF7C
:10054000A0E80C50A0E80C50B1F12001BFF4F7AFC7
:10055000090728BFA0E80C5048BF0CC05DF804EBA9
:10056000890028BF40F8042B08BF704748BF20F817
:10057000022B11F0804F18BF00F8012B7047704715
:100580007047704701694A1C02610878704700B5DE
:100590008FB0CDE901310021059105497944CDE9BC
:1005A00003101146684600F00AF80FB000BD0000C5
:1005B000E5FFFFFF0A6802F8010B0A6070472DE9AA
:1005C000F04106460024D6E90170F56880463046C1
:1005D00003E04146B847641C3046A8470028F8D1DC
:1005E0002046BDE8F081000000487047940D0020CF
:1005F0007546FFF7F9FFAE4605006946534620F001
:100600000700854618B020B5FFF73AFEBDE8204048
:100610004FF000064FF000074FF000084FF0000BBE
:1006200021F00701AC46ACE8C009ACE8C009ACE871
:10063000C009ACE8C0098D46704710B50446AFF359
:1006400000802046BDE81040FFF705BE0149182094
:10065000ABBEFEE7260002007047000070B5194CE3
:10066000A52001222070822060700520A07000204B
:10067000E07020716071A071E07122202072124937
:10068000124802F0D1FB08B100F096F84FF4FA607E
:1006900000F07AFA00256119642301220B4802F068
:1006A00025FC0A4802F0B0F92128FAD064230C2274
:1006B00007A10B4802F01AFC6D1CEDB2092DEAD31C
:1006C00070BD000094090020A4000020A0040020B8
:1006D0006F6E65206269742073656E74200D0A0068
:1006E00058040020FEE70000014800F0DBB80000DD
:1006F000E804002001681823CAB2103AB2FBF3F2F2
:10070000054B6FF30901032A9B5CC36500D9091DE2
:1007100081650846704700006E56000810B5014616
:1007200000208B698A6A4FF0C07453B1B3F5005F43
:1007300015D072B1012A0CD0022A0AD0032A09D19D
:1007400004E01AB1012A06D0022A03D1C96AC901FC
:1007500000D5012010BDC96AA142FAD010BD002AFF
:10076000F7D0012AF2D0022AF3D0032AF3D010BD29
:1007700030B50468256825F4802525600468636029
:100780008368402B036803D099600068C26030BD65
:100790009A600068C16030BD704710B54FF40050DA
:1007A00000F05EFBBDE810404FF4004000F058BB85
:1007B0004FF4807000F054BB72B6FEE710B50848E5
:1007C000084C0268506A21686368536A8342F9D30F
:1007D00000221018514154220023FFF763FD10BD81
:1007E00038030020980000202DE9F0410446876D71
:1007F00000F03AFC064694F835000025022806D0A1
:100800008020606584F834500120BDE8F0812068C4
:10081000016821F0160101602068416921F0800122
:100820004161206C08B9A06C20B12068016821F0FA
:10083000080101602068016821F0010101600CE0FD
:1008400000F012FC801B052807D9202060650320DA
:1008500084F8350084F83450D7E720680068C00772
:10086000EED194F85C103F208840B860012084F8F5
:10087000350084F834500020C7E790F8351002297D
:1008800003D08021416501207047052180F8351093
:100890000068016821F0010101600020704790F8B4
:1008A000350070472DE9F84304464FF00009CDF8B4
:1008B000009063484FF41651A56D0068B0FBF1F746
:1008C0002E6894F85C10082000FA01F131420FD034
:1008D00021680A6852070BD50A6822F004020A60F0
:1008E00094F85C108840A860606D40F0010060657D
:1008F00094F85C104FF0010808FA01F0304208D07B
:1009000021684969090604D5A860606D40F00200BD
:10091000606594F85C1004208840304208D021685B
:100920000968890704D5A860606D40F0040060651F
:1009300094F85C1010208840304218D02168096873
:10094000090714D5A86020680168490304D5006828
:10095000000308D5A16C07E00168C90503D401684C
:1009600021F008010160216C09B12046884794F804
:100970005C1020208840304231D021680968C906C7
:100980002DD5A86094F8350005282068016806D0A8
:10099000490347D5006800031DD4616C1CE021F0B9
:1009A000160101602068416921F080014161206CDD
:1009B00008B9A06C20B12068016821F0080101602D
:1009C00094F85C103F208840A86084F8358084F853
:1009D0003490216D1FE0E16B09B120468847606DBE
:1009E00000282BD0606DC00714D0052084F8350096
:1009F0002068016821F0010101600098401C00900E
:100A0000B84203D820680068C007F6D184F8358062
:100A100084F83490E16C002910D001B02046BDE884
:100A2000F04308470168C905D5D4016821F01001D9
:100A3000016084F8358084F83490CCE7BDE8F88311
:100A4000480000202DE9F041044600F00DFB064669
:100A50005CB1022084F83500002584F83450206809
:100A6000016821F0010101600DE00120BDE8F08185
:100A700000F0FAFA801B052805D9202060650320C4
:100A800084F83500F2E720680068C007F0D12268DA
:100A9000116820480140D4E901031843D4E9033622
:100AA0003343184363691843A3691843E369184340
:100AB000236A18430843616A042903D1D4E90B135C
:100AC00019430843106020684069666A20F00701F6
:100AD00030460E43012704280CD1A06A0643E06A81
:100AE00040B12046FFF71AFE20B14020606584F82F
:100AF0003570BAE7206846612046FFF7FBFD94F8A1
:100B00005C203F2191408160656584F8357000204C
:100B1000ACE700003F8010F02DE9F0410446866DFF
:100B200090F83400002501280DD0012084F834000D
:100B300094F835700020012F07D084F83400022586
:100B40002846BDE8F0810220FBE7022784F83570D3
:100B500060652046FFF70CFE94F85C103F2088404B
:100B6000B0602068016841F016010160206C20B17E
:100B70002068016841F0080101602068016841F0C7
:100B800001010160DCE7000070B5044600F06CFA7A
:100B90000546601C02D004480078044400F064FA62
:100BA000401BA042FAD370BD3C0000202DE9F04F5D
:100BB0000022DFF82CB101264FF00F0906FA02F4EB
:100BC00001EA0403A3427DD122F003075F44D7F872
:100BD000088895074FEA157C09FA0CFA0AEA080515
:100BE000DFF80081404502D14FF000082BE0DFF82C
:100BF000F880404502D14FF0010824E0DFF8EC8096
:100C0000404502D14FF002081DE0DFF8E480404586
:100C100002D14FF0030816E0DFF8D880404502D13A
:100C20004FF004080FE0DFF8D080404502D14FF0CC
:100C3000050808E0DFF8C480404502D14FF00608FF
:100C400001E04FF0070808FA0CF8A84522D12C4D16
:100C5000D5F800C02CEA030CC5F800C02D1DD5F84E
:100C600000C02CEA030CC5F800C0254D0C35D5F8A2
:100C700000C02CEA030CC5F800C02D1FD5F800C039
:100C80002CEA030CC5F800C0D7F8085825EA0A0575
:100C9000C7F80858056857000323BB409D4305600B
:100CA000D50800EB8507D7F820C055074FEAD5686F
:100CB00009FA08F52CEA050CC7F820C0C5689D4361
:100CC000C56000E005E04568A543456084689C4335
:100CD0008460521C102AFFF471AFBDE8F08F000051
:100CE00000300140000002400004024000080240C1
:100CF000000C0240001002400014024000180240A4
:100D0000003C01402DE9F05F4FF4807A514D0126FF
:100D10000227514C4FF4007B6FF001084FF0FF3970
:100D200050454CD04FF4004A504546D1D4E90C010F
:100D3000C4E90A01FFF742FDC4E90C015146284607
:100D400000F088F905465946444800F083F9012D22
:100D500001D101280ED005430CD0D4E90201401E78
:100D600041F1FF31C4E902012068002810DDC4F818
:100D700000800FE0D4E90201401C41F10001C4E908
:100D800002012068002801DD266003E0276001E001
:100D9000C4F80090D4E90213D525A1FB050603FB96
:100DA0000563002201FB02314FF443720023FFF779
:100DB000F0FA04F095F9C4E90601BDE8F09FD4E922
:100DC0001001C4E90E01FFF7F9FCC4E91001514616
:100DD000AA46284600F03EF905465946504600F01E
:100DE00039F9012D01D015B103E078B101E00128F6
:100DF0000CD0D4E90401401E41F1FF31C4E90401E3
:100E00006068002810DDC4F804800FE0D4E9040114
:100E1000401C41F10001C4E904016068002801DDC3
:100E2000666003E0676001E0C4F80490D4E904124E
:100E3000D525A1FB050602FB0562002301FB03216A
:100E40004FF44372FFF7A5FA04F04AF9C4E9080128
:100E5000B3E7000000000240500000200004024000
:100E6000044910B50A68024202D00860FFF74AFF41
:100E700010BD0000143C01402DE9F84FDFF8ACA193
:100E80000022012403254FF00F090AF1040BAAF1F7
:100E9000040E00BF0B6804FA02F63340B3426ED171
:100EA0000F7907F00307012F01D0022F16D18768B1
:100EB0004FEA420805FA08FC27EA0C07D1F80CC0F3
:100EC0000CFA08FC4CEA070CC0F808C04768B743A6
:100ED0000E79C6F3001696403E4346600E79F643FF
:100EE000B6070AD0C6684FEA420C05FA0CF7BE43B3
:100EF0008F6807FA0CF73743C7600E7906F00306D0
:100F0000022E10D1D60800EB8608D8F820605707CB
:100F10004FEAD76C09FA0CF7BE430F6907FA0CF7D2
:100F20003743C8F8207006684FEA420C05FA0CF700
:100F3000BE430F7907F0030707FA0CF73743076042
:100F40004E6816F4403F6BD0394E376847F48047FF
:100F50003760366822F0030706F480460096354E67
:100F600007EB060CDCF8086897074FEA177809FAD0
:100F700008F7BE43304FB84202D100271FE04FE0D0
:100F80002E4FB84201D1012719E02D4FB84201D1AF
:100F9000022714E02B4FB84201D103270FE02A4F5C
:100FA000B84201D104270AE0284FB84201D10527F1
:100FB00005E0274FB84201D1062700E0072707FACE
:100FC00008F73743CCF80878DAF800605746D1F8CC
:100FD00004C09E435FEACC2C00D51E433E60DBF884
:100FE00000605F46D1F804C09E435FEA8C2C00D5B8
:100FF0001E433E60DEF800607746D1F804C09E4391
:101000005FEA8C3C00D51E433E60084F083F3E68B7
:10101000D1F804C09E435FEACC3C00D51E433E603D
:10102000521C102AFFF436AFBDE8F88F083C01408F
:1010300044380240003001400000024000040240F9
:1010400000080240000C0240001002400014024060
:10105000001802400069084000D0012070470AB122
:10106000816170470904FBE7014880687047000010
:101070003C0000207047704710B5040013D02420B6
:1010800084F83D002068016821F0010101602046DC
:1010900000F0E6FB0020206484F83D0044F8300FA7
:1010A000A073207310BD012010BD2DE9F04101682F
:1010B00004464A694E6890F83E000025D743FA0579
:1010C00006D4F243D20503D46FF4807201254A613D
:1010D000B90508D4F143C90505D422686FF400713D
:1010E00045F002055161790525D4F143C90522D4A3
:1010F000638D94F83D10226B202808D13BB921293B
:1011000010D029290ED0282901D1212A0AD02268FD
:101110006FF48061516145F00405102806D0402825
:1011200004D008E0204602F071FC04E02068016869
:1011300041F400710160380508D4F043C00505D4BE
:1011400021686FF4006045F008054861002D07D064
:10115000206C284320642046BDE8F04101F0F2BF36
:10116000BDE8F0812DE9F047026800215368C66AA6
:1011700090F83E4090F83D50102C12D0402C10D0EA
:10118000046C002C7DD05469E443A6077AD4DE4376
:10119000B60577D4036C03B19169BDE8F04702F05E
:1011A00011BC976951694FF42A0CC9435FEAC178B1
:1011B0004FF02A4904D066452AD04E4528D010E089
:1011C000DE43B6050DD4C16A614501D1012103E0BA
:1011D000C16A494501D10821C162BDE8F04702F06A
:1011E00085BA0E0716D4DE43B60513D4416CC9B2D6
:1011F0001161416B09B1C96B29B9816B002907D015
:10120000C96B002904D00068416841F40061416065
:10121000BDE8F0878E0706D4DE43B60503D4BDE8EB
:10122000F04702F0D7B9FE43526876074FEA025200
:101230001DD4002AECDB0A0608D4DA43520505D493
:10124000490705D5BDE8F04702F068B94907DFD482
:10125000D9438905DCD4212D05D0402CD8D1BDE857
:10126000F04702F089BABDE8F04702F015B9002A4C
:10127000CEDB4A060BD4DA43520508D4490708D519
:1012800001E00DE00EE0BDE8F04702F08BB8490741
:10129000BED4D9438905BBD4BDE8F04702F015B8E8
:1012A000916970E7E10606D4D943890503D4BDE806
:1012B000F04702F0F3BB2821212D27D0292D25D07E
:1012C000650655D4DD436D0552D4640752D590F8B8
:1012D0003D30448D002C9BD01269446A2270426AD2
:1012E000521C4262428D521E4285428D002A8FD18D
:1012F0002A2B8DD10268536823F480635360222225
:10130000026380F83D1000F013FB81E7250623D42B
:10131000DD436D0520D4640720D590F83D30448D21
:10132000002CF2D0446A24781461426A521C426252
:10133000428D521E4285428D002AE6D1292BE4D1EE
:101340000268536823F4806353602122026380F8AB
:101350003D1000F0EEFA5BE76107D6D4D94389056A
:10136000D3D4418D0029D0D0416A097811610AE0B7
:101370006107CAD4D9438905C7D4418D0029C4D097
:101380001169426A1170416A491C4162418D491ECE
:1013900041853DE77047000070B5040025D094F802
:1013A0003D00002520B984F83C50204600F07AFA30
:1013B000242084F83D002068016821F001010160CB
:1013C0002068016841F4004101602068016821F44F
:1013D0000041016000F0F4FB4D4A6168914201D880
:1013E0004C4900E04C49884201D2012070BD4B4974
:1013F0002368B0FBF1F15E6826F03F060E435E60A5
:101400006368934206D94FF4967359434FF47A7345
:10141000B1FBF3F12368491C1E6A26F03F063143F5
:1014200019626168914210D84900401EB0FBF1F288
:10143000521CC2F30B02042A01D2042022E0B0FBAA
:10144000F1F0401CC0F30B001CE0A268F2B301EB0A
:10145000C10303EB0116431EB3FBF6F35B1C43F41D
:1014600080431B0549D092B301EBC10202EB01118D
:10147000401EB0FBF1F0401CC0F30B0040F4804074
:1014800040F400402168CA694CF6FF739A43104348
:10149000C861D4E9071001432068026822F0C00245
:1014A00011430160D4E9030101432068826848F2D6
:1014B000FF339A4311438160D4E905010843216851
:1014C000CA6822F0FF021043C86001E00EE016E097
:1014D0002068016841F0010101602564202084F842
:1014E0003D00256384F83E50002070BD01EB4106AD
:1014F000431EB3FBF6F35B1CB3E70120C2E701EB2D
:101500004101401EB0FBF1F0401CC0F30B00B7E7F7
:10151000A086010080841E0000093D0040420F00AB
:101520007047704770477047704700002DE9FF4FC4
:1015300083B09A46DDE9118793460446DDF8409072
:10154000FFF792FD054694F83D00202870D119233D
:10155000012274492046009502F07AFB0028F5D15B
:1015600094F83C00012863D0012084F83C002068F6
:101570000168C90703D1016841F0010101602068D9
:10158000016821F400610160222084F83D004020C0
:1015900084F83E0000262664C4F82490A4F82A802B
:1015A000608D20856048E062CDE9007553465A465B
:1015B0002046049902F034F9002879D1208DD0B169
:1015C000012821D00228206824D041698069009038
:1015D000208D032866D801282BD0544902283B4689
:1015E0004FF00002009557D08846204602F030FBAD
:1015F00000285DD13AE02068416981690091016865
:1016000041F4007101607DE02068016821F480618F
:101610000160F0E7016821F48061016020680168E1
:1016200041F400610160206841698069009069E0CF
:1016300075E02A463946204602F0B0FB88BB54E0EC
:101640002068016841F40071016020680069616AE6
:101650000870606A401C6062218D491E2185618D81
:10166000491E618521680969017042E020680168AE
:1016700021F48061016020680069616A0870606A15
:10168000401C6062208D401E2085608D401E60855C
:101690003B46002241460095204602F0D9FA00B9A7
:1016A000CEE705E02A463946204602F077FB18B11E
:1016B000012007B0BDE8F08F20680069616A0870FA
:1016C000606A401C6062208D401E81B22185608D61
:1016D000401E608520684269D243520712D4032914
:1016E00003D1016821F48061016020680069616AAA
:1016F0000870606A401C6062208D401E2085608DED
:10170000401E6085208D00287FF462AF202084F881
:101710003D0084F83E6084F83C600020C9E7022068
:10172000C7E70000020010000000FFFF04000100F6
:101730002DE9FF4F83B09A46DDE9119793460446A1
:10174000DDF84080FFF790FC054694F83D00202826
:101750007FD11923012240492046009502F078FAF2
:10176000002876D194F83C00012872D0012084F83A
:101770003C0020680168C90703D1016841F00101FC
:1017800001602068016821F400610160212084F873
:101790003D00402084F83E0000262664C4F82480E2
:1017A000A4F82A90608D20852C48E062CDE9007570
:1017B00053465A462046049902F0B0F870B930E01A
:1017C0002A463946204602F021FB58B1206C0428F5
:1017D00004D12068016841F400710160012007B064
:1017E000BDE8F08F606A216800780861606A401C7B
:1017F0006062218D491E89B22185628D521E6285EB
:1018000022685369DB435B070BD469B10078106130
:10181000606A401C6062208D401E2085608D401EE5
:101820006085208D0028CBD12A463946204602F01B
:10183000E3F90028CAD154F83D0B016841F4007166
:101840000160202004F81E09E67766770020C6E7CD
:10185000FFE70220C3E70000020010000000FFFFC6
:1018600010B500680C49884215D10C48016821F474
:10187000001101600A4C80212046FFF797F9A1155D
:101880002046FFF793F91F2000F0B0F8BDE81040A4
:10189000202000F0ABB810BD00540040403802409A
:1018A0000004024010B586B0044614216846FEF7D5
:1018B0003FFE1C492068884231D11B48016841F035
:1018C000020101600068694600F0020005904FF4D3
:1018D000C07000901220019001200290032003901C
:1018E000042004901148FFF7C7FA0F481030016830
:1018F00041F4001101600068022200F4001005901C
:1019000001211F2000F090F81F2000F080F8022233
:101910000121202000F088F8202000F078F806B09F
:1019200010BD000000540040303802400004024066
:10193000704770470248816802781144816070479F
:101940003C0000200B4810B5016841F400710160B3
:10195000016841F480610160016841F480710160B7
:10196000032000F081F8002000F006F800F024F8D1
:10197000002010BD003C024070B50D4D04464FF4F0
:101980007A712878B1FBF0F00A490968B1FBF0F0F0
:1019900000F04CFB48B9102C07D200222146501E03
:1019A00000F042F800206C6070BD012070BD0000A6
:1019B0003C000020480000200B4882B0016841F440
:1019C00080410160006800F4804000900648001FDC
:1019D000016841F080510160006800F08050009083
:1019E000052002B000F040B84438024000280DDB6A
:1019F00000F01F02012191404009800000F1E02029
:101A0000C0F88011BFF34F8FBFF36F8F704700286E
:101A100009DB00F01F02012191404009800000F124
:101A2000E020C0F800117047F0B40E4B1B680C4664
:101A3000C3F30223C3F10705042D00D90425191DA2
:101A4000072901D2002300E0DB1E012606FA05F17A
:101A5000491E214099409E40761E16403143F0BCFD
:101A600003F08CB90CED00E0064900F007020868AD
:101A70004FF6FF03184040EA0220034A1043086073
:101A8000704700000CED00E00000FA052DE9F0477A
:101A90000E46050065D0DFF81481D8F80000F7B2D3
:101AA00000F00F00B04207D288F80070D8F80000AC
:101AB00000F00F00B04254D128683D4C810712D588
:101AC000400703D5206840F4E050206028780007E4
:101AD00003D5206840F4604020602068A96820F0A9
:101AE000F000084320602878C0072DD0304968688E
:101AF0000839012812D0022813D0032811D0096810
:101B0000890700292DDA216821F0030101432160B2
:101B1000FFF7AAFA814641F2883A0EE00968890384
:101B2000EFE709688901ECE7FFF79EFAA0EB0901EE
:101B3000514502D90320BDE8F0872068696800F0AC
:101B40000C00B0EB810FEFD1D8F80010404601F047
:101B50000F01B14207D90770006800F00F00B042D2
:101B600001D00120E7E72878400705D52068E9681B
:101B700020F4E050084320602878000706D520684C
:101B8000296920F4604040EAC100206000F038F884
:101B90002168084AC1F30311515CC8400649086036
:101BA00006480068FFF7E8FE0020C4E7003C02405A
:101BB0000838024076560008480000204000002007
:101BC0000448054900680968044AC1F38221515C50
:101BD000C840704748000020083802408656000878
:101BE0000448054900680968044AC1F34231515C60
:101BF000C840704748000020083802408656000858
:101C0000224810B5006810F00C02214815D0411090
:101C1000042A11D01D4C241F082A0FD00C2A0CD1E5
:101C20002268236802F03F025B0221D52068C0F3DE
:101C30008810A0FB010120E0084610BD226823683F
:101C400002F03F025B0205D52068C0F38810A0FBBC
:101C5000010104E02168C1F38811A1FB0001002308
:101C6000FEF720FB2168C1F30141491C49000AE04D
:101C70002168C1F38811A1FB00010023FEF712FBCC
:101C80002168C1F30271B0FBF1F010BD08380240C9
:101C90000024F4002DE9F84F04007DD0DFF878B37C
:101CA0002078ABF10407C007A7F1040550D0DBF89A
:101CB00000105846C1F3810101290FD00168C1F31A
:101CC0008101022902D13968490207D40068C0F3B2
:101CD0008100032809D13868400206D528688003AE
:101CE00036D560680028D8D032E06068B0F5803F13
:101CF00010D0B0F5A02F286810D020F480302860D4
:101D0000286820F4802028606068A0B1FFF7ACF953
:101D100006460CE0286840F48030F4E740F4802068
:101D20002860F7E7FFF7A0F9801B642876D82868B9
:101D30008003F7D50CE0FFF797F9064605E000BFF2
:101D4000FFF792F9801B6428F0D828688003F7D445
:101D50002078DFF8C89280074FF0000A44D5DBF8FE
:101D60000010584611F00C0F0FD00168C1F381012B
:101D7000022902D13968490207D50068C0F3810001
:101D800003280AD13868400207D42868800715D58F
:101D9000E068012800D111E03AE1E068B0B101202B
:101DA000C9F80000FFF760F9064604E0FFF75CF9A8
:101DB000801B0228BAD828688007F7D528682169CF
:101DC00020F0F80040EAC10028600DE0C9F800A04A
:101DD000FFF74AF9064604E0FFF746F9801B0228A0
:101DE0001CD828688007F7D42078000727D5DFF8AB
:101DF00028828B48616908F16C0881B1012101607A
:101E0000FFF732F9064604E0FFF72EF9801B02289F
:101E100004D8D8F800008007F6D510E089E0C0F8B3
:101E200000A0FFF721F9064605E000BFFFF71CF907
:101E3000801B02287DD8D8F800008007F6D42078CF
:101E4000400769D574484FF0000838300068C0007A
:101E50000BD471483830016841F08051016000684E
:101E60004FF0010800F0805000906E4E3068C005C1
:101E700011D4306840F480703060FFF7F5F80090BE
:101E800006E000BFFFF7F0F80099401A022850D88A
:101E90003068C005F6D5604EA068683601280FD0BE
:101EA0000528306810D020F001003060306820F044
:101EB00004003060A068B8B1FFF7D6F800900FE0DA
:101EC000306840F00100F4E740F004003060F7E7CC
:101ED000FFF7CAF80099411A41F28830814264D86C
:101EE00030688007F4D50EE0FFF7BEF8009007E0F9
:101EF000FFF7BAF80099411A41F28830814254D86C
:101F000030688007F4D4B8F1000F05D0424838306B
:101F1000016821F080510160A069A8B3DBF80010CE
:101F2000C1F38101022947D00228C9F860A005D079
:101F300000E03AE0FFF798F8044639E0FFF794F83C
:101F4000064604E0FFF790F8801B02282DD8286889
:101F50008001F7D4F4E907010843E168324A4908EF
:101F600002EB0141A26841EA82110843217C40EA68
:101F70000160217D40EA017038600120C9F86000ED
:101F8000FFF772F8044606E044E000BFFFF76CF884
:101F9000001B022809D828688001F7D53AE000BF65
:101FA000FFF762F8001B022802D90320BDE8F88F72
:101FB00028688001F4D42DE00128F7D03868E26960
:101FC00000F48001914223D1226A00F03F01914246
:101FD0001ED147F6C071626A0140B1EB821F17D172
:101FE000A26A4FF0FF3300F4403103EB5202B1EB31
:101FF000024F0DD194F82C2000F07061B1EB026F0C
:1020000006D194F8301000F0E040B0EB017F01D031
:102010000120CBE70020C9E7083802400000474212
:10202000800E4742007000400000FFFF10B5401EC8
:10203000B0F1807F01D3012010BD4FF0E02460613A
:102040000F21601702F09AFE0020A0610720206196
:10205000002010BD7047704770B590F83C20012AF1
:1020600032D0012480F83C40022280F83D200368F1
:102070005A689D6822F070060A6832435A60134B12
:1020800002689A4214D0B2F1804F11D0104B9A429C
:102090000ED0104B9A420BD00F4B9A4208D00F4BE8
:1020A0009A4205D00E4B9A4202D00E4B9A4204D16E
:1020B000496825F080031943916080F83D40002174
:1020C00080F83C10084670BD022070BD0000014041
:1020D0000004004000080040000C004000040140E3
:1020E000004001400018004010B5040003D094F8EF
:1020F0003D0010B107E0012010BD002084F83C0035
:10210000204600F01FF8022084F83D00211D2068C1
:1021100002F0B2FA012084F8460084F83E0084F808
:102120003F0084F8400084F8410084F8420084F8BD
:10213000430084F8440084F8450084F83D00002002
:1021400010BD000008B501681F48B1F1804F0AD0EA
:102150001E4A914216D1016841F0020101600068F7
:1021600000F002002DE0016841F00101016000680B
:10217000002200F00100009011461C20FFF754FCE3
:102180001C2010E0124A914211D1016841F0040173
:1021900001600068012200F00400009011461E203A
:1021A000FFF742FC1E20BDE80840FFF730BC094A9B
:1021B000914207D1016841F008010160006800F018
:1021C0000800009008BD00004038024000040040B4
:1021D00000080040000C004090F83D10012901D09B
:1021E00001207047022180F83D100168CA6842F062
:1021F0000102CA6000681149884214D0B0F1804FD2
:1022000011D00F4988420ED00E4988420BD00E499A
:10221000884208D00D49884205D00D49884202D035
:102220000C49884204D1816801F00701062903D0D6
:10223000016841F001010160002070470000014089
:102240000004004000080040000C00400004014071
:10225000004001400018004070B5044690F83C0072
:102260000025012817D0012684F83C60022084F85C
:102270003D002068826822F0770222F47F4282606B
:102280000868502838D00DDC20284FD005DC90B3EA
:10229000102811D14AE0022070BD302846D04028D5
:1022A0000AD13BE060282FD070280DD0B0F5805FB8
:1022B00003D0B0F5005F12D0012584F83D60002006
:1022C00084F83C00284670BDCB68D1E90121206824
:1022D00002F047FA2068816841F0770109E0CB6895
:1022E000D1E90121206802F03CFA2068816841F4BC
:1022F00080418160E1E719E0CA684968206802F01E
:1023000005FB5021206806E0CA684968206802F091
:102310000EFB6021206802F02EFACEE7CA684968F9
:10232000206802F0F3FA40212068F4E722680146B1
:102330001046F0E770472DE9F04104460068C66892
:1023400005694FF00007A90713D5B10711D5F91E8C
:10235000016101202077206880698007204602D033
:10236000FFF7E8FF04E000F0BFF8204600F051F965
:102370002777680716D5700714D521686FF0040019
:102380000861022020772068806910F4407F204691
:1023900002D0FFF7CFFF04E000F0A6F8204600F0DF
:1023A00038F92777280715D5300713D521686FF03E
:1023B00008000861042020772068C0698007204653
:1023C00002D0FFF7B7FF04E000F08EF8204600F0DF
:1023D00020F92777E80616D5F00614D521686FF0A6
:1023E00010000861082020772068C06910F4407F41
:1023F000204602D0FFF79EFF04E000F075F820466B
:1024000000F007F92777E80708D0F00706D0216821
:102410006FF001000861204600F060F9280608D539
:10242000300606D521686FF0800008612046FFF76E
:1024300011FE680608D5700606D521686FF04000C9
:102440000861204600F0D2FAA8060AD5B00608D5E1
:1024500021686FF0200008612046BDE8F041FFF7D9
:10246000FABDBDE8F081000030B587B00446142104
:102470006846FEF75DF82468164D002116480323D0
:102480000222AC420FD1046844F0020404600068E8
:10249000009300F002000590CDE90121CDE903127F
:1024A00069460E4811E00E4DAC4210D1046844F06C
:1024B000010404600068009300F001000590CDE97C
:1024C0000121CDE9031269460648FEF7D5FC07B0A5
:1024D00030BD0000000400403038024000040240DB
:1024E000000C004000000240704770B5044690F8B0
:1024F0003C0000260D4601280FD0012084F83C0046
:102500006AB1042A1DD0082A2FD00C2A3FD00126F8
:10251000002084F83C00304670BD022070BD206869
:1025200002F032F92068816941F008018161206878
:10253000816921F004018161206881692A69114360
:1025400011E0206802F050F92068816941F40061CF
:1025500081612068816921F48061816120688169DD
:102560002A6941EA02218161D2E7206802F072F90A
:102570002068C16941F00801C1612068C16921F08A
:102580000401C1612068C1692A69114311E0206812
:1025900002F094F92068C16941F40061C1612068CA
:1025A000C16921F48061C1612068C1692A6941EA79
:1025B0000221C161ACE710B5040003D094F83D00DE
:1025C00010B107E0012010BD002084F83C00204637
:1025D00000F01EF8022084F83D00211D206802F062
:1025E0004BF8012084F8460084F83E0084F83F0050
:1025F00084F8400084F8410084F8420084F84300E5
:1026000084F8440084F8450084F83D00002010BDA3
:102610007047704710B50446022249B104290ED014
:10262000082913D094F84100012816D0012010BDCC
:1026300094F83E000128F9D184F83E200FE094F888
:102640003F000128F2D184F83F2008E094F84000D0
:102650000128EBD184F8402001E084F841200122D8
:10266000206802F071F816492068164A884201D0A5
:10267000904203D1436C43F4004343642068884292
:1026800013D0B0F1804F10D00F4988420DD00F49C0
:1026900088420AD00E49884207D0904205D00D49A1
:1026A000884202D00C49884204D1816801F00701B8
:1026B000062903D0016841F001010160002010BD2E
:1026C00000000140000401400004004000080040F8
:1026D000000C004000400140001800402DE9F0418E
:1026E000B0492DED088BADF57A7D88427ED1AE4F95
:1026F000F868401CF86001F04FFFB0EE40AAF0EE21
:1027000060AA01F04FFF3878B0EE409AF0EE609A80
:1027100001286BD107F118031A1F111FA34801F0FC
:102720008FFC07F124031A1F111FA04801F0DAFCE7
:102730007868B860FEF798FC7860B968401A00EED7
:10274000100AB8EE400ADFED9A0A9A4980EE20BAE4
:1027500097ED090AF6EE000A70EE201A11EE900AC3
:10276000C7ED091A884208DC11EE900A92498842A6
:1027700003D29FED920A87ED090A786A02F0FCFE07
:102780009FED8F1B53EC112B02F00EFD41EC180B4B
:10279000B86A02F0F1FE9FED8C1B53EC112B02F096
:1027A00003FD53EC182B02F0C5FB02F091FB00EE89
:1027B000100AB0EE4B1A87ED090A87ED0A0AD7ED29
:1027C0000B0A02F097FA8248002490ED000A87ED88
:1027D0000C0A90ED010A87ED0D0A90ED020A87EDD3
:1027E0000E0A97ED040A02F068FB00E0D4E0794D90
:1027F00010EE100A45F8020F97ED050A02F05DFB96
:1028000010EE100A686097ED060A02F056FB10EE13
:10281000100AA86097ED070A02F04FFB10EE100AAD
:10282000E86097ED080A02F048FB10EE100A2861F4
:1028300097ED090A02F041FB10EE100A686197ED6E
:102840000C0A02F03AFB10EE100AA86197ED0D0A8F
:1028500002F033FB10EE100AE86197ED0E0A02F069
:102860002CFB10EE100A286200209FED5B0AAD1EC3
:1028700005EB8001401CD1F80210062800EE901AEA
:1028800060EE800AFCEEE00A10EE901A21448CB251
:10289000EEDB002005EB8001401CD1F81A10032864
:1028A00000EE901A60EE800AFCEEE00A10EE901A3C
:1028B00021448CB2EEDBB0EE4A0AF0EE6A0A02F076
:1028C000E3FA51EC100BB0EE490A45F8260FF0EE92
:1028D000690A696002F0D8FA51EC100B9FED3F9B3A
:1028E000A860E96008EE100A55F8040B0E4655F88A
:1028F0002A1953EC192B02F057FC02F0C3FB08EE27
:10290000906A044453EC192B51EC180B02F04CFC68
:1029100002F0B8FB204484B272B64FF47A723149A7
:102920006846FDF78EFD62B600221046694601E05A
:1029300000200EE001EB800331F82060B3F804C002
:10294000664505D91E68D3F804C0C3F800C05E60B0
:10295000401CC2F1F9038342ECDC521CF92AE7DB8C
:102960000026884608EB8600408802F0ACFA05EBAA
:102970004601761C8887204484B2FA2EF2DB20467A
:1029800002F0A1FAA5F83002002038704FF40D7261
:102990001049154800F0FAFA0DF57A7DBDEC088B68
:1029A000BDE8F081C803002000000020E402002000
:1029B00000007A443333B33F3333B3BF0000000029
:1029C000666666666666E63F333333333333D33F3A
:1029D000880D0020B00000200000C8420000000068
:1029E000000059409E09002058040020704770479D
:1029F00000680349884202D10249012008707047EB
:102A0000001001400000002010F8411F40780843EA
:102A100070470000F8B5016804460868CA684B6949
:102A200010F00F0F4FF0000559D003F0010602F42B
:102A30009077374365D0C10705D0D10503D5616CC8
:102A400041F001016164410705D5D90703D0616CEC
:102A500041F002016164810705D5D90703D0616C9B
:102A600041F004016164010707D502F02001314300
:102A700003D0616C41F008016164616C00293AD0B7
:102A8000800604D5900602D5204601F0E9FF2068B3
:102A90004069616CC0F38010090700D460B3204620
:102AA00001F0A9FF20684069400621D52068143054
:102AB00050E8001F21F0400140E80012002AF5D143
:102AC000E06BA8B172490165E06BFDF7D6FE002806
:102AD00011D0E06B016D01B0BDE8F04008478306FE
:102AE0000FD593060DD52046BDE8F84001F0B8BFDC
:102AF0002046FFF77DFFF8BD2046FFF779FF6564AC
:102B0000F8BD266B2023012E7ED1C6067CD5D606C5
:102B10007AD508684868009048694FF00206400678
:102B20004DD5E26B106840684FF480770004000CCC
:102B30003AD0A18D814237D9E085D069B8422DD0F5
:102B400020680C3050E8001F21F4807140E800122A
:102B5000002AF5D12068143050E8001F21F001014F
:102B600040E80012002AF5D12068143050E8001F18
:102B700021F0400140E80012002AF5D184F84230EB
:102B8000256320680C3050E8001F21F0100140E858
:102B90000012002AF5D1E06BFDF726FE6663A08DDA
:102BA000E18D401A81B206E0A18D8142A8D1D069A1
:102BB000B842A5D166632046FFF719FFF8BDA08D86
:102BC000E18D401A81B2E08D0028F7D00029F5D0C0
:102BD00020680C3050E8002F22F4907240E8002763
:102BE000002FF5D12068143050E8002F22F00102A8
:102BF00040E80027002FF5D184F842302563206893
:102C00000C3050E8002F00E006E022F0100240E80F
:102C10000023002BF3D1CDE705062BD5150629D5CA
:102C200094F841002128C9D1A068B0F5805F01D196
:102C30002069B0B1206A411C216221680078486097
:102C4000E08C401E0004000CE084B7D12068C1680D
:102C500021F08001C1602068C16841F04001C1607D
:102C6000F8BD206A0088C0F308004860206A801C14
:102C70002062E5E74006F3D55006F1D5CA68204644
:102C800022F04002CA6084F8413000F0DBF9F8BD60
:102C90005349000870B5040004D094F841000025A1
:102CA00010B106E0012070BD84F84050204600F0CD
:102CB00023F8242084F841002068C16821F40051E1
:102CC000C160204601F02EFF2068016921F4904187
:102CD00001612068416921F02A0141612068C168D1
:102CE00041F40051C1606564202084F8410084F8FB
:102CF00042006563002070BD2DE9F04786B00646AE
:102D000014216846FDF714FC40483F4B326800250B
:102D10003E491438022403279A424DD10A6842F0F2
:102D200010020A60096801F010010591016841F084
:102D300001010160016801F001010591016841F0A4
:102D40000201016000684FF4806800F002004FF05B
:102D50000709CDF80080CDE9049001AA694682E810
:102D6000B0002B48FEF788F84FF0400A01AACDF8D2
:102D700000A082E8B00269462648FEF77DF8274C9D
:102D800025482060C4E903586561A561E5612562B5
:102D90004FF000606562C4E9010A2046FDF752FE6B
:102DA00008B1FDF709FDB463022201212520A663C5
:102DB000FEF73AFE252021E0194B9A4220D10A68FD
:102DC00042F020020A60096801F0200105910168C3
:102DD00041F0040101600068694600F004000590BC
:102DE000C0208DE8B100082004900E48FEF744F89A
:102DF000002211464720FEF717FE4720FEF707FE88
:102E000006B0BDE8F08700000010014044380240E1
:102E10000000024000040240B8640240E8040020C0
:102E2000001401400008024090F84230202B01D0ED
:102E30000220704721B11AB10023036301F0F8BEEC
:102E4000012070472DE9F0410068224988423FD1B6
:102E500021480026224C02782048224B0178032981
:102E600018D231B101290BD06254032101701A70BC
:102E700027E00A21B1EB121F23D12270012105E0C6
:102E80000521B1EB121F03D162700221017018E01D
:102E9000067016E0134D104F2D783F7862547D4038
:102EA000532903D2491C01701D700AE01D70067081
:102EB0006178207861F31F10C0B2854201D100F023
:102EC000D1FFBDE8F041012203490748FFF7ACBF3D
:102ED000BDE8F08100140140A4000020A000002003
:102EE00030090020AC000020A00400202DE9F843A8
:102EF000044690F84100984616460D46202802D018
:102F00000220BDE8F88385B17EB1002060642120F5
:102F100084F84100FEF7A8F8A6848146E684A068FC
:102F20002027B0F5805F02D003E00120E9E72069A7
:102F300010B12E4600250EE000260CE08021204630
:102F400001F091FEA8B9C6B116F8010B21684860DE
:102F5000E08C401EE084E08C4B464FF00002CDF840
:102F600000800028EAD14FF04001204601F07BFEAE
:102F700040B184F841700320C3E735F8020BC0F379
:102F80000800E3E784F841700020BAE770B5044612
:102F900090F84100202801D0022070BD01B3FAB1A1
:102FA0002162A284E28400206064212384F84130FD
:102FB000A56B144BEB63A56B134B2B64A56B134BE9
:102FC000EB64A36B186520681346A56B021D2846A9
:102FD000FDF7A2FD30B110206064202084F841008C
:102FE000012070BD21686FF0400008602068143037
:102FF00050E8001F41F0800140E80012002AF5D19E
:10300000002070BDAB490008ED4900086149000887
:1030100090F84130202B01D00220704779B172B175
:1030200001628284C28400214164212180F8411020
:103030000068C16841F08001C16000207047012034
:103040007047000000680349884202D1024901200C
:103050000870704700100140000000207047FEE734
:103060000148FEF722B80000E40200200148FEF704
:1030700079B80000E402002038B5806B002190F898
:103080003D202B4B46F2A8141B68B3FBF4F3C3EBB3
:10309000C30303EB830300933BB15B1E0093036800
:1030A0001B689B0505D5009BF6E7036C43F02003E6
:1030B0000364436B03B1D963836B03B1D9630368C2
:1030C0001C6824F480641C604185436B03B119655E
:1030D000836B03B1196503681C6824F001041C604C
:1030E00090F83D402023602C0BD0282434EA0202C3
:1030F0000FD080F83D3080F83E1000BFFEF74AF94F
:1031000038BD80F83D3080F83E100164FDF7B2FF15
:1031100038BD0268136843F0010313600268136846
:1031200043F480631360016380F83D40E6E70000EC
:103130004800002000684169C943090601D4002104
:103140000161704770B5044690F83D0094F83E1058
:10315000102901D0402906D1222804D121680A680B
:1031600022F400620A60282131EA00024FF00005D3
:103170004FF0200626D021684968090505D460284B
:1031800003D084F83D6084F83E5025632068416890
:10319000090537D5416821F400614160606B90F802
:1031A00035203C49012A11D00165606BFDF765FBB4
:1031B00038B32068016821F00101016084F83D60A6
:1031C000606B1CE0256384F83D10DFE7A06B0165B0
:1031D000A06BFDF752FBA0B120684169C9434906C5
:1031E00005D40069616A0870606A401C60622068EA
:1031F000016821F00101016084F83D60A06B016D60
:10320000884710E094F83D10602910D04169C94307
:10321000490605D40069616A0870606A401C6062F2
:103220002046FEF7B7F8206CC1071CD115E084F8E2
:103230003D6025644169C943490605D40069616A56
:103240000870606A401C60622068016821F001011A
:1032500001602046FDF70EFFE5E7810703D4410733
:1032600001D4000704D52068416821F4E061416081
:1032700094F83D00216C49070BD5282809D1064850
:10328000E062256384F83D6084F83E502046FEF7F6
:1032900047F970BD793000080000FFFF01684A69F6
:1032A000D24352050FD46FF480624A61002140F886
:1032B000301F202242738173026942F004020261CE
:1032C0000173012070470020704710B5C26A438D1A
:1032D0000168042B06D0438D032B08D0438D022BAD
:1032E0001DD012E04A6822F480624A600CE04B680C
:1032F00023F480634B60042A06D0022A04D00168BC
:103300000A6822F480620A6001680969426A1170E1
:10331000416A491C4162418D491E418510BD012A07
:1033200034D0102A32D0042A34D0022A32D00B688A
:1033300043F400730B6001680969436A1970416ABC
:10334000491C4162438D5B1E438503681B690B70FA
:10335000416A491C4162418D491E418501684B68A3
:1033600023F440734B60202180F83D1090F83E30EC
:103370000021402B80F83E1010D0082A02D0202ACD
:1033800000D012210163FEF7CCF810BD0B6823F4C6
:103390008063CFE70B6843F48063CBE70163FEF7FC
:1033A000C2F810BD38B590F83D10222910D1C36A7B
:1033B000418D03290DD901680969426A1170416A7A
:1033C000491C4162418D491E4185418D032906D02A
:1033D00038BDC26A022A02D0012906D029B100688C
:1033E000416821F48061416038BD2A4A46F2A81440
:1033F00000211268B2FBF4F202EB82020092026832
:103400002024009D6D1E009526D01568AD05F8D4CA
:10341000156825F4806515600268556825F4E06537
:10342000556002681269456A2A70426A521C4262FB
:10343000428D521E428580F83D4090F83E2080F833
:103440003E10402A21D0082B02D0202B00D0122180
:103450000163FEF766F838BD036C43F02003036494
:10346000536823F4E063536002681269436A1A7078
:10347000426A521C4262428D521E428580F83D4093
:1034800080F83E10FDF786FF38BD0163FEF74BF86C
:1034900038BD00004800002010B5C26A90F83D1009
:1034A00021290BD1418D51B1416A0268097811611E
:1034B000416A491C4162418D491E418510BD20234E
:1034C0000021082A13D0202A11D012F5803F0ED0F7
:1034D0000268546824F4E06454601122026380F8A6
:1034E0003E1080F83D3000BFFEF71CF810BD0268AA
:1034F000546824F4E06454600268146844F400746E
:103500001460016380F83D3090F83E2080F83E1052
:10351000402AE9D1FEF708F810BD000010B590F878
:103520003D1090F83E30C26A048DB4B1212903D019
:10353000402B11D122290FD1418DE1B390F83E10DB
:10354000402942D0416A026809781161416A491CE8
:103550004162418D491E418510BD2129E8D12023BA
:103560000021082A13D0202A11D012F5803F0ED056
:103570000268546824F4E06454601122026380F805
:103580003E1080F83D3000BFFDF7CCFF10BD026853
:10359000546824F4E06454600268146844F40074CD
:1035A0001460016380F83D3090F83E2080F83E10B2
:1035B000402AE9D100E002E0FDF7B6FF10BD006847
:1035C000416821F48061416010BDBDE8104000F009
:1035D000D3B8000078B590F83E50C26A036B90F8FB
:1035E0003D6000240168222E7AD1066D0EB9402D6F
:1035F00076D0056D1DB90569B5F5404F09D0458DEB
:1036000005B3468D384D012E0ED0438D022B3AD096
:103610005DE04A698A6900920A6842F480720A6031
:10362000016D491C016578BDAA4213D10A6822F4D4
:1036300080620A6001684A68120503D50A6822F4AC
:10364000806216E04A698A6900920A6842F4007250
:103650000A6039E0082A10D0202A0ED0122B0AD096
:10366000042A03D0022A01D0102AE7D10A6842F4C2
:1036700080620A6024E0012AE0D00A6822F48062B5
:103680000A600168DEE7042A21D0022A1FD0102A2E
:103690001DD00B6823F480630B6001680B6843F452
:1036A00000630B6001684B681B0509D5AA4212D064
:1036B000012A10D0082A0ED0102A0CD0202A0AD0B5
:1036C00001684A6989690091046578BD08E00B6862
:1036D00043F48063E5E74A6842F480524A60EFE7CA
:1036E000486988690090F0E70000FFFF90F83E10FD
:1036F000402910D00169B1F5804F19D0016DA9B3EF
:10370000016D012910D1416C5FF0F10201F44071AB
:1037100042EAD11106E0016D0029416C05D0C9B221
:1037200041F0010100680161704701F0FE01F9E715
:1037300090F83D102129416C09D0C9B241F0010136
:1037400002681161416B29B1C96B49B902E001F00E
:10375000FE01F5E7816B0029E6D0C96B0029E3D0B3
:103760000068416841F4006141607047FFE7416CC7
:10377000F02201F44071CBE710B590F83D10026DD6
:103780004AB1026D012A14D0026D022A16D0BDE89A
:103790001040FFF7CFBCC16C0129816C02D0C1F38E
:1037A000072108E00268C9B21161016D891C016539
:1037B00010BD816CC9B20268116123E022291CD0BE
:1037C000428D0AB1212920D0428D002AF0D1212931
:1037D000EED101684A6822F4E0624A6001680A6832
:1037E00042F400720A6000210163202280F83D202B
:1037F00080F83E10FDF798FE10BD01680A6842F49B
:1038000080720A60016D491CD1E7416A026809783B
:103810001161416A491C4162418D491E418510BDBB
:103820002DE9F84F0446006889460B9D01689846CB
:10383000174641F4806101602068016841F480719D
:10384000016000954FF0011B0022594620460A9B5B
:1038500000F0FEF94FF4007A40B120680068C0051E
:1038600001D5C4F840A00320BDE8F88F216809F015
:10387000FE0008612B46284920460A9A00F030FADB
:10388000F0BB20684169806900902A4620460A9969
:1038900000F0BCFA40B1206C04283AD120680168DD
:1038A00041F40071016034E0FEB2B8F1010F09D0BB
:1038B0002168380A08612A4620460A9900F0A6FACB
:1038C0000028E8D1206806612A4620460A9900F0BF
:1038D0009DFA0028DFD12068016841F48071016001
:1038E00000950022594620460A9B00F0B1F90028B5
:1038F000B3D1216809F0FF0040F00100086100E049
:1039000007E02B46044920460A9A00F0E9F900280E
:10391000AAD00120A8E70000020001002DE9F84329
:10392000044600680D46DDE908970168984616468A
:1039300041F4807101604B4600224FF00111204696
:10394000009700F085F948B120680068C00502D5ED
:103950004FF4007020640320BDE8F883216805F06F
:10396000FE0008613B464A461549204600F0B8F97A
:1039700088B920684169806900903A4649462046E6
:1039800000F044FA48B1206C042804D12068016892
:1039900041F4007101600120DEE7F5B2B8F1010FDA
:1039A00009D02168300A08613A464946204600F0AD
:1039B0002DFA0028E7D1206805610020CCE700003F
:1039C0000200010038B50C4690F83D200021282562
:1039D000954302680B4605D051699169009180F8C2
:1039E0003C3038BD556825F480655560E243540786
:1039F00000D50121120601D5828900E0028B80F8F2
:103A00003C3092B2FDF737FB38BD00002DE9F041A4
:103A100090F83D300446C26A002120261E4F0068FF
:103A20006FF48065082A01D0202A01D1282B04D008
:103A3000212B17D04561BDE8F081E762426822F48E
:103A4000E0624260206845612068026822F480627A
:103A50000260216384F83D6084F83E102046FDF743
:103A60005FFDE8E7E7622122226384F83D6084F885
:103A70003E10416821F4E0614160206845612068A2
:103A8000016821F4806101602046FFF753FB204666
:103A9000FDF74FFFCFE700000000FFFFF8B590F8FB
:103AA0003D6004460068416821F4E061416020689F
:103AB000002541690091016841F001010160206821
:103AC000016821F48061016020684168090520D502
:103AD000474F222E48D02A2E46D0616B096849688C
:103AE0006185618D19B1216C41F004012164416847
:103AF00021F400614160606BFCF7D1FE012808D021
:103B0000606B0765606BFCF7B8FE10B1606B016D10
:103B10008847608D08B320684169C943490708D4C4
:103B20000069616A0870606A401C6062608D401EB6
:103B3000608520684169C943490608D40069616A03
:103B40000870606A401C6062608D401E6085608DF8
:103B500018B1206C40F004002064206C00B32046B3
:103B6000BDE8F840FFF7EEBAA16B096849686185C6
:103B7000618D19B1216C41F004012164416821F487
:103B800000614160A06BFCF78AFE0128C1D0A06BE8
:103B90000765A06BFCF771FE0028BAD0A06BB6E7F2
:103BA0002A2E06D12563282084F83D002046FDF703
:103BB000BFFE94F83D10202028290DD0216B22292A
:103BC00001D0222E07D1256384F83D0084F83E50B1
:103BD0002046FDF7ADFEF8BD0649E162256384F895
:103BE0003D0084F83E502046FDF79AFCF8BD0000E9
:103BF000793000080000FFFF70B516460D460446F8
:103C00001EE02046FFF74AFB08B1012070BD681C8A
:103C100016D0FDF729FA801BA84200D885B9206884
:103C20004069C04340070BD5002044F8300F2021E5
:103C30006173A073216941F0200121612073E4E7E1
:103C400020684069C0434007DBD4002070BD0000FD
:103C50002DE9F047984617460D460446C1F307463E
:103C6000DDF820902AE000BFB8F1FF3F26D0FDF735
:103C7000FBF9A0EB0901414502D8B8F1000F1DD1B5
:103C80002068012E16D0806925EA00000004000C8F
:103C900012D00020B84211D1002044F8300F20216A
:103CA0006173A073216941F020012161207301201B
:103CB000BDE8F0874069E7E70120EBE72068012EC7
:103CC0000AD0806925EA00000004000C06D000201C
:103CD000B842C9D00020EBE74069F3E70120F7E7DD
:103CE0002DE9F047984616460D4604464FF0000968
:103CF0004FF0200AC1F3074723E020684069C04322
:103D0000400515D42068016841F400710160216804
:103D10006FF480604861C4F8309084F83DA084F866
:103D20003E90216C41F00401216484F83C9021E034
:103D3000701C06D0FDF798F9A0EB0800B04203D83C
:103D400016B1012F1FD021E02068012F15D0806906
:103D500025EA00000004000C18D000BF44F8309F92
:103D600084F80DA084F80E90216941F020012161B2
:103D700084F80C900120BDE8F087406925EA000036
:103D80000004000CEAD12068406901E020688069E5
:103D900025EA00000004000CAFD1ECE72DE9F0416A
:103DA000002590460E460446202728E04069C0437F
:103DB000C0060CD454F8301B6FF01000486144F872
:103DC00010596777A577206A2062257714E0FDF700
:103DD0004BF9A0EB0800B04200D886B920684069D2
:103DE000C04340060BD544F8305F6773A573206964
:103DF00040F02000206125730120BDE8F08120689B
:103E00004169C9434906D1D40020F6E770B516468A
:103E10000D4604461EE02046FFF740FA08B1012097
:103E200070BD681C16D0FDF71FF9801BA84200D892
:103E300085B920684069C04300060BD5002044F8CE
:103E4000300F20216173A073216941F020012161AD
:103E50002073E4E720684069C0430006DBD40020FB
:103E600070BD00002DE9F0414D4CE178A07801F0E3
:103E70007F0100EB012001F084F99FED4A1B53EC18
:103E8000112B01F091F901F023F8484B00EE100AD4
:103E90001846D3ED010A4088454DF3EE042A9FED04
:103EA000451ADFED451AB4EEE00AA4F57A71F1EE99
:103EB00010FA2BDD70EE600A5FF0000280EEA22A9D
:103EC00002EE902AF0EE400AF8EE622A42EE220A52
:103ED00010EE906AAE4201DD70EEC10A871860EE06
:103EE000A10AFCEEE00A10EE906A21F8276004EBCC
:103EF00082063779767907EB0626871801EB870764
:103F0000521CD2B27E80142ADAD32CE030EE012A81
:103F10005FF0000272EE600A80EEA22A02EE902AA2
:103F2000F0EE400AF8EE622A42EE220A10EE906AA3
:103F3000AE4201DD70EEC10A871860EEA10AFCEE08
:103F4000E00A10EE906A21F8276004EB82063779C8
:103F5000767907EB0626871801EB8707521CD2B249
:103F60007E80142ADAD3143080B283ED010A58809F
:103F7000B0F5827F12D90A4A00206E3231F8204013
:103F800022F8204001EB800402EB8005401C64888D
:103F9000C0B26C80FA28F1D300205880BDE8F081CF
:103FA00030090020000000000000903FA400002025
:103FB0000000B4430000B4430000C8422DE9FF41B3
:103FC00080466420FCF7E0FD012503AE64240096E2
:103FD000CDE901542B467522D0214046FDF7A6FAC3
:103FE00040BB9DF80C00702824D100278DF80C7080
:103FF0000096CDE9015401236B22D0214046FDF704
:1040000097FBB8B98DF80C700096CDE901540123E7
:104010001B22D0214046FDF78BFB58B98DF80C7060
:104020000096CDE9015401231C22D0214046FDF722
:104030007FFB18B1002004B0BDE8F0810120FAE751
:1040400070B586B01C4615460E466423062203A9A9
:104050008DE80E0001233B22D021FDF767FAA0B1C5
:104060009FED1D0A1D4884ED000A85ED000A86EDCE
:10407000000AFDF701F86420FCF786FD00F012F954
:104080001648FFF79BFF06B070BDBDF80C00BDF8E9
:10409000102040BA01B200EE101ABDF80E0052BA5C
:1040A000F8EEC00A9FED0E0A40BA00B260EE800A38
:1040B00012B2C6ED000A00EE900AF8EEE00A60EED9
:1040C000800AC5ED000A00EE902AF8EEE00A20EE24
:1040D000800A84ED000AD6E700000000E402002018
:1040E0000000803870B586B01C4615460E46642325
:1040F000062203A98DE80E0001234322D021FDF7FB
:1041000015FAA0B19FED1D0A1D4884ED000A85ED4A
:10411000000A86ED000AFCF7AFFF6420FCF734FDCF
:1041200000F0C0F81648FFF749FF06B070BDBDF8B3
:104130000C00BDF8102040BA01B200EE101ABDF814
:104140000E0052BAF8EEC00A9FED0E0A40BA00B255
:1041500080EE801A00EE900A12B2F8EEE00A86EDC8
:10416000001A80EE801A00EE902AF8EEE00A85ED43
:10417000001A80EE801A84ED001AD6E700000000D5
:10418000E402002000000343094808B5016841F437
:10419000800101600068002200F480000090114658
:1041A0004620FDF741FCBDE808404620FDF72FBC46
:1041B00030380240F0B587B014216846FCF7B8F9F2
:1041C00034480024016841F004010160016801F0F5
:1041D00004010591016841F080010160016801F06E
:1041E00080010591016841F001010160016801F061
:1041F00001010591016841F0020101600068264F4C
:1042000000F002000590002220213846FCF727FF2D
:104210004FF4005000904FF40410CDE901046946BA
:104220001E48FCF729FE202000900125CDE901540D
:10423000694638460394FCF71FFE4FF40140009096
:104240004FF44410CDE9010569463846FCF714FEE9
:104250006E02009669463846CDE90145FCF70CFE32
:10426000009669460E48CDE90145FCF705FE00229F
:1042700001211720FDF7D8FB1720FDF7C8FB02220C
:1042800001212820FDF7D0FB2820FDF7C0FB07B057
:10429000F0BD00003038024000000240000802403B
:1042A000000402400D4810B50B4901600C49416003
:1042B00000214FF480428160C0E9031241618161B5
:1042C000C1610162FDF768F8002803D0BDE8104025
:1042D000FCF772BA10BD000000540040E402002058
:1042E000801A060010B586B0002415480094019489
:1042F0000294039404944FF080410594C0E90014A3
:10430000611EC0E9024104618461FDF7EDFE08B160
:10431000FCF752FA4FF48050009069460848FDF7C8
:104320009BFF08B1FCF748FA049404A904480594DB
:10433000FDF792FE002801D0FCF73EFA06B010BD52
:104340003803002010B58EB0002407940894099417
:104350000A940B941C2168460C94FCF7E9F8224857
:104360002049C0E9001442F2CF01C0E902410461D2
:104370008461FDF7B9FE08B1FCF71EFA4FF48050D6
:10438000079007A91848FDF767FF08B1FCF714FA72
:104390001548FEF710F908B1FCF70EFA0B940BA9BB
:1043A00011480C94FDF758FE08B1FCF705FA60209F
:1043B000CDE900040294082269460B480494FEF7F4
:1043C00094F808B1FCF7F8F90C2269460648FEF7A4
:1043D0008CF808B1FCF7F0F90348FEF745F80EB089
:1043E00010BD0000000400408003002010B586B01E
:1043F00000241848009401940294039404941449EE
:10440000059401605321C0E9011440F2E731C0E98D
:10441000031480218161FDF767FE08B1FCF7CCF938
:104420004FF48050009069460A48FDF715FF08B127
:10443000FCF7C2F92020CDE9040404A90548FDF7E2
:104440000BFE002801D0FCF7B7F906B010BD000044
:1044500000080040C803002010B58EB00024079467
:10446000089409940A940B941C2168460C94FCF758
:104470005FF822482049C0E9001442F2CF01C0E9A8
:10448000024104618461FDF72FFE08B1FCF794F945
:104490004FF48050079007A91848FDF7DDFE08B1DA
:1044A000FCF78AF91548FEF786F808B1FCF784F99D
:1044B0000B940BA911480C94FDF7CEFD08B1FCF745
:1044C0007BF96020CDE900040294002269460B4884
:1044D0000494FEF70AF808B1FCF76EF90422694665
:1044E0000648FEF702F808B1FCF766F90348FDF745
:1044F000BBFF0EB010BD0000000C004010040020F7
:104500000C4810B50A4901604FF461214160002157
:1045100081600C22C160C0E904128161C161FEF7B3
:10452000B9FB002803D0BDE81040FCF745B910BD29
:1045300000100140580400200C4810B50A490160E1
:104540004FF4E1214160002181600C22C160C0E98B
:1045500004128161C161FEF79DFB002803D0BDE814
:104560001040FCF729B910BD00140140A004002040
:1045700000686FF001010161044801684268491C4C
:1045800042F1000201604260704700009800002084
:10459000FEE7FEE770470000014890ED060B70470C
:1045A00050000020014890ED080B7047500000209B
:1045B0007047FDF7BFB9000030B593B034216846AD
:1045C000FBF7B6FF14210DA8FBF7B2FF1E4800252C
:1045D000016841F080510160006800F08050129045
:1045E0001A48016821F4404141F4804101600068AB
:1045F000022400F440401290012003901020009407
:1046000006940490CDE907504FF4A8700990042057
:10461000CDE90A0468460C94FDF73CFB08B172B67C
:10462000FEE70DA90F2081E831004FF48050CDE95D
:10463000100502210DA8FDF729FA002801D072B655
:10464000FEE713B030BD000040380240007000406B
:104650000248016841F470010160704788ED00E094
:104660000148FFF785BF0000380300200148FDF72F
:1046700062BE0000C8030020F0B50268274B284D39
:10468000284E294F294C4FF0804C984209D0604564
:1046900007D0A84205D0B04203D0B84201D0A04212
:1046A00004D122F0700E4A6842EA0E0298421BD0F2
:1046B000604519D0A84217D0B04215D0B84213D0E7
:1046C000A04211D01A4DA8420ED01A4DA8420BD0CC
:1046D000194DA84208D0194DA84205D0184DA8423E
:1046E00002D0184DA84203D122F44075CA682A436B
:1046F0004D6922F080022A438D68C5620D6885628B
:10470000984201D0A04201D109690163016841F0DA
:1047100004010160012141610260F0BD000001401F
:104720000004004000080040000C0040000401406C
:104730000040014000440140004801400018004092
:10474000001C00400020004010B501F01F030121B3
:10475000046A99408C430462016A9A4011430162E1
:1047600010BD10B5846842EA032224F47F440A4352
:104770002243826010BD826822F070020A4342F038
:104780000701816070470000F0B5036A026A22F0F9
:104790000102026242688469124E24F073050C68BB
:1047A0002C4323F002058B682B430D4DA84201D00A
:1047B000B04205D123F00807CB683B4323F0040344
:1047C000A84201D0B04205D14D6922F44072154390
:1047D0008A692A4342608461496841630362F0BD8B
:1047E0000000014000040140F0B5026A036A23F0B2
:1047F00010030362436884690D6824F4E64444EAC4
:1048000005248D6822F0200242EA05120F4D104E59
:10481000A84201D0B04206D1CF6822F0800242EA1D
:10482000071222F04002A84201D0B04207D14D69E0
:1048300023F4406343EA85038D6943EA85034360BB
:104840008461496881630262F0BD0000000001409C
:1048500000040140F0B5026A036A23F48073036226
:104860004368C46922F4007224F073050C68124E88
:104870002C438D6842EA05220E4DA84201D0B04279
:1048800006D1CF6822F4006242EA072222F4806255
:10489000A84201D0B04207D14D6923F4405343EA06
:1048A00005138D6943EA05134360C4614968C16318
:1048B0000262F0BD000001400004014030B5046A0E
:1048C000026A22F4805202624268C3690D6823F4CE
:1048D000E64343EA05238D6824F4005444EA053492
:1048E000084DA84202D0084DA84204D14D6922F4D7
:1048F000804242EA85124260C361496801640462F1
:1049000030BD0000000001400004014010B5036A02
:10491000046A24F001040462846924F0F00444EA87
:10492000021423F00A020A438461026210BD10B52A
:10493000036A046A24F010040462846923F0A0036B
:1049400024F4704444EA023243EA011182610162B4
:1049500010BD10B5806B0021C185FEF749F810BD70
:1049600070B5846B2068406994F84110C0F3C010A2
:104970000025212904D118B1E584204600F062F811
:104980002068406994F84210C0F38010222904D1B5
:1049900018B1E585204600F02EF8606C40F010005C
:1049A00060642046FEF724F870BD10B50146806BA8
:1049B00009680968C90516D40021C1840168143149
:1049C00051E8002F22F0800241E80023002BF5D1AE
:1049D00001680C3151E8002F42F0400241E8002309
:1049E000002BF5D110BDFEF72DFB10BD10B5806B6F
:1049F000FEF734FB10BD01680C3151E8002F22F4A2
:104A0000907241E80023002BF5D10168143151E880
:104A1000002F22F0010241E80023002BF5D1016BA9
:104A2000012909D101680C3151E8002F22F0100250
:104A300041E80023002BF5D1202180F8421000210D
:104A40000163704701680C3151E8002F22F0C00269
:104A500041E80023002BF5D1202180F84110704758
:104A600008B590F84210222901D0022008BD8268C2
:104A70004FF480539A4201D1016921B1816A9A426F
:104A80001BD04AB10AE00268816A5268C2F3080288
:104A90000A80816A891C08E0026972B10268526862
:104AA00002F07F020A70816A491C8162C18D491E31
:104AB0000904090CC18503D01BE002685268F1E7C4
:104AC0000168CA6822F02002CA600168CA6822F43C
:104AD0008072CA6001684A6922F001024A6120219D
:104AE00080F8421000214163026B012A03D0FEF7D7
:104AF000A9F9002008BD016301680C3151E8002FBD
:104B000022F0100241E80023002BF5D101680A6869
:104B1000D20602D50A6849680091818DFDF767FFCA
:104B2000E7E7000070B5044600680169E26821F417
:104B30004051114301612169A068E269084361693C
:104B4000114308432168CA6849F20C639A4302433F
:104B5000CA6020684169A26921F440711143416132
:104B600031492068884202D03049884202D1FDF79D
:104B700037F801E0FDF724F8E269002319216425E4
:104B80003226B2F5004F626828D0A0FB0101930FD6
:104B90009200FBF787FB0146B0FBF5F06FF01802BF
:104BA000504301EB800006EB0010B0FBF5F000F085
:104BB000F002B1FBF5F002EB0012B1FBF5F06FF083
:104BC0001803584301EB800006EB0010B0FBF5F032
:104BD00000F00F0021681044886070BDA0FB010147
:104BE00092185B41FBF75EFB0146B0FBF5F002015A
:104BF000B1FBF5F06FF01803584301EB800006EBB2
:104C0000C000B0FBF5F000F0F80002EB4002B1FB91
:104C1000F5F0584301EB800006EBC000B0FBF5F067
:104C200000F00700D6E7000000100140001401402A
:104C300081628285C28500214164222180F8421070
:104C4000016921B10168CA6842F48072CA600168D2
:104C50004A6942F001024A610068C16841F02001DE
:104C6000C160002070472DE9F843984617460D466D
:104C70000446089E24E0701C22D0FCF7F5F9A0EB56
:104C80000800B0421AD8CEB12068C168490717D5CC
:104C9000802D15D0402D13D00168C94309070FD4CA
:104CA00001680025406800902046FFF7A4FE082018
:104CB000606484F840500120BDE8F8830320FBE7DE
:104CC0002068006835EA000004D00020B842D2D045
:104CD0000020F1E70120F9E70148FDF79BBE000045
:104CE000580400200148FDF795BE0000A0040020F4
:104CF000FEE700001B481C4AD0ED021A40EE011AE4
:104D00009FED1A0A11EE901AC0ED021A914202DCD0
:104D1000B0EE611A03E031EEC01A80ED021AB5EE72
:104D2000C01AF1EE10FA03D231EE001A80ED021A29
:104D300031EE601A0E4AB0EEC11A11EE101A91420D
:104D400002DDD0ED020A01E0C0ED020A10EE901A79
:104D5000084A1144084A914203D230EEC00A80ED5D
:104D6000020A7047880D00200000B4430000B443DD
:104D70000AD7233CFFFFCBBCFFFF7F000907090ECA
:104D8000002804DB00F1E02080F80014704700F0F8
:104D90000F0000F1E02080F8141D70478EB0FCF782
:104DA000D1FDFFF709FCFFF705FAFFF7EDF9FFF773
:104DB000A7FBFFF797FAFFF7C5FAFFF74DFBFFF7E1
:104DC00015FBFFF7B9FBFFF76DFA2248FDF704FA70
:104DD00000212148FDF71EFC04211F48FDF71AFCA5
:104DE00008211E48FDF716FC0C211C48FDF712FC9B
:104DF0001B48FFF7E3F800B34FF4FA70FBF7C4FE6B
:104E0000FBF72CFC4FF6777000F05DF8154C208016
:104E1000FA2000F058F8E0869FED130A00F04DF8F4
:104E200010EE100AA06347F2EE7000F04CF8A4F800
:104E300032020E48FDF7D0F9FEE70DA16846FBF7F8
:104E4000CDFA6846FBF7DEFA82B269460D48FEF7F6
:104E5000DFF8CDE738030020100400208003002095
:104E6000E4020020B0000020EC51B83FC80300204D
:104E70006D70753635303020696E697420657272D8
:104E80006F722100580400202DED020B86B002AA9B
:104E9000DDE90601CDE9000100206946C0F1070304
:104EA000CB5C1354401C0828F8DBDDE90201CDE996
:104EB00004019DED040B08B0704710EE100A00BA13
:104EC00000EE100A7047010241EA102080B27047DC
:104ED00021F00042A2F16052B2F5801F01F00043C0
:104EE00028BFD2F17F6C0BD95FEA001C43EAC202F3
:104EF00042EB507018BF704728BF20F00100704788
:104F0000B2F5801FBCBF184670474FEA410C1CF534
:104F1000001F02D2084600F0A5BB70B500F0EEF904
:104F200000000089FFF7F6BF4FF00040A0F58000B9
:104F30007047000010B591EA030F48BF83F00043AB
:104F400000F13882841A71EB030C05D2121943EB7D
:104F50000C03001B61EB0C01DFF824E14FEA115454
:104F6000A4EB135C1EEA430F18BF9EEA445F73D0A4
:104F700023EA0E03DCF1200E21EA045143F48013EE
:104F800032D322FA0CFE10EB0E0023FA0CFE41EB9A
:104F90000E01CCF1200E03FA0EFE10EB0E0051F1C3
:104FA0000001B1F5801FCCF1200E32D201EB04518B
:104FB00012FA0EF2BDE8104058BF7047401C38BFCF
:104FC0005FEA420218BF7047002814BF20F00100BA
:104FD00041F100014FEA410313F5001F38BF70474C
:104FE000A1F1C04100F0D8B9012A43EB0302ACF1B2
:104FF000200CDCF11F0E32BF4FF0000E23FA0CF331
:1050000010EB030041EB0451B4EB115FD0D0A1EBE6
:10501000045101F5801149085FEA300001EB0451A9
:105020000ED350F1000038BF12FA0EFE08D1BDE8D1
:105030001040C9E7401C38BF5FEA4202CAD1C3E74B
:10504000BDE810404FEA410313F5001F38BF704719
:10505000A1F1C04100F0A0B99EEA445F08D011EA76
:105060005E0FBDE8104004BF01F000410020704712
:10507000BDE8104070B500F041F900BF64FBBE3ED2
:105080000000E0FF4FEA1153A3F58063D3F11E0344
:10509000A8BFD3F1200C08DB4FF0004242EAC12246
:1050A00052EA505232FA03F0704709420BD4102BE7
:1050B000C4BF0020704703F5787CBCF1FF3F05D0EA
:1050C0004FF0FF3070474FF00000704770B500F0B0
:1050D00015F900BF4992248000207047F0E70000D6
:1050E0007FEAE17202D1101A62EB0101B1FA81F399
:1050F0000B3B24D3994012D1B0FA80F310FA03F19C
:1051000008BF7047C3F11D0303F5406303EBC223DF
:105110004FEAD1224FEA415002EB03517047C3F1ED
:10512000200C20FA0CFC9840C3F1320303F54063D5
:1051300003EBC22341EA0C0101EB0351704710B5A8
:10514000C3F1320CC3F10004C4F1200E0CF5406C25
:105150000CEBC22201FA0EFC21FA04F100FA0EF364
:10516000E040BDE8104040EA0C0001EB025138BFBE
:105170007047401C41F100015B0008BF20F00100B6
:105180007047B0FA80F310FA03F10AD0C3F11D039F
:1051900003F580634FEA41504FEA035202EBD121FD
:1051A00070474FF000007047DFF848C170B51CEA47
:1051B000111E1EBF1CEA13159EEA0C0F95EA0C0F78
:1051C00000F06F8081EA030423EA4C134EEAD47E98
:1051D00021EA4C1141F4801143F48013AE44A1FB49
:1051E000024CA0FB0365AEF17F7E361955EB0C0532
:1051F000A1FB034C4CF10003A0FB021C16EB0C06B8
:10520000654153F10003094218BF46F0010613F44B
:10521000007F0BD14FEA03314FEA0530340341EAF6
:10522000155140EA16506FF003020AE04FEAC3211D
:105230004FEAC520F40241EA555140EA56506FF05A
:10524000020202EB2E4201EB025585EACE710AD032
:105250005FEA440C18BF24F0004450F1000041F113
:10526000000120EAD47040F2FE7C624500D270BD9D
:10527000A84214BF4FF080444FF04044002E08BFB6
:105280000024BEF1806FA8BFA1F1C041BDE870400D
:1052900080F282804FF0000001F1C04101F0004136
:1052A00070479EEA0C0F0CEA131518BF95EA0C0F15
:1052B00006D04FF0000081EA030E0EF0004170BDF1
:1052C00000F01CF88900013E00F007B800F009B8B2
:1052D0004FEA430C5FEA5C5C08D081EA030100F00E
:1052E0005BB84FEA410C5FEA5C5CF6D14FF000001E
:1052F000014970470000FF070000F87F0EF1020E21
:105300002EF0030E5EF8046B364205D4012A43EBFF
:10531000030515F5001F12D8012841EB010C1CF5FF
:10532000001F0CD80ED14FEAD17C15F5001F0CEBF5
:105330004C0C0CF1020C08BF4CEBD37C04E04FF09A
:10534000080C01E04FEAD37C0CEB4C0526FA05F67D
:1053500006F00706B6F1040C06D20EEB860CBDE88B
:1053600070404CF0010C6047DFE80CF0090B0202C2
:105370004FF000414FF00000A1F5002170BD19462B
:105380001046012851EB010418BFD4F5001484BF66
:10539000002001F0004170BD0808A0F500114FEA9F
:1053A0003101704710B591EA030F48BF83F0004305
:1053B0003FF5C8AD841A71EB030C07D212198CF0BB
:1053C000004C43EB0C03001B61EB0C01DFF8A4E184
:1053D0004FEA1154A4EB135C1EEA430F18BF9EEA78
:1053E000445F00F0B08023EA6E03524221EA045188
:1053F000C3EB6E0338BF5B1EDCF1200E25D322FA0F
:105400000CFE10EB0E0043FA0CFE41EB0E01CCF14A
:10541000200E03FA0EFE10EB0E0051F10001CCF14C
:10542000200E29D412FA0EF201EB0451BDE810400F
:1054300058BF7047401C1CBFB2F1004F7047002896
:105440000CBF491C20F00100704712EB020E43EB29
:10545000030218BF4FF0010E4EEA4202ACF1200CDD
:10546000DCF11E0E54D943FA0CFE10EB0E0051F184
:10547000FF31CCF11E0ED5D50EF1010E12FA0EFE43
:10548000404141EB010101EB445C5FEA5C5C10D9F7
:1054900010EBDE7001EB045138BFBEF1004FBDE8E8
:1054A000104018BF704700280CBF491C20F00100B5
:1054B000704730D24FEAD42C11F5001124F4006467
:1054C0001BD0B1FA81F20B3AA41AA41ED2F1200328
:1054D000914030FA03F31943904001EBCC71002C5A
:1054E00001EB0451BDE81040A8BF704701F1C04175
:1054F0004FF0000001F000417047B0FA80F310FA5D
:1055000003F100D110BDE41A173C4805C90AE4E7CD
:1055100001EB045110BD491001EB0451BDE81040EE
:105520004FEA300002E04FF0000170474A0008BF28
:105530000042F8D0B2F5001F28BF704701F00041CB
:105540004FF0000070479EEA445F07D011EA5E0FFB
:10555000BDE8104004BF002100207047BDE81040A6
:1055600070B5FFF7CBFE00BF40DFF63E83F0004191
:10557000104670470000E0FF43004FEAD30C4FEAAB
:105580003C0C43401FBF40070CF1605113F0FE4F2D
:1055900070471CF0006F03D100200CF000417047F1
:1055A0000CF0004343EA507010B540EACC0000F024
:1055B0000EF800BF000000924FEA0001FFF7ECBEBA
:1055C0004FF000414FF00000A1F5002170470EF1AF
:1055D000020E2EF0030E5EF8044B244204D44FEA70
:1055E0004102B2F17F4F11D84FEA4003B3F17F4F30
:1055F0000CD80ED14FEAD07CB2F17F4F0CEB4C0CA3
:105600000CF1020C08BF4CEBD17C04E04FF0080C0D
:1056100001E04FEAD17C0CEB4C0324FA03F404F0D4
:105620000704B4F1040C06D20EEB840CBDE8104064
:105630004CF0010C6047DFE80CF0070802024FF065
:105640000040A0F5800010BD0846420018BFD2F10E
:10565000807288BF00F0004010BD4FF04070E1EE56
:10566000100A7047FF2141EAD050C005704700067C
:1056700010160006101600000000000000000102D5
:1056800003040607080900000000010203040000EB
:10569000B056000800000020B00000000002000822
:1056A00060570008B0000020481300001C020008EA
:1056B00001000000000000000000000000000000E9
:1056C00000000000000000000000000000000000DA
:1056D00000000000000000000000000000000000CA
:1056E00000000000000000000000000001000000B9
:1056F00010000000000000000024F4000000000082
:105700000000000000000000000000000000000099
:105710000000000000000000000000000000000089
:105720000000000000000000000000000000000079
:105730000000000000000000000000000000000069
:105740000000000000000000000000000000000059
:105750000000000000000000000000000000000049
:04000005080001C529
:00000001FF
